:020000040804EE
:1000000048D60120F942050801430508CBF9040848
:1000100005430508074305080943050800000000DB
:100020000000000000000000000000000B43050875
:100030000D430508000000002B290508432A050888
:100040001343050813430508134305081343050824
:100050001343050813430508134305081343050814
:100060001343050813430508134305081343050804
:100070001343050813430508B50A0508134305088B
:1000800013430508134305081343050813430508E4
:100090005DFC0408134305081343050813430508D2
:1000A00013430508134305081343050813430508C4
:1000B00013430508134305081343050813430508B4
:1000C00013430508134305081343050813430508A4
:1000D00013430508D11B050813430508AB0B05089E
:1000E0001343050813430508134305081343050884
:1000F0001343050813430508134305081343050874
:100100001343050813430508134305081343050863
:100110001343050813430508134305081343050853
:100120001343050813430508134305081343050843
:100130001343050813430508134305081343050833
:100140000F18050813430508134305081343050852
:100150001343050813430508DB1A05081343050874
:100160001343050813430508134305081343050803
:1001700013430508134305081343050813430508F3
:100180001343050800F002F800F05AF80AA090E8BE
:10019000000C82448344AAF10107DA4501D100F042
:1001A0004FF8AFF2090EBAE80F0013F0010F18BFB5
:1001B000FB1A43F001031847A4A50100C4A50100E0
:1001C0000A444FF0000C10F8013B13F0070408BF7D
:1001D00010F8014B1D1108BF10F8015B641E05D01B
:1001E00010F8016B641E01F8016BF9D113F0080FD0
:1001F0001EBF10F8014BAD1C0C1B09D16D1E58BF62
:1002000001F801CBFAD505E014F8016B01F8016B98
:100210006D1EF9D59142D6D370470000002300240B
:1002200000250026103A28BF78C1FBD8520728BF06
:1002300030C148BF0B6070471FB51FBD10B510BD62
:1002400018F099FB1146FFF7F7FF00F028F818F0B7
:10025000B7FB03B4FFF7F2FF03BC18F0BFFB0000CD
:1002600010B50FF0DBFB0FF0E0FB10BD00F0A0FAC3
:1002700000F03AFF01F0A5FB0AF05EFF0AF031FF43
:1002800003F0C2FE04F0B7FB0BF057FE07F02DFDA4
:1002900007F03BF802E032200EF042FDFBE70024BD
:1002A00012F022FB0446FFF7DBFF0FF003FC0A23EA
:1002B000084A0021AFF24B000FF0DEFB204612F09F
:1002C00017FB0FF0F1FB02E00A200EF029FDFBE71F
:1002D000704700008C1B0020FE4870477CB5054627
:1002E000002400200190FCA00068009001A928468D
:1002F0000EF0CDFD044630220421F6481E3018F0E1
:10030000E6FAC4F10402F3491E315018224601A94D
:1003100018F066FAEF480099C0F81A107CBD10B5C5
:1003200086B0EE4A07CA03AB07C3EDA103C9CDE906
:10033000010104F097FB044641F2AF21E54818F0B3
:10034000F0FA1022E849E3480A3018F049FA0A2284
:1003500003A9E04818F089FADE480199C0F8221094
:10036000BDF80810C1842046FFF7B8FF06B010BDE5
:1003700000B589B0002005900690079008900EF017
:1003800026F801A805F094FF01A80FC8CDE90723BE
:10039000CDE90501102205A9CE480A3018F020FA4F
:1003A00009B000BD01460020092902DB392900DC23
:1003B000012070470146012070477CB505460C4678
:1003C00000200190C5480C3000680090207801287A
:1003D00002D0022808D104E00120019009F0E9F9D7
:1003E00002E00020019000BF00BF6078022803D126
:1003F000009800F0F9F900BF00BF0020BB49487029
:10040000019805F066FF7CBD7047F8B506460C46BE
:10041000B2481030006800900025605D012804D0CB
:10042000022803D0FE280ED104E00CE0009800F072
:10043000DBF908E0A74890F8AE0020F02001A548BD
:1004400080F8AE1000BF00BF681CC5B2605D012817
:1004500002D0022813D109E09E4890F8280020F02D
:100460000100401C9B4981F8280008E0994890F859
:10047000280020F00100974981F8280000BF00BF44
:10048000F8BD38B504460D46944814300068009015
:10049000009800F0A9F938BD2DE9FE4305460E4647
:1004A0008E48183000680290002001900027814695
:1004B00080460024009082218D4818F010FA57E001
:1004C0004FF00009301900880190002747E007EB42
:1004D0004700884931F81000BDF8041088423CD12B
:1004E0004FF001097B48B0F8361100F59C700844C4
:1004F000BDF804100180A01CC4B2A81E85B27548C6
:10050000B0F83601801C7349A1F8360116F8048052
:10051000601CC4B2681E85B20846B0F8362100F5EA
:100520009C701318311907EB4700724A02EB400028
:10053000D0F802C06A464046E04704EB0800C4B267
:10054000A5EB080085B26348B0F836019DF80010AD
:1005500008446049A1F8360105E0781CC7B2664836
:1005600000788742B3DB00BFB9F1000F00D101E092
:10057000022DA5D200BF029800F036F9BDE8FE8337
:1005800038B505460C4655481C3000680090207868
:100590008DF80300009800F027F938BD38B50446FF
:1005A0000D464E48203000680090009800F01CF97D
:1005B00038BD01224D4B1A70704738B505460C46C0
:1005C00046482430006800902078302805DA2078EA
:1005D0008DF80300009800F007F938BD73B50D469B
:1005E000002400BF14E09DF8000004EB8401434A9E
:1005F000515C88420AD1BDF8010004EB8401134626
:100600001944D1F801202946904705E0601CC4B286
:100610003B4800788442E6DB00BF7CBD2DE9F04119
:1006200086B007460E4600200390049005903C4695
:10063000358802900190B6F8008071E0B4F80100AE
:1006400002902078682866D1BDF80800FFF7AAFE5E
:10065000002860D0BDF8080085425BDBBDF80800CB
:10066000801E81B220460EF01AFBBDF80810891ECC
:10067000615C884248D1BDF80800401E205C162805
:1006800042D120680390A088ADF81000A0798DF8C1
:100690001200BDF810000190BDF80800801E205C1B
:1006A0008DF813009DF81200FFF784FE48B1DDF8C5
:1006B0000F00E11D0090FFF791FF002003900490D0
:1006C0000590BDF808000444BDF80800281A85B25A
:1006D000002017E0902B00203032303010990508B0
:1006E0004344522D55310000959600200C00002007
:1006F000C62C00202898050800000020E298050874
:100700000100002002900BE0641C681E85B20020EE
:10071000029005E006E0641C681E85B2002002908D
:10072000032D8BDA00BF2A462146384618F058F8C8
:100730003580A8EB0501781918F0D1F806B0BDE8AE
:10074000F081ADF6180D002400200190FFF7E7FDC1
:100750004FF47A600EF0E4FA00BF0020019002A886
:10076000021901AB012108460FF0B9F8BDF80400E9
:10077000204484B2B4F5016F00D90024BDF8040010
:1007800040B93CB102AD019401A92846FFF746FFEC
:10079000BDF804400FF07AFBFFF7EAFD0BF050FEC6
:1007A0000DF089FF0FF09EFD0A200EF0B9FAD4E794
:1007B00010B50623034A0021AFF279000FF05CF96F
:1007C00010BD00008C2B0020FE48704710B5FD487E
:1007D00000210180817001F0FFF8FB49086004F0FE
:1007E00025F9FA49086010BD31B5002404E0601C09
:1007F000C4B20A200EF094FAF548407808B1642C8F
:10080000F5DBF3480099016038BDF1484078704746
:100810002DE9F04106460D469046002400BF102207
:10082000EA48016801F25111EA4817F0D9FF281986
:100830001022E84917F0D4FF10342819E5490A3985
:10084000D1F81A100160241D2919DF480068D0F87A
:1008500052010860241D2819DE490A39D1F81E10FA
:100860000160241D2919D8480068D0F85601086095
:10087000241D2819D7490A39D1F822200260C98CD1
:100880008180A41D2819D3490A390A6802604A6880
:100890004260098901810A3410F01AFD4FF47A711F
:1008A00000FB01F728190760241DF01CB480BDE887
:1008B000F0812DE9F04105460E4617460024301917
:1008C0001022C44917F08CFF1034E81CAC80BDE83E
:1008D000F0812DE9F04105460E46174600243019F7
:1008E000E222BC49223117F07BFFE234E81CAC80E5
:1008F000BDE8F081F0B589B006460D4617460024E4
:100900000020059006900790089028192822B249E7
:1009100017F066FF28342919AE480A38408D088040
:10092000A41C2919A9480068B0F8CF000880A41CAD
:1009300001A80DF033FF01A80FC8CDE90723CDE9C9
:1009400005012819102205A917F04AFF1034F01CE0
:10095000B48009B0F0BD70B504460D4616469D48FA
:100960000A38B0F83611E01CA180A2889A492A31D1
:10097000284617F035FF70BD2DE9F04107460D46BA
:10098000164600242E55641C302E04DB0220285508
:10099000601C84B2D1E101202855601C84B2C6EBF2
:1009A00086118948006800F5A87010F8110000F061
:1009B000010020B902202855601C84B2BDE101204D
:1009C0002855601C84B22919C6EB86127E4800683F
:1009D00000F5A87000EB4200B0F80B000880A01CE6
:1009E00084B22919C6EB86127748006800F5A87012
:1009F00000EB4200B0F811000880A01C84B2291955
:100A0000C6EB86127048006800F5A87000EB420043
:100A1000B0F813000880A01C84B2C6EB86116A48A7
:100A2000006800F5A87000EB410090F84A002855D6
:100A3000601C84B2C6EB86116348006800F5A8709C
:100A400000EB410090F860002855601C84B2291921
:100A5000C6EB86125C48006800F5A87000EB420007
:100A6000B0F850000880A01C84B2C6EB861156482E
:100A7000006800F5A87000EB410090F8520028557E
:100A8000601C84B2C6EB86114F48006800F5A87060
:100A900000EB410090F839002855601C84B22919F8
:100AA000C6EB86124848006800F5A87000EB4200CB
:100AB000B0F84B000880A01C84B2C6EB8613424AF3
:100AC000126802F5A87202EB430202F1190128191B
:100AD000202217F085FE04F1200084B2C6EB8613B5
:100AE000394A126802F5A87202EB430202F13A0198
:100AF0002819102217F074FE04F1100084B229198D
:100B0000C6EB86123048006800F5A87000EB420082
:100B1000B0F858000880A01C84B22919C6EB8612D0
:100B20002948006800F5A87000EB4200B0F85A00B0
:100B30000880A01C84B22919C6EB861222480068DE
:100B400000F5A87000EB4200B0F85C000880A01C23
:100B500084B22919C6EB86121B48006800F5A870FC
:100B600000EB4200B0F817000880A01C84B22919DD
:100B7000C6EB86121448006800F5A87000EB42002E
:100B8000B0F815000880A01C84B22919C6EB8612A3
:100B90000D48006800F5A87000EB4200B0F8650051
:100BA0000880A01C84B2C6EB86110748006800F5D7
:100BB000A87000EB410090F854002855601C84B2E6
:100BC0000CE000000C0000200400002008000020C1
:100BD0000F0000209A2B00209E2C0020C6EB8611CF
:100BE000FE48006800F5A87000EB410090F8550041
:100BF0002855601C84B2C6EB8611F848006800F5E1
:100C0000A87000EB410090F856002855601C84B293
:100C1000C6EB8611F148006800F5A87000EB4100B2
:100C200090F857002855601C84B2C6EB8611EB483B
:100C3000006800F5A87000EB410090F85E002855B0
:100C4000601C84B2C6EB8611E448006800F5A87009
:100C500000EB410090F84F002855601C84B2291920
:100C6000C6EB8612DD48006800F5A87000EB420074
:100C7000B0F861000880A01C84B22919C6EB861266
:100C8000D648006800F5A87000EB4200B0F8630099
:100C90000880A01C84B2C6EB8611D048006800F51D
:100CA000A87000EB410090F85F002855601C84B2EA
:100CB000C6EB8611C948006800F5A87000EB41003A
:100CC00090F867002855601C84B2C6EB8611C348B3
:100CD000006800F5A87000EB410090F84D00285521
:100CE000601C84B2C6EB8611BC48006800F5A87091
:100CF00000EB410090F84E002855601C84B2C6EB12
:100D00008611B648006800F5A87000EB410090F825
:100D100053002855601C84B2C6EB8613AF4A126894
:100D200002F5A87202EB430202F1680128191622AB
:100D300017F056FD04F1160084B2F81CBC80BDE823
:100D4000F0812DE9F041A0B007460D469046002401
:100D50000026684605F00DFA684608F06DFC064668
:100D60002E55641C28193246694617F039FD344463
:100D700010A808F061FC06462E55641C281932465E
:100D800010A917F02DFD3444281910229449096840
:100D900001F2511117F024FD1034F81CBC8020B072
:100DA000BDE8F081F0B504460B460021002000BFED
:100DB0003CE0C1EB8116894D2D6805F5A87515F845
:100DC000165005F001054DB3C1EB8116834D2D681A
:100DD00005F5A87505EB460595F84A501D54451CC8
:100DE000A8B21E18C1EB81177C4D2D6805F5A875BA
:100DF00005EB4705B5F80D503580851CA8B21E18C7
:100E0000C1EB8117754D2D6805F5A87505EB4705F4
:100E1000B5F80B503580851CA8B205E01D180026DA
:100E20002E602E71451DA8B24D1CE9B23029C0DBE1
:100E3000E51CA080F0BD2DE9F04107460D461646A1
:100E400000242E55641C06EB860202EB4612634B0F
:100E50001B6841F6F00C63441A44911C28191822AF
:100E600017F0BEFC1834281906EB860101EB461179
:100E70005A4A126841F6F0031A44114451F81A2FE5
:100E800002604A6842600A890281897A81720B3461
:100E9000F81CBC80BDE8F08108B55248006800909D
:100EA0005148407801280DD141F288314F480DF06A
:100EB0001FFF012806D100214C480DF019FF0098B2
:100EC000FFF792FC08BD08B54648001D0068009079
:100ED0004548807801280DD141F2883144480DF011
:100EE00007FF012806D1002141480DF001FF0098BD
:100EF000FFF77AFC08BD08B53A4808300068009052
:100F00003C48007801280AD100203A49087013F0C3
:100F1000CCF93949086013F0C8F93849086044F63B
:100F2000206135480DF0E4FE012818D1E222344951
:100F3000344817F029FC90B14FF47A712F480DF026
:100F4000D7FE01280BD100212C480DF0D1FEE22262
:100F50002B492C4817F089FC0098FFF745FC08BD89
:100F600008B520480C30006800901F48007898B9F8
:100F700041F2707124480DF0BBFE012802D02348D5
:100F8000007848B9002120480DF0B2FE0098FFF724
:100F90002BFC01201D49087008BD2DE9F0410646D3
:100FA0000F461546002468202855641CB088093077
:100FB000A6F801002819B6F801100180A41C281910
:100FC000D6F803100160241DB2882819394617F09D
:100FD00007FC30792044C4B2214619E00400002007
:100FE00008000020689905080C0000201C00002063
:100FF0002000002024000020140000201800002001
:10100000BC2B002040460020280000202C0000209F
:1010100028460DF044FE2855601CC4B21620285501
:10102000BDE8F081ADF5047D4FF4807144A817F060
:1010300078FC4FF4807104A817F073FC0020019035
:10104000029003900024FFF7C1FB4FF47A600DF08B
:1010500067FE00BF29480078012834D100242DE024
:101060002648407804EB8401254A515C884223D10C
:1010700004EB84001146085C8DF807001F48817856
:101080008DF80A10C27804EB84001D490844D0F89A
:10109000013044A901A8984704AA44A901A8FFF770
:1010A0007CFF0DF1050304AA012108460EF007FCA0
:1010B00012480021016005E0601CC4B211480078AC
:1010C0008442CDDB00BF01200F490870084600783C
:1010D000012801D1FFF70FFF0EF0D8FE0FF002F943
:1010E0000A200DF01DFEB5E710B50723074A0021C1
:1010F000AFF2CF000EF0C0FC10BD00000F000020CA
:1011000038990508130000200C0000203C46002000
:1011100010B5FFF7E1F8FE49086010BD7CB500246A
:1011200004F005FD019000200090BDF806000A21A2
:1011300090FBF1F085B2BDF8040090FBF1F086B2AF
:101140006A46294630460EF07FFA0446BDF9001083
:10115000EF4800684185214601200FF02DF8EC484A
:10116000006890F8280064F3C300E949096881F831
:101170002800E748006890F8AD0064F34510E449A2
:10118000096881F8AD007CBD10B5E148006890F8B1
:10119000AD00C0F3400000285BD1DD48006890F846
:1011A000AD0000F00100002853D1D948006890F844
:1011B000AE00C0F3001000284BD1D5480068416B49
:1011C000806B002251405040014342D1D048016819
:1011D000486D896D5040514008433AD1CC48006871
:1011E00090F8AD00C0F3800098BBC948006890F843
:1011F000AD00C0F3C00060BBC548006890F8AD000A
:101200000121B1EBD01F24D0C148006890F8AE0096
:1012100000F00100E8B9BE48006890F8AE00C0F3E5
:101220004000B0B9BA480068B630016D406D002387
:101230005940584001430CD1B5480068B630816828
:10124000C06859405840014303D101F0CAF8012851
:101250000FD1012104200EF0AFFFAD48006890F8D7
:10126000AD0020F010001030A949096881F8AD00E8
:101270000DE0002104200EF09FFFA548006890F8C3
:10128000AD0020F01001A248006880F8AD1010BD3C
:1012900010B54FF4FA719F480DF02AFD012810D1C6
:1012A00000219C480DF024FD9B48007808B90120DE
:1012B00000E00020984908700846017805200EF0EB
:1012C0007BFF10BD10B5FFF729FFFFF75DFFFFF7AC
:1012D000DFFF10BD10B501200EF0CAFF18B38F4814
:1012E000B0F900100088401C00B28C4A108096298A
:1012F0003CDB9620114608808548006890F828005D
:1013000020F00400001D8249096881F82800804807
:10131000006890F8AD0020F00200801C7C4909684C
:1013200081F8AD0022E07D48B0F900100088401E31
:1013300000B27A4A108011F1960F17DC6FF0950019
:10134000114608807248006890F8280020F00400D8
:101350006F49096881F828006D48006890F8AD0071
:1013600020F002016A48006880F8AD1010BD10B589
:1013700000200EF07DFFC0B1694890F900100078A0
:10138000401C40B2664A1070052926DB0520114634
:1013900008705F48006890F8AD0020F00100401C24
:1013A0005B49096881F8AD0017E05D4890F90010CD
:1013B0000078401E40B25A4A107011F1050F0CDC43
:1013C000FB20114608705248006890F8AD0020F0EC
:1013D00001014F48006880F8AD1010BD10B5022023
:1013E0000EF046FFC0B14F4890F900100078401C45
:1013F00040B24C4A1070052926DB052011460870C2
:101400004348006890F8AE0020F040014031404869
:10141000006880F8AE1017E0424890F9001000789C
:10142000401E40B23F4A107011F1050F0CDCFB204A
:10143000114608703648006890F8AE0020F0400170
:101440003348006880F8AE1010BD3148006890F84D
:10145000AD00C0F3400010BB2D48006890F8AD000F
:1014600000F00100D8B92A48006890F8AE00C0F337
:101470000010A0B92648006890F8AD00C0F38000C5
:1014800068B92348006890F8AE0000F0010030B958
:101490001F48006890F8AE00C0F3400010B1012072
:1014A00021490870704710B59CB00CA80AF069FD7E
:1014B0004FF0FF349DF83100002863D02B2111A894
:1014C00017F00DFA9DF83100012804D002280FD042
:1014D000032847D134E001208DF831002F2210A9D4
:1014E000684617F0C2F90CA80FC803F0F2FC39E007
:1014F00002208DF831002F2210A9684617F0B5F9A7
:101500000CA80FC804F014F80446601CB8B10DE034
:1015100030000020380000203C0000203E00002069
:101520004000002041000020340000202F2210A99C
:10153000684617F09AF90CA80FC803F0CAFC11E02E
:1015400002208DF8310004F035F804B2601C40B17F
:101550002F2210A9684617F088F90CA80FC803F0CD
:10156000B8FC00BF00BF40210CA817F0DAF92F2209
:1015700010A9684617F079F90CA80FC80AF0F7FC13
:101580000AF0EAFF1CB010BD10B50024F84800684E
:1015900090F8AD00C0F34000002863D1F448006823
:1015A00090F8AD0000F0010000285BD1F048006821
:1015B00090F8AE00C0F30010002853D1EC4800684A
:1015C000416B806B00235940584001434AD1E848A1
:1015D0000068416D806D002251405040014341D16F
:1015E000E348006890F8AD00C0F38000D0BBE0484D
:1015F000006890F8AD00C0F3C00098BBDC480068FC
:1016000090F8AD000121B1EBD01F2BD0D848006875
:1016100090F8AE0000F0010020BBD548006890F8BB
:10162000AE00C0F34000E8B9D1480068C16E006F59
:1016300059405840014315D1CD480068B630016D7E
:10164000406D5940584001430CD1C9480068B6303C
:101650008168C06859405840014303D100F0C1FE81
:10166000012802D10124FFF71EFF204610BD10B54E
:10167000FFF730FEFFF77BFEFFF7B0FEFFF784FFBA
:10168000FFF7E3FE10BDBA480068416F806F4FF668
:10169000FF72504070EA01011DD1B548006890F812
:1016A000AF0000F0010058B9B148006890F8280078
:1016B00020F00200801CAE49096881F8280014E07F
:1016C000AB48006890F8280020F00200A84909689B
:1016D00081F8280009E0A648006890F8280020F06A
:1016E0000200A349096881F82800704710B504F08A
:1016F0001EFC9F490968B1F92A1088420BDC9C48FE
:10170000006890F8AE0020F0100110319848006891
:1017100080F8AE1012E004F00AFC323894490968EF
:10172000B1F92A10884209DD9148006890F8AE00AE
:1017300020F010018E48006880F8AE1010BD10B582
:1017400000208B4909684A6D896D00246240614020
:101750000A4351D1864909684A6B896B62406140EE
:101760000A4349D18249096891F8AE10C1F30011CA
:10177000002941D17E490A68D16E126F61406240F2
:10178000114339D17A49096891F8AD10C1F340018C
:1017900091BB7749096891F8AD1001F0010159BB7F
:1017A0007349096801F587710A6A496A62406140B4
:1017B0000A4321D16E490968CA6D096E00235A4057
:1017C00059400A4318D16A4909684A6E896E6240D5
:1017D00061400A4310D16649096891F82810C1F3A5
:1017E000400149B96349097831B96149096891F8FB
:1017F000AE10C1F3801101B1012010BD00B589B058
:1018000001A806F090FA5A48006890F8AF0000F07E
:10181000010000283FD09DF8050028B306F074FAB7
:1018200005F084FD0021524A1268D167C2F8801089
:101830004F4800682C308165C16500204C4909681B
:101840002C31086648664A4A12682C329066D06687
:10185000002247480068B6300263426300214448D2
:101860000068B6308163C1630020414A12682C329F
:101870001067506700213E4800682C308167C167BF
:1018800000223B480068B630026442643848006871
:10189000B6308264C26409B000BD002034490968D2
:1018A00091F8AD10C1F3400189BB3149096891F845
:1018B000AD1001F0010151BB2D49096891F8AE103E
:1018C000C1F3001119BB2A49096891F8AD10C1F3A1
:1018D0008001E1B92649096891F8AD10C1F3C00152
:1018E000A9B92349096891F8AD100122B2EBD11FC3
:1018F0000DD01F49096891F8AE1001F0010131B90E
:101900001B49096891F8AE10C1F3400101B10020F4
:10191000704710B500241648006890F8AF0000F03A
:10192000010018B300BF06E022460021032005F0A5
:1019300034F9601CC4B203F0F7FDA042F4DC0024CB
:1019400006E022460021042005F027F9601CC4B2FD
:1019500003F030FEA042F4DC0548006890F8AF00C8
:1019600020F080010248006880F8AF1010BD000030
:10197000300000209801002010B5FFF784FEFFF72B
:10198000B5FEFFF73BFFFFF7C4FF10BDFFF7C0FB3D
:101990004FF4FA700DF0C4F900BFFFF793FCFFF7A6
:1019A000EBFFFFF764FE06F0E3F90AF067FD0AF0CB
:1019B000DEFD0EF06BFA0EF095FC0A200DF0B0F98A
:1019C000EBE710B50823034A0021AFF23F000EF009
:1019D00053F810BD204B0020FE48704710B54FF45F
:1019E000FF51FC4816F09DFFFEF776FCFA490860AF
:1019F00010BD70B503460020092B2ED2DFE803F09E
:101A00002D05060708090A0B0C0000BF00BF00BF28
:101A100000BF00BF00BF00BFC2EB8215EF4C04EB5C
:101A200045040D182D88A4F81150841CE0B2C2EBB7
:101A30008215EA4C04EB45040D182D88A4F81350C8
:101A4000841CE0B20D5CC2EB8216E44C04EB46044D
:101A500084F84A50441CE0B200E000BF00BF70BDF3
:101A60002DE9FC410020009001900024FFF715FFB4
:101A7000012806D0D848006890F8AF0000F00100B7
:101A800040B100200090019030208DF800008DF8CA
:101A900004003FE000243BE0CF480068D0F87480A9
:101AA000876F2246012500262846314616F046FE5D
:101AB00008EA000007EA010300225040534018439F
:101AC00006D09DF80000401CC0B28DF800001DE05B
:101AD000C348005D20B1012809D0022815D10DE0CE
:101AE0009DF80000401CC0B28DF800000DE09DF88C
:101AF0000100401CC0B28DF8010006E09DF8020014
:101B0000401CC0B28DF8020000BF00BF601CC4B210
:101B1000302CC1DBB0480068009940F8B11F9DF837
:101B200004100171BDE8FC812DE9FC5F0024002058
:101B30000090A948006890F8AF0000F0010018B1CB
:101B40000021A8480DF0D4F800246FE004EB440114
:101B5000A048303000EB4100407901283ED19E483A
:101B6000006890F8AF0000F00100E0B94EF6602187
:101B70009C480DF0BDF801284BD197480068D0F87B
:101B800074B0D0F878A022460125002628463146B8
:101B900016F0D4FD4BEA00024AEA01038E480068C1
:101BA0004267836735E08C480068D0F874A0D0F8AD
:101BB00078B0224601274FF000083846414616F01B
:101BC000BDFD0A46C1430AEA010A2BEA020B82481C
:101BD0000068C0F874A0C0F878B01AE07E480068C9
:101BE000D0F874A0D0F878B022464FF00109002058
:101BF00001904846019916F0A1FD0A46C1430AEA40
:101C0000010A2BEA020B74480068C0F874A0C0F8FF
:101C100078B0C4EB8411714810F811000121B1EBC8
:101C2000D01F01D101200090601CC4B2302C8DDB8C
:101C300069480068416F806F002251405040014365
:101C40000BD06548006890F8AE0020F0080108311C
:101C50006148006880F8AE1009E05F48006890F8BD
:101C6000AE0020F008015C48006880F8AE105A48C9
:101C70000099006890F8AE2061F38202564800682F
:101C800080F8AE20BDE8FC9F2DE9F04FB1B00446CE
:101C900000200590039004900290C4EB84114F48FB
:101CA00010F8110000F00100B0B14B480068D0F806
:101CB0002CB0D0F830A02246012500262846314617
:101CC00016F03CFD4BEA00024AEA010A424800686D
:101CD000C262C0F830A023E03F480068D0F82CA0D2
:101CE000D0F830B0224601274FF000083846414670
:101CF00016F024FD0A46C1430AEA010A2BEA020B48
:101D000035480068C0F82CA0C0F830B0C4EB84128D
:101D1000324901EB420101F111006D2116F0DFFDA6
:101D2000C4EB84112D4810F81100C0F34000B8B185
:101D300029480068D0F834B0D0F838A022464FF0D7
:101D40000109002006904846069916F0F7FC4BEA78
:101D500000024AEA010320480068426383631AE0F4
:101D60001D480068D0F834A0D0F838B022460121D0
:101D70000020CDE907010846079916F0DFFC0A4666
:101D8000C1430AEA010A2BEA020B13480068C0F8B3
:101D900034A0C0F838B0C4EB8411104810F811001A
:101DA000C0F38000A8B10C480068D0F854A0D0F867
:101DB00058B0224601210020CDE9090108460999C1
:101DC00016F0BCFC4AEA000A4BEA010B0248006824
:101DD0000AE00EE024530020480000207454002044
:101DE0000473002064000020C0F854A0C0F858B06C
:101DF00017E0FE480068D0F854A0D0F858B022464A
:101E000001210020CDE90B0108460B9916F096FC44
:101E10002AEA00002BEA010BF44909684865C1F879
:101E200058B0C4EB8411F24810F81100C0F3C000A0
:101E3000C8B1EE480068D0F82EA1D0F832B12246E1
:101E400001210020CDE90D0108460D9916F076FC20
:101E50004AEA000A4BEA010BE4480068C0F82EA1E8
:101E6000C0F832B11AE0E1480068D0F82EA1D0F8ED
:101E700032B1224601210020CDE90F0108460F9919
:101E800016F05CFC0A46C1430AEA010A2BEA020B7F
:101E9000D6480068C0F82EA1C0F832B1C4EB841156
:101EA000D34810F81100C0F30010C8B1CF48006843
:101EB000D0F80EA1D0F812B1224601210020CDE9C0
:101EC00011010846119916F039FC4AEA000A4BEA5A
:101ED000010BC6480068C0F80EA1C0F812B11AE0A4
:101EE000C2480068D0F80EA1D0F812B122460121F4
:101EF0000020CDE913010846139916F01FFC0A468D
:101F0000C1430AEA010A2BEA020BB8480068C0F88C
:101F10000EA1C0F812B1C4EB8411B54810F811003D
:101F2000C0F38010C8B1B1480068D0F81EA1D0F845
:101F300022B1224601210020CDE91501084615995C
:101F400016F0FCFB4AEA000A4BEA010BA7480068BE
:101F5000C0F81EA1C0F822B11AE0A4480068D0F869
:101F60001EA1D0F822B1224601210020CDE917019F
:101F70000846179916F0E2FB0A46C1430AEA010A2D
:101F80002BEA020B99480068C0F81EA1C0F822B1E4
:101F9000C4EB8411964810F811000121B1EBD01F59
:101FA00018D192480068D0F826A1D0F82AB122466C
:101FB0000020CDE919010846199916F0BFFB4AEA3D
:101FC000000A4BEA010B89480068C0F826A1C0F856
:101FD0002AB118E085480068D0F826A1D0F82AB1C7
:101FE000224601210020CDE91B0108461B9916F06D
:101FF000A5FB2AEA00002BEA010B7C490968C1F81D
:102000002601C1F82AB1C4EB8411794800EB4100E4
:10201000407800F00100C8B174480068D0F85CA0B6
:10202000D0F860B0224601210020CDE91D0108460C
:102030001D9916F083FB4AEA000A4BEA010B6B4834
:102040000068C0F85CA0C0F860B01AE0674800689B
:10205000D0F85CA0D0F860B0224601210020CDE984
:102060001F0108461F9916F069FB0A46C1430AEA98
:10207000010A2BEA020B5D480068C0F85CA0C0F8BA
:1020800060B0C4EB84115A4800EB41004078C0F3C3
:102090004000C8B155480068D0F83CA0D0F840B026
:1020A000224601210020CDE921010846219916F0A0
:1020B00045FB4AEA000A4BEA010B4C480068C0F8AD
:1020C0003CA0C0F840B01AE048480068D0F83CA0F6
:1020D000D0F840B0224601210020CDE92301084676
:1020E000239916F02BFB0A46C1430AEA010A2BEAA0
:1020F000020B3E480068C0F83CA0C0F840B0C4EBFA
:1021000084113B4800EB41004078C0F30010C0B19F
:1021100036480068D0F864B0D0F868A022460121A3
:102120000020CDE925010846259916F007FB4BEA6A
:1021300000024AEA010A2D4800684266C0F868A019
:1021400017E02A480068D0F864A0D0F868B02246AA
:1021500001210020CDE927010846279916F0EEFA63
:102160002AEA00002BEA010B204909684866C1F8F9
:1021700068B0C4EB84111E4800EB41004078C0F306
:102180004010C0B119480068D0F844B0D0F848A059
:10219000224601210020CDE929010846299916F09F
:1021A000CDFA4BEA00024AEA010A1048006842648C
:1021B000C0F848A017E00D480068D0F844A0D0F857
:1021C00048B0224601210020CDE92B0108462B9979
:1021D00016F0B4FA2AEA00002BEA010B0349096859
:1021E0004864C1F848B0C4EB841103E04800002003
:1021F00074540020FE4800EB41004078C0F380108A
:10220000C0B1FC480068D0F84CB0D0F850A02246CD
:1022100001210020CDE92D0108462D9916F08EFAF6
:102220004BEA00024AEA010AF2480068C264C0F8B8
:1022300050A017E0EF480068D0F84CA0D0F850B09C
:10224000224601210020CDE92F0108462F9916F0E2
:1022500075FA2AEA00002BEA010BE6490968C8640E
:10226000C1F850B0C4EB8411E14800EB4100407864
:102270000121B1EBD01F1AD103AA02A9FE2001F05F
:1022800037FF0120234603AA00909DF808100DF0A7
:102290002CFCD848006890F8AE0020F020012031D6
:1022A000D448006880F8AE100020D349087031B0DF
:1022B000BDE8F08F2DE9FE4F0E4614460025C4EB15
:1022C0008411CB4810F81100C00900287ED1C4EB5E
:1022D0008411C74800EB4100711909880180A81CCE
:1022E000C5B2C4EB8411C24810F8110000F001001F
:1022F00050B1705DC1490855681CC5B27119BF4A1B
:10230000105D2246FFF775FBBA480068D0F89CB014
:10231000D0F8A0A0224601274FF0000838464146D9
:1023200016F00CFA0BEA00000AEA010100235840FB
:102330005940084350D0C4EB8411AD4800EB410034
:102340004078C0F3800038B9C4EB8411A84810F875
:10235000110000F00100D0BBA6480068D0F89CA096
:10236000D0F8A0B022464FF0010900200090484666
:10237000009916F0E3F90A46C1430AEA010A2BEA7A
:10238000020B9C480068C0F89CA0C0F8A0B0C4EB49
:102390008411974800EB41004078C0F3C000B0B111
:1023A00094480068D0F8A4A0D0F8A8B02246012133
:1023B0000020CDE901010846019916F0BFF94AEA6B
:1023C000000A4BEA010B8B48006801E007E003E0DC
:1023D000C0F8A4A0C0F8A8B02046FFF755FCBDE89F
:1023E000FE8F0021002000BF17E0C1EB8113804A5F
:1023F00002EB430292F85020C2F380024AB9C1EBCB
:1024000081137B4A02EB430292F85020C2F3801200
:102410000AB1012003E04A1CD1B23029E5DB00BF3C
:10242000704710B5002473480068416B806B002230
:1024300051405040014326D16E480068416D806D87
:1024400000235940584001431DD16A480068C16EBD
:10245000006F51405040014315D166480068B630C6
:10246000016D406D5140504001430CD161480068FE
:10247000B6308168C06859405840014303D1FFF726
:10248000B0FF012800D10124204610BD2DE9F74FEF
:10249000AEB00E4614460025002021900120209069
:1024A00000201E901F9040210EA816F03AFA4FF01F
:1024B000FF3900200D9000274FF06048705D21909B
:1024C0006D1C6D1C219808287FD2DFE800F07E0487
:1024D0001B29374E5C6A04EB8400494901EBC000BC
:1024E00071190988A0F80110A81CC5B204EB84007A
:1024F000434901EBC00071190968C0F80310281D99
:10250000C5B262E004EB84003D4901EBC000C01C91
:1025100071190A68426089880181A81DC5B254E01A
:1025200004EB8400364901EBC00071190A6840F8D9
:102530000D2F89888180A81DC5B246E004EB840078
:102540002F4901EBC00071190988A0F81310A81CCD
:10255000C5B204EB84002A4901EBC0007119096877
:10256000C0F81510281DC5B22FE004EB84002449E3
:1025700001EBC000153071190A6842608988018139
:10258000A81DC5B221E004EB84001D4901EBC00089
:1025900071190A680B30426189880183A81DC5B290
:1025A00013E0705D17490870681CC5B22E980528A5
:1025B0000AD1154800EB4400711909880180A81C54
:1025C000C5B201201149085500BF00BF1048015D88
:1025D0002198401E012282401143C8B20C4908557F
:1025E0000846005D7F2875D10020085512E00000E4
:1025F00074540020480000203400002024530020A0
:102600006473002068000020447B0020A47B00202D
:102610003473002004EB8400FE4A02EBC000411C2E
:1026200012220DF13A0016F0DBF804EB8401F94AAE
:1026300002EBC101481C282116F051F92F2212A9E2
:10264000684616F012F90EA80FC802F071FF814615
:1026500009F1010018B904208DF878000AE1FFF7AC
:10266000E0FE012803D102208DF8780002E1EA485B
:102670000078012802D0022857D152E01FFA89F1D0
:10268000032004F0ADF8401C90B901208DF87800CB
:10269000224601210020CDE922010846229916F0A8
:1026A0004DF8DE4B0CCB10431943DC4A03C237E034
:1026B0001FFA89F1032004F076F90D901FFA89F1D1
:1026C000032004F08DF80D99884204DC02208DF877
:1026D000780025E0DEE001208DF87800D04830F861
:1026E0001400D04931F81410884202D1CE48005D60
:1026F000B0B9CC4830F81400C94921F814000D983D
:10270000401C80B20D904FF6FF710D98884201D1A8
:1027100001200D901FFA89F203200D9903F09FFF0D
:1027200003E001208DF8780000BF00BF9DF878001D
:1027300001287DD1B8480078012802D002281CD198
:102740000DE0BA4800682C30016F406FB94320EAB1
:102750000800B64A12682C32116750670DE0B34882
:1027600001682C31086F496F384341EA0801AF4ACC
:1027700012682C321067516700BF00BFAB48006879
:10278000D0F89CA0D0F8A0B0224601210020CDE9CD
:102790002C0108462C9915F0D1FF4AEA000A4BEAB1
:1027A000010BA2480068C0F89CA0C0F8A0B09F48E8
:1027B0000068D0F8A4A0D0F8A8B0224601210020DB
:1027C000CDE92A0108462A9915F0B8FF0A46C14307
:1027D0000AEA010A2BEA020B94480068C0F8A4A098
:1027E000C0F8A8B0224601210020CDE92801084602
:1027F000289915F0A3FF0A46C143D0438C4AD2E979
:102800000032194010408A4AC2E900108748006827
:10281000D0F8F6A0D0F8FAB0224601210020CDE988
:1028200026010846269915F089FF2AEA000000E0F3
:1028300020E02BEA010B7D490968C1F8F600C1F8D8
:10284000FAB07A480068D0F8FEA0D0F802B122466B
:1028500001210020CDE924010846249915F06EFFDE
:102860002AEA00002BEA010B70490968C1F8FE0052
:10287000C1F802B10020684908706A4921F81400C3
:1028800069490855022023461EAA0090012020997C
:102890000DF02BF931B0BDE8F08F2DE9F74F88B07E
:1028A0000E4614460025002000900898012870D09C
:1028B000705D00909DF8000000F0010060B1C4EB75
:1028C00084115C4810F8110020F00100401CC4EB9A
:1028D0008412584901F812009DF80000C0F340002E
:1028E000E8B352480068D0F87CA0D0F880B0224607
:1028F00001274FF000083846414615F01FFF0A46F1
:10290000C1430AEA010A2BEA020B48480068C0F8F2
:102910007CA0C0F880B045480068D0F88CA0D0F802
:1029200090B02246B946002003904846039915F01E
:1029300005FF0A46C1430AEA010A2BEA020B3B489B
:102940000068C0F88CA0C0F890B038480068D0F893
:10295000E6A0D0F8EAB022460121002000E00FE016
:10296000CDE901010846019915F0E8FE2AEA0000C8
:102970002BEA010B2D490968C1F8E600C1F8EAB05D
:102980009DF80000C0F3800020B100202A490855BE
:1029900015E0A9E09DF80000C0F3C00018B10120C7
:1029A000254908550BE09DF80000C0F3001018B150
:1029B00002202149085502E000201F490855681CE3
:1029C000C5B2C4EB84111B4810F8110000F00100DF
:1029D000F8B1715DC4EB8412164800EB42008172BD
:1029E000681CC5B2C4EB8411124800EB4100711998
:1029F0000988A0F80B10A81CC5B2C4EB84110D48BF
:102A000000EB410071190988A0F80D10A81CC5B28F
:102A10001FE013E0647300206800002050000020D5
:102A2000E47A0020447B0020A47B002048000020A2
:102A3000A00100207454002004730020C4EB841112
:102A4000FC4800EB41000021C0F80A108173681DAA
:102A5000C5B203F06CF9C4EB8412F64901EB4201F4
:102A6000B1F80D10884219DCF3480068D0F86CA06A
:102A7000D0F870B0224601210020CDE904010846BB
:102A8000049915F05BFE4AEA000A4BEA010BEA489A
:102A90000068C0F86CA0C0F870B01AE0E6480068A2
:102AA000D0F86CA0D0F870B0224601210020CDE90A
:102AB00006010846069915F041FE0A46C1430AEA96
:102AC000010A2BEA020BDC480068C0F86CA0C0F8D1
:102AD00070B0C4EB8411D74800EB4100711909882C
:102AE000A0F80F10A81CC5B20BB0BDE8F08F2DE9FF
:102AF000F04106460F4615460024A046C5EB851159
:102B0000CC4810F8110020F00100401CC5EB8512E4
:102B1000C84901F81200152F74D2DFE807F0730BD3
:102B20003F6A6B6C6D6E6F898A8BA5C7F0EEEDEC1A
:102B3000EBEAE900C5EB8511BE4800EB4100311915
:102B40000988A0F81110A01CC4B2C5EB8511B948C2
:102B500000EB410031190988A0F81310A01CC4B281
:102B6000315DC5EB8512B34800EB420080F84A1096
:102B7000601CC4B2315DC5EB8512AE4800EB42006B
:102B800080F86010601CC4B2C5EB8511A94800EB49
:102B9000410090F86000A94948557AE1C5EB8511DC
:102BA000A44800EB410031190988A0F85010A01C7E
:102BB000C4B2315DC5EB85129E4800EB420080F83F
:102BC0005210601CC4B2315DC5EB8512994800EB10
:102BD000420080F83910601CC4B2C5EB85119548DD
:102BE00000EB410031190988A0F84B10A01CC4B2B9
:102BF0004FE100BF00BF00BF00BF00BF082F02D0E1
:102C0000062001E044E102208046C5EB8513894A95
:102C100002EB43021932FB1E03EB430302EB4300BA
:102C20003119424615F0DCFD04EB0800C4B230E176
:102C300000BF00BF0B2F01D0062000E0042080461B
:102C4000C5EB85137B4A02EB43023A32A7F1090335
:102C500003EB430302EB43003119424615F0C0FD7C
:102C600004EB0800C4B214E1C5EB8511714800EB18
:102C7000410031190988A0F85810A01CC4B2C5EB56
:102C800085116C4800EB410031190988A0F85A10F1
:102C9000A01CC4B2C5EB8511664800EB4100311998
:102CA0000988A0F85C10A01CC4B2F2E0C5EB851145
:102CB000604800EB410031190988A0F81710A01CEA
:102CC000C4B2C5EB85115B4800EB4100311909889E
:102CD000A0F81510A01CC4B2C5EB8511554800EB37
:102CE000410031190988A0F86510A01CC4B2D0E0D9
:102CF000C2E0B3E0A4E08EE06EE042E0FFE7305DCA
:102D000041B2C5EB85124B4800EB420080F85410ED
:102D1000601CC4B2305D41B2C5EB8512454800EB82
:102D2000420080F85510601CC4B2305D41B2C5EB62
:102D30008512404800EB420080F85610601CC4B277
:102D4000305D41B2C5EB85123A4800EB420080F895
:102D50005710601CC4B2305D41B2C5EB85123548D6
:102D600000EB420080F85E10601CC4B2315DC5EB20
:102D70008512304800EB420080F84F10601CC4B24E
:102D800087E0C5EB85112B4800EB4100311909881C
:102D9000A0F86110A01CC4B2C5EB8511254800EB5A
:102DA000410031190988A0F86310A01CC4B2315D3C
:102DB000C5EB85121F4800EB420080F85F10601CD5
:102DC000C4B2315DC5EB85121A4800EB420080F8B1
:102DD0006710601CC4B25CE0315DC5EB851215481C
:102DE00000EB420080F84D10601CC4B2315DC5EBB1
:102DF0008512104800EB420080F84E10601CC4B2EF
:102E0000315DC5EB85120B4800EB420080F8531092
:102E1000601CC4B23DE0C5EB8511064800EB4100E3
:102E200031190A6882668988A0F86C10A01DC4B2A6
:102E30002FE000007454002048000020245300209C
:102E4000C5EB8511FE4800EB410031190A6840F8D6
:102E50006E2F89888180A01DC4B21AE0C5EB851150
:102E6000F74800EB4100683031190A68C260898870
:102E70000182A01DC4B20CE0C5EB8511F04800EB47
:102E8000410031190968C0F87A10A01DC4B200E0F1
:102E900000BF00BFBDE8F0812DE9F04104460E46B9
:102EA00017461D46092C13D2DFE804F01205060769
:102EB00008090A0B0C0000BF00BF00BF00BF00BF25
:102EC00000BF00BF2A4639463046FFF710FE0AE031
:102ED000C5EB8512DA4901EB420101F111006D21C8
:102EE00015F0FDFC00BF00BFBDE8F0812DE9F04109
:102EF00080460D461646002700242F5D641C641C86
:102F00002919D04A905D33463A46FFF7C5FFBDE820
:102F1000F0817CB506460C46002500200190CAA031
:102F20000068009001A930460BF0B1FF0546C4EBE4
:102F30008412C34901EB4201881D3022042115F09F
:102F4000C6FCC4EB8412BE4901EB4201891DC5F1E8
:102F5000040288182A4601A915F042FCC4EB84112A
:102F6000B74800EB41000099C0F802107CBD2DE984
:102F7000F04107468846002400BF14E004EB4401FA
:102F8000B048303000EB41004079012809D1224699
:102F9000012500262846314615F0D0FB074341EABB
:102FA0000808601CC4B2302CE8DB38464146BDE856
:102FB000F0812DE9F04F85B080460F46164600207F
:102FC0000290019000250024009081467C5D6D1CDC
:102FD0009E480078844215D09C48047000219C4A89
:102FE000116051609B4A1160516000BF07E0494683
:102FF000002001F031FD09F1010000F0FF09B9F1F5
:10300000300FF4DB781900880190A81CC5B2A8EB3A
:103010000500002878DD785D012804D0022865D0FD
:10302000042864D100E000BF32464FF0010A0020BE
:1030300003905046039915F081FB854B0CCB104350
:103040001943834A03C2824903C9FFF790FF804AAC
:1030500003C2012C22DB02F067FA401CA0421DDDF6
:10306000601E81B2032003F088FD012812D1784848
:10307000D0E900104FF6FF72504070EA01010DD107
:103080000020734A10605060601E82B2032003F07B
:1030900065FD03E000216E4A11605160802C24DB45
:1030A00002F088FA8030A0421FDDA4F1800081B2D6
:1030B000042003F062FD012813D16548D0E9001017
:1030C0004FF6FF73584070EA01010ED10020604AAC
:1030D00010605060A4F1800082B2042003F03EFD35
:1030E00003E000215A4A1160516000E000BF00BFB8
:1030F000681CC5B2A8EB0500002862DD785D0128D8
:1031000003D002285CD15AE06BE032464FF0010B4D
:10311000002004905846049915F010FB4D4B0CCB41
:10312000104319434B4A03C2012C21DB02F0FCF986
:10313000401CA0421CDD601E81B2032003F03CFD58
:10314000012811D14348D0E900104FF6FF725040DA
:1031500070EA01010CD13F4A11605160601E82B2D9
:10316000032003F01AFD03E000203A4A106050608B
:10317000802C23DB02F01EFA8030A0421EDDA4F179
:10318000800081B2042003F017FD012812D13149DB
:1031900003C94FF6FF72514071EA00000ED12D4A6B
:1031A00010605060A4F1800082B20021042003F07E
:1031B000F4FC03E00020274A1060506000E000BFEC
:1031C00000BF681CC5B2A8EB0500002809DD78190E
:1031D00000880090A81CC5B23146BDF8000001F07F
:1031E0003BFC24B93146BDF80400FFF792FE1A48B3
:1031F0000078A04204D1BDF80400184921F8160057
:10320000304601F01CFC0290BDF804100298884280
:1032100004D03146BDF8040001F018FC802C02DB1C
:10322000A4F15C00C4B2BDF8041004EB44020C48E5
:10323000006800F2CF1000EB421000EB460011E0F6
:1032400074540020245300203032303069000020B4
:103250007000002078000020DE00002048B400202C
:1032600048000020018005B0BDE8F08F2DE9F04155
:10327000044604EB840000EB4410F849085C00F0BD
:103280000100B0B1F6480068D0F8B680D0F8BA7046
:103290002246012500262846314615F04FFA48EA15
:1032A000000247EA0103EE4800688A30C262036305
:1032B00017E0EB480068D0F8B670D0F8BA80224624
:1032C000012500262846314615F038FA0A46C14342
:1032D0000F4028EA0208E2480068C0F8B670C0F85B
:1032E000BA8004EB840000EB4410DC49085CC0F3B6
:1032F0004000B0B1DA480068D0F8BE80D0F8C270A3
:103300002246012500262846314615F017FA48EADC
:10331000000247EA0103D2480068B6308260C36009
:1033200016E0CF480068D0F8BE70D0F8C2802246C0
:10333000012500262846314615F000FA27EA00004C
:1033400028EA0108C6490968C1F8BE00C1F8C28070
:1033500004EB840000EB4410C049085CC0F380001B
:10336000B0B1BF480068D0F8C680D0F8CA70224615
:10337000012500262846314615F0E0F948EA00020A
:1033800047EA0103B6480068B6300261436115E0C0
:10339000B3480068D0F8C670D0F8CA80224601252C
:1033A00000262846314615F0C9F927EA000028EA28
:1033B0000102AB490968B63108614A6104EB840037
:1033C00000EB4410A549085CC0F3C000B0B1A448AC
:1033D0000068D0F8CE80D0F8D270224601250026B1
:1033E0002846314615F0AAF948EA000247EA0103E7
:1033F0009B480068B6308261C36117E09848006856
:10340000D0F8CE70D0F8D28022460125002628467A
:10341000314615F093F90A46C1430F4028EA0208E5
:103420008F480068C0F8CE70C0F8D28004EB8400EA
:1034300000EB44108949085CC0F30010B0B1884823
:103440000068D0F8D680D0F8DA7022460125002630
:103450002846314615F072F948EA000247EA0103AE
:103460007F480068B6300262436214E07C4800681E
:10347000D0F8D680D0F8DA702246012500262846FA
:10348000314615F05BF928EA00008F43744909685A
:10349000B63108624F6204EB840000EB44106F49C0
:1034A000085CC0F34010B0B16D480068D0F8DE8011
:1034B000D0F8E2702246012500262846314615F054
:1034C0003DF948EA000347EA010265480068B63062
:1034D0008362C26216E062480068D0F8DE70D0F8FD
:1034E000E2802246012500262846314615F026F9BD
:1034F00027EA000028EA010859490968C1F8DE00F6
:10350000C1F8E28004EB840000EB44105349085CEE
:10351000C0F38010B0B152480068D0F80681D0F8EE
:103520000A712246012500262846314615F006F983
:1035300048EA000247EA010349480068B6300265DC
:10354000436515E046480068D0F80671D0F80A8156
:103550002246012500262846314615F0EFF827EAD5
:10356000000028EA01023E490968B63108654A654B
:103570003B480068D0F8F680D0F8FA702246012562
:1035800000262846314615F0D9F808EA000207EA75
:10359000010000235A405840024347D004EB840006
:1035A00000EB44102D4908444078C0F3801038B92E
:1035B00004EB840000EB4410085C00F00100A8BBA1
:1035C00027480068D0F8F670D0F8FA802246012526
:1035D00000262846314615F0B1F827EA000028EA0F
:1035E00001081F490968C1F8F600C1F8FA8004EB28
:1035F000840000EB44101949084440780121B1EBE4
:10360000D01F13D116480068D0F8FE80D0F80271A0
:1036100022462846314615F091F848EA000347EA69
:1036200001020F480068B6308364C264BDE8F081CF
:103630002DE9F04107460D461446002604EB8400B0
:1036400000EB441005490844A9190988018000BF0E
:103650002046FFF70BFEBDE8F0810000146C00204F
:10366000480000202DE9F74FAEB00E461446002565
:10367000002021900120209000201E901F904021CA
:103680000EA815F04EF94FF0FF3900200D900027DD
:103690004FF06048705D21906D1C6D1C21980828CA
:1036A0007FD2DFE800F07E041B29374E5C6A04EB12
:1036B0008400FB4901EBC00071190988A0F80110D2
:1036C000A81CC5B204EB8400F54901EBC0007119D8
:1036D0000968C0F80310281DC5B262E004EB84003D
:1036E000EF4901EBC000C01C71190A68426089886B
:1036F0000181A81DC5B254E004EB8400E84901EB48
:10370000C00071190A6840F80D2F89888180A81DB2
:10371000C5B246E004EB8400E14901EBC000711939
:103720000988A0F81310A81CC5B204EB8400DC497A
:1037300001EBC00071190968C0F81510281DC5B249
:103740002FE004EB8400D64901EBC000153071195D
:103750000A68426089880181A81DC5B221E004EB96
:103760008400CF4901EBC00071190A680B30426137
:1037700089880183A81DC5B213E0705DC94908702E
:10378000681CC5B22E9805280AD1C74800EB440032
:10379000711909880180A81CC5B20120C3490855C8
:1037A00000BF00BFC248015D2198401E0122824037
:1037B0001143C8B2BE4908550846005D7F287CD138
:1037C0000020085504EB8400B54A02EBC000411C00
:1037D00012220DF13A0015F003F804EB8401B04A0F
:1037E00002EBC101481C282115F079F82F2212A9FB
:1037F000684615F03AF80EA80FC802F0DBF88146CB
:1038000009F1010018B902208DF8780008E1FEF7EF
:1038100008FE012803D104208DF8780000E1A148BA
:103820000078012802D0022853D14EE01FFA89F116
:10383000042002F0D5FF401C98B901208DF87800D3
:10384000224601210020CDE922010846229914F0E8
:1038500075FF984AD2E9003218431143954A03C2D2
:1038600032E01FFA89F1042003F09DF80D901FFA51
:1038700089F1042002F0B4FF0D99884203DC022094
:103880008DF8780020E001208DF878008A4830F823
:103890001400854931F81410884202D18348005D34
:1038A00090B90D98401C80B20D904FF6FF710D98A5
:1038B000884201D101200D9000E0C1E01FFA89F299
:1038C00004200D9902F0CBFE03E001208DF8780072
:1038D00000BF00BF9DF87800012897D1714800789B
:1038E000012802D0022820D10FE07448006800F1BE
:1038F000B601D0F8F600496CB84321EA08026F49D6
:103900000968B63108644A640FE06C48006800F149
:10391000B601D0F8F600496C384341EA080267491D
:103920000968B63108644A6400BF00BF6348006894
:10393000D0F8F6B0D0F8FAA0224601210020CDE957
:103940002C0108462C9914F0F9FE4BEA00024AEAD1
:10395000010A5A480068C0F8F620C0F8FAA0574893
:103960000068D0F8FEA0D0F802B122460121002064
:10397000CDE92A0108462A9914F0E0FE2AEA00005F
:103980002BEA010B4D490968C1F8FE00C1F802B1EC
:10399000224601210020CDE928010846289914F08B
:1039A000CDFE0A46C143D043454AD2E90032194010
:1039B0001040434AC2E9001040480068D0F89CA07B
:1039C000D0F8A0B0224601210020CDE9260108460A
:1039D000269914F0B3FE0A46C1430AEA010A2BEA0B
:1039E000020B36480068C0F89CA0C0F8A0B033486D
:1039F0000068D0F8A4A0D0F8A8B022460121002089
:103A0000CDE924010846249914F098FE2AEA000022
:103A10002BEA010B29490968C1F8A400C1F8A8B034
:103A2000002020490870204921F814001F4908553A
:103A3000052023461EAA0090012020990CF055F87D
:103A400031B0BDE8F08FF0B50546002000230B5CD7
:103A5000401C401C012B02D0022B1ED10EE002EBB9
:103A6000820404EB4214174E34440E183768C4F82D
:103A70001A70B688E683841DE0B20EE002EB820481
:103A800004EB42140F4E34440E183768276236791F
:103A900084F82460441DE0B200BF00BFF0BD000008
:103AA000047C002080000020E48300204484002067
:103AB000D47B002058000020848300204800002090
:103AC000A0010020146C00202DE9FE4F0E46144684
:103AD00000250027AA464FF0010BFB4903C9CDE999
:103AE0000101775D6D1C6D1C062F3BD2DFE807F0EE
:103AF0003A03121E1F2004EB840000EB4410F3492C
:103B0000084471190A68C0F802208988C180A81D7C
:103B1000C5B227E004EB840000EB4410EB490844F5
:103B2000711909880181A81CC5B21BE000BF00BF44
:103B3000052F01D1042000E00620824604EB840218
:103B400002EB4412E14B1A440A32FB1E03EB43031F
:103B500002EB43007119524614F042FE05EB0A00D5
:103B6000C5B200BF00BFDA48005D791E01228A405D
:103B70001043D74908550846005D1F2818D100207A
:103B80000855A020234601AA5946009001200BF0B9
:103B9000ACFF22464FF001084FF00009404649466D
:103BA00014F0CCFDCB4B0CCB10431943C94A03C2D4
:103BB000BDE8FE8F2DE9F74FAAB00E46144600254A
:103BC000AA4601202690002024902590814640217D
:103BD00014A814F0A6FE6F1EA8460020139016F835
:103BE00005A06D1C6D1CBAF1080F1BD2DFE80AF0AE
:103BF00095041B29374E5C6A04EB8400B64901EB3F
:103C0000C00071190988A0F80110A81CC5B204EB06
:103C10008400B14901EBC00071190968C0F80310B4
:103C2000281DC5B279E004EB8400AB4901EBC0006C
:103C3000C01C71190A68426089880181A81DC5B23B
:103C40006BE004EB8400A44901EBC00071190A6821
:103C500040F80D2F89888180A81DC5B25DE004EB76
:103C600084009D4901EBC00071190988A0F8131068
:103C7000A81CC5B204EB8400974901EBC000711980
:103C80000968C0F81510281DC5B246E004EB840091
:103C9000914901EBC000153071190A6842608988AA
:103CA0000181A81DC5B238E004EB84008A4901EB0C
:103CB000C00071190A680B30426189880183A81D10
:103CC000C5B22AE0705D04EB8401834A02F831003A
:103CD000681CC5B204EB8400114601EBC0007119E9
:103CE0000988A0F82510A81CC5B2705D04EB8401FA
:103CF00002EBC10181F82700681CC5B22A98082888
:103D00000AD1764800EB4400711909880180A81C8B
:103D1000C5B201207249085500BF00BF7148005D5F
:103D2000AAF1010101228A4010436E490855084654
:103D3000005D7F2873D10020085504EB8400664A9B
:103D400002EBC000411C12220DF1520014F048FD9C
:103D500004EB8400604901EBC000C07841280BD11E
:103D60004FF003092F2218A9684614F07EFD14A80D
:103D70000FC801F0DDFB074604EB8400564901EB58
:103D8000C000C07843280BD14FF004092F2218A996
:103D9000684614F06AFD14A80FC801F00BFE074630
:103DA000B9B2484602F01CFD401CF0B10120A04011
:103DB000C1174D4B0CCB10401940002358405940BF
:103DC000084302D0B9F1030F0FD00120A040C11762
:103DD000464AD2E900321840114000235840594069
:103DE00008434BD0B9F1040F48D1781CF0B304EB71
:103DF0008400394901EBC00090F8270001283DD12B
:103E0000032004EB8401344A02EBC10181F827004E
:103E1000B9F1030F04D0B9F1040F2ED114E0DBE0A7
:103E200022464FF0010B002027905846279914F0A6
:103E300085FC2D4BD3E9002C134623EA00002CEA25
:103E40000101294A03C218E0224601210020CDE9E0
:103E500028010846289914F071FC0A46C143D04352
:103E6000224BD3E9002C1346194000E006E000EA9B
:103E70000C001E4AC2E9001000BF00BF1C4830F809
:103E80001400164931F81410884202D11448005D1C
:103E900080BB04EB8400104A02EBC00000F10C016F
:103EA0001C226846079414F0E0FC04EB84000A4AE4
:103EB00002EBC001282209A814F0D7FC484609A942
:103EC0000EC90AF05EFB19E078990508146C002011
:103ED0007484002090000020D4840020B48C002042
:103EE000148D0020A48400205000002058000020E1
:103EF000548C0020FFE701204849087004EB84003F
:103F0000474901EBC00090F82700012804D002289F
:103F100003D0032840D13EE03EE0781C28B341485E
:103F200030F81400404931F81410884202D13F485B
:103F3000005DD0B904EB8400394911F83000FF2846
:103F400014D1B9B2484602F05CFE804608F1010087
:103F50001FFA80F84FF6FF70804501D14FF001083D
:103F6000BAB24146484602F037FE13E0B9B24846BD
:103F700002F06DFE804608F101001FFA80F84FF64E
:103F8000FF70804501D14FF00108BAB24146484662
:103F900002F04AFE00E000BF00BF234830F81400E2
:103FA000204921F8140004EB84011D4A02EBC100F2
:103FB000282114F0B6FC00201B4921F814001B49ED
:103FC00008559DF84C0038B90620234624AA0090D5
:103FD000012026990BF089FD2DB0BDE8F08FFDF78B
:103FE000FDFC4FF4FA600AF09BFE00BF0AF026FACF
:103FF000FDF79AFDFDF734FD0BF048FF0CF072F968
:104000000A200AF08DFEF1E710B50423084A0021CA
:10401000AFF235000BF030FD10BD00006000002055
:10402000D4840020548C0020B48C0020148D0020F7
:104030002053002010B5FCF74FF9FD49086000F04F
:10404000F5FCFC49086000F0F3FC10BD2DE9FC5FB5
:10405000044600200090F6480068D0F87CB0D0F804
:1040600080A02246012500262846314614F066FB32
:104070000BEA00000AEA01034FF0000C80EA0C0092
:1040800083EA0C03184330D1E9480068D0F88CB0BB
:10409000D0F890A0224601274FF00008384641464C
:1040A00014F04CFB0BEA00020AEA010300214A402B
:1040B0004B401A4319D1DE480068D0F8E6B0D0F87A
:1040C000EAA022464FF001090020019048460199DC
:1040D00014F034FB0BEA00020AEA010300214A4013
:1040E0004B401A4301D1012000900098BDE8FC9F8D
:1040F0002DE9FE4306460F461546002401F09BFDC0
:10410000804601F094FE029001F011FE0190002023
:104110000090C7480068B0F8AD004DF28F310840FC
:1041200000902819BDF800100180A41C05F8048037
:10413000641C2819BDF808100180A41C2819BDF8BA
:1041400004100180A41C2E55641C3C70BDE8FE8345
:104150002DE9F04F93B00020049002900390B648F0
:104160000078FFF773FF01280ED102AA04A90020EE
:10417000FFF7BEFF01200090AF48037802AA9DF828
:10418000101001200BF0B1FCAB48007800EB4001AF
:10419000AA4800EB41000079401CC1B2A648007853
:1041A00000EB4002A54800EB42000171A2490978EA
:1041B00001EB4102A14901EB420042F210710AF009
:1041C00097FD01287ED19C48007800EB40019B4878
:1041D00000EB410000790A2874DB0A219648007838
:1041E00000EB4002954800EB42000171012192482A
:1041F000007800EB4002914800EB420041718C488E
:104200000068D0F87CB0D0F880A08B4802780124F8
:1042100000252046294614F091FA2BEA00002AEAEC
:104220000101834A1268D067C2F880108048006894
:10423000D0F884B0D0F888A07F4802780126002703
:104240003046394614F07AFAC343CA430BEA0301F5
:104250000AEA0200764A12682C329165D0657448E9
:104260000068D0F88CB0D0F890A073480278A046CF
:104270004FF000094046494614F060FA2BEA00006E
:104280002AEA01016A4A12682C32106651666848AF
:104290000068D0F894A0D0F898B06748027801215F
:1042A0000020CDE911010846119914F047FA0A4699
:1042B000C1430AEA010A2BEA020B5D480068C0F814
:1042C00094A000E0A5E0C0F898B059480068D0F884
:1042D000E6A0D0F8EAB05848027801210020CDE9E4
:1042E0000F0108460F9914F029FA2AEA00002BEA78
:1042F000010B4F490968C1F8E600C1F8EAB04C4823
:104300000068D0F8EEA0D0F8F2B04B480278012156
:104310000020CDE90D0108460D9914F00FFA0A4668
:10432000C1430AEA010A2BEA020B41480068C0F8BF
:10433000EEA0C0F8F2B03E480068D0F89CA0D0F8DB
:10434000A0B03D48027801210020CDE90B010846CC
:104350000B9914F0F3F90A46C1430AEA010A2BEA61
:10436000020B33480068C0F89CA0C0F8A0B03048E9
:104370000068D0F8A4A0D0F8A8B02F480278012196
:104380000020CDE909010846099914F0D7F90A4639
:10439000C1430AEA010A2BEA020B25480068C0F86B
:1043A000A4A0C0F8A8B022480068D0F8F6A0D0F8C1
:1043B000FAB02148027801210020CDE90701084622
:1043C000079914F0BBF92AEA00002BEA010B1849FF
:1043D0000968C1F8F600C1F8FAB015480068D0F8CD
:1043E000FEA0D0F802B11448027801210020CDE9E6
:1043F00005010846059914F0A1F9C243C8430AEA29
:1044000002010BEA000B0A480068C0F8FE10C0F871
:1044100002B109480078401C074908700846007836
:10442000302801D10020087013B0BDE8F08F0000E3
:10443000880000208C0000209800002054530020A9
:1044400070B505460E460024FDF7EBFF012803D1A9
:10445000285D40F001002855601CC4B201F094FDB5
:104460002855601CC4B202F02CFC2855601CC4B254
:1044700002F0A2FC2855601CC4B202F01CFD2855B5
:10448000601CC4B2347070BD1FB500200390019051
:10449000029003A901A8FFF7D3FF03200090FE4874
:1044A000037801AA9DF80C1001200BF01EFBFA48BE
:1044B0000078401CF849087008460078302801D17F
:1044C000002008701FBD3EB501250020019002901C
:1044D0000024F24804781AE0C4EB8411F04810F884
:1044E000110000F0010080B1EC4804700078FFF783
:1044F000ADFD012808D180200090E848037801AA8A
:10450000294601200BF0F1FA03E0601CC4B2302C04
:10451000E2DB00BFE1480078401CE0490870084633
:104520000078302801D1002008703EBD3EB501243E
:10453000002001900290DB480078FFF787FD0128FA
:1045400008D104200090D748037801AA2146012011
:104550000BF0CBFAD3480078401CD24908700846CB
:104560000078302801D1002008703EBD3EB50124FE
:10457000002001900290CC480078FFF767FD0128E9
:1045800013D1C948007800EB800101EB4010C74906
:10459000085C00F0010040B190200090C248037810
:1045A00001AA214601200BF0A0FABF480078401C68
:1045B000BD49087008460078302801D100200870F5
:1045C0003EBDFEB50126BA4903C9CDE90101B9488E
:1045D0000078FFF73BFD012824D1B648027801247A
:1045E00000252046294614F0A9F8B34B0CCB104007
:1045F0001940002358405940084313D1AD48007872
:1046000000EB800101EB4010A849085C00F00100BC
:1046100040B1A0200090A748037801AA31460120AC
:104620000BF063FAA3480078401CA24908700846C2
:104630000078302801D100200870FEBDF0B5A1B08F
:10464000044600250026402111A814F06AF900272D
:104650001CB99A48006846881BE0802C0DDBA4F149
:10466000800081B201A801F087F8402201A911A8B9
:1046700014F0FBF8BDF858600BE0601E81B201A891
:1046800000F02EFD402201A911A814F0EEF8BDF8AB
:10469000586000252AE0FCF777FF28BB88480068AF
:1046A00090F8AF0000F00100F0B986480078D8B962
:1046B00005EB4501844800EB41004079A0B97F48F3
:1046C0000068001D00EB45000088B0420CD05EB1D0
:1046D0007A480068643000EB450000884FF6FF71AF
:1046E000884201D0012703E0681CC5B2302DD2DB1F
:1046F00000BF384621B0F0BD2DE9F04107460E4617
:104700001446002574556D1C00207055012C0DDBDE
:1047100000F00AFF401CA04208DD601E81B20320A9
:1047200002F02BFA012801D1FE207055802C0EDBFF
:1047300000F040FF8030A04209DDA4F1800081B28A
:10474000042002F01AFA012801D1FE207055681CDD
:10475000C5B200207055012C0DDB00F0E5FE401CB9
:10476000A04208DD601E81B2032002F025FA012874
:1047700001D1EE207055802C0EDB00F01BFF803045
:10478000A04209DDA4F1800081B2042002F014FAF5
:10479000012801D1EE207055681CC5B23D70BDE8FE
:1047A000F08100B5A3B000202290209021904021FC
:1047B00010A814F0B6F84548007800286AD14FF4E4
:1047C000C87143480AF094FA0128F7D10021404803
:1047D0000AF08EFA3F4801780078401C3D4A10707C
:1047E000052956DB0020114608703B480078FFF78A
:1047F00025FF012834D13848007840B9684600F0D8
:1048000034F94022694610A814F02FF81CE0324811
:10481000007880280CDB30480078803881B2684608
:1048200000F0AAFF4022694610A814F01EF80BE021
:1048300029480078401E81B2684600F051FC4022B1
:10484000694610A814F011F802208DF840002F22BC
:1048500014A9684614F009F810A80FC807F0CBF89F
:104860001D480078401C1C49087000F05DFE401C8B
:1048700019490978884202D180201749087000F050
:1048800099FE803014490978884202DC00201249E0
:10489000087023E044E00000990000209A00002006
:1048A000745400209B0000209C000020146C002009
:1048B000809905089D000020900000208C000020B9
:1048C0008800002034000020545300209F00002066
:1048D000A0000020A4000020A500002000F024FE7D
:1048E000401C4949097888420ADC474800788028FA
:1048F00016DB00F05FFE80304349097888420FDD07
:104900004148027820A922A8FFF7F6FEF420009083
:104910003E48037820AA9DF8881001200BF0E5F8A6
:1049200023B000BD90B0202108A813F0FAFFFFF7D4
:1049300081FB4FF4FA600AF0F3F900BF0A21344812
:104940000AF0D6F9012812D1002131480AF0D0F935
:10495000684603F0E8F92022694608A813F085FFAD
:104960009DF8210008B9FFF71CFFFFF7F1FB32218A
:1049700028480AF0BDF9012805D1002125480AF090
:10498000B7F9FFF781FD142123480AF0B1F9012896
:1049900005D1002120480AF0ABF9FFF7C7FD6421DB
:1049A0001E480AF0A5F9012805D100211B480AF08C
:1049B0009FF9FFF788FD782119480AF099F9012835
:1049C00005D1002116480AF093F9FFF7CFFD3221F7
:1049D00014480AF08DF9012805D1002111480AF088
:1049E00087F9FFF7EEFD0BF051FA0BF07BFC052089
:1049F0000AF096F9A2E710B505230B4A0021AFF2A1
:104A0000DB000BF039F810BDA50000209E0000204F
:104A1000A8000020B0000020B4000020AC0000205E
:104A2000B8000020BC00002040950020FE487047E0
:104A300010B56021FC48001D13F051FF10BD014668
:104A4000F948001D00EB410000887047F64A121D2E
:104A500002EB410210807047F34A643202EB4102DC
:104A600010807047F0480088704710B504463F2218
:104A7000EE49204613F0B4FE10BD2DE9F04387B097
:104A80000025002005900690039004900024002645
:104A90000027804602908146019005A8011907224F
:104AA0000D200AF0B0FF03A8011907220D200CF019
:104AB00017F905A9081905210AF0B8F8804603A9D5
:104AC000081905210AF0B2F8814605A8065D03A879
:104AD000075D641C241D05A820440088029003A8DB
:104AE000204400880190A52E0BD1BDF80800804518
:104AF00007D1DDF81550072205A90D200CF0E0F8CC
:104B00000EE0A52F0BD1BDF80400814507D1DDF8DB
:104B10000D50072203A90D200AF06AFF00E00125CD
:104B2000284607B0BDE8F08300B5A1B0402111A828
:104B300013F0F7FEFFF7A1FFBB49088001A8FFF7BC
:104B400094FF402201A911A813F08FFEBDF8580070
:104B5000B549488021B000BD30B595B040F2891408
:104B60001822B3A10FA813F080FE254617200E903F
:104B700000200C900D900A900B90242101A813F0B6
:104B8000D0FE00200090A8480088A04206D117223D
:104B9000AD490FA813F0F8FD002861D0A2480480A9
:104BA00017220FA9A84813F01BFEA5208DF830008E
:104BB000CDF8315005210CA80AF038F80090BDF866
:104BC0000000ADF8350007220CA90D200CF078F894
:104BD00007220CA90D200AF00BFFA5208DF8280054
:104BE000BDF83800ADF8290003210AA80AF01EF824
:104BF0000090BDF80000ADF82B0005220AA918208E
:104C00000CF05EF805220AA918200AF0F1FEA52092
:104C10008DF80400BDF838208B490DF1050013F024
:104C2000DFFDBDF83800401C81B201A809F0FEFF8D
:104C3000009001A9BDF83800401C0844BDF80010E0
:104C40000180BDF83800C01C82B201A921200CF0FF
:104C500037F8BDF83820D21C01A921200AF0C8FE7F
:104C600015B030BD1FB579A207CA01AB07C300203C
:104C70000090072101A809F0D9FF0090BDF80000BD
:104C8000ADF80B00092201A900200CF019F81FBD96
:104C90007148007870472DE9F04186B000200490FB
:104CA0000590029003900024002500260027019023
:104CB0008046009004A80119052218200AF0A3FEDE
:104CC00002A80119052218200CF00AF804A90819F5
:104CD000032109F0ABFF074602A90819032109F0D7
:104CE000A5FF804604A8055D02A8065D641CA41CFF
:104CF00004A820440088019002A820440088009065
:104D0000A52D0DD1BDF80400874209D15248BDF848
:104D100011100180052204A918200BF0D1FF12E028
:104D2000A52E0DD1BDF80000804509D14A48BDF837
:104D300009100180052202A918200AF059FE02E09C
:104D400000204549087006B0BDE8F08170B5064600
:104D50000D460024FFF79CFF0446002C06DD1E2CA8
:104D600004DC22463849304613F03AFD2C7070BD01
:104D70002DE9F047C4B0842123A813F0D2FD84218B
:104D800002A813F0CEFD002400260027A046002034
:104D900001908146009000258246FFF779FF054685
:104DA000002D71DD1E2D6FDCE81C1FFA80FA23A890
:104DB0000119524621200AF026FE02A80119524686
:104DC00021200BF08DFF6A1C91B223AA101909F063
:104DD0002DFF80466A1C91B202AA101909F026FF25
:104DE000814623A8065D02A8075D601CC4B2601955
:104DF000C4B223A820440088019002A8204400885F
:104E00000090A52E2AD1BDF80400804526D12A465F
:104E10000DF18D010C4813F0E3FC524623A921202B
:104E20000BF04EFF30E0000044950020C2980020B7
:104E30004344475F4D445F425F42315F3330305FF0
:104E40003339332E62696E00A4980020A57A6C6411
:104E50001204010000000000C0000020A52F0FD1A7
:104E6000BDF8000081450BD12A460DF10901FE482D
:104E700013F0B6FC524602A921200AF0B9FD03E066
:104E80002946F94813F02BFD44B0BDE8F08730B552
:104E9000ADF5097D05460C464FF40372F34906A8AB
:104EA00013F0E3FC142101A813F03BFD1D2C08DADC
:104EB00004EBC40006AA02EB4001122201A813F081
:104EC0008FFC122201A9284613F08AFC0DF5097DFA
:104ED00030BD0FB430B595B00020119012901390F2
:104EE00014900024109000250C900D900E900F90BF
:104EF00018A908A809F0C9FC08A80FC8CDE90E2315
:104F0000CDE90C0111A908190E220CA913F068FCB7
:104F10000E34214611A809F089FE109011A82044F2
:104F2000BDF840100180A41C2F221CA9684613F074
:104F30009CFC18A80FC807F06FF80546224611A977
:104F400028460AF055FDA8B2224611A90BF0B8FE7A
:104F500015B030BC5DF814FB0FB470B596B02A9C48
:104F600000201290139014901590002511900026A7
:104F70000D900E900F9010909DF86900012862D05E
:104F80009DF8690000285ED09DF86900032808D1CB
:104F9000C4EB8411B64A88183F221AA913F020FCEA
:104FA00007E0C4EB8411B34A88183F221AA913F012
:104FB00017FC22461AA909A809F0ECFC09A80FC899
:104FC000CDE90F23CDE90D0112A948190E220DA933
:104FD00013F006FC05F10E00C5B2294612A809F02F
:104FE00025FE119012A82844BDF844100180A81C89
:104FF000C5B233221DA9684613F037FC20461AA912
:105000000EC907F053F806462A4612A930460AF0A0
:10501000EFFCB0B22A4612A90BF052FE9DF86900CF
:10502000032808D1C4EB8411914A88183F221AA999
:1050300013F0D6FB07E0C4EB84118E4A88183F2298
:105040001AA913F0CDFB16B070BC5DF814FB0FB4B9
:1050500030B58DB0209C002009900A900B900C90E8
:10506000002508900490059006900790E2B210A9E0
:10507000684609F08FFC9DE80F00CDE90623CDE9D5
:10508000040109A948190E2204A913F0A9FB0E3541
:10509000294609A809F0CAFD089009A82844BDF8C6
:1050A00020100180AD1C40F2263101EB04102A468D
:1050B00009A90AF09DFC40F2263101EB041188B2E7
:1050C0002A4609A90BF0FCFDC4EB8411694A881833
:1050D0003F2210A913F084FB0DB030BC5DF814FB27
:1050E00070B505460C46C4EB8410624A81183F2215
:1050F000284613F075FB70BDF0B5B1B000202D90BF
:105100002E902F90309029902A902B902C90002652
:105110002890002727900025142122A813F001FCD5
:10512000002400201E901F902090219000BFADE031
:1051300000252DAA511940F2263202EB041010224C
:105140000AF061FC29AA511940F2263202EB041040
:1051500010220BF0C5FD2DA948190E2109F066FD9E
:10516000064629A948190E2109F060FD07460E35AB
:105170002DA828440088289029A828440088279032
:10518000BDF8A00086421FD12DA80FC8CDE920236D
:10519000CDE91E01BDF88400ADF800000EA81EA9DF
:1051A0000EC909F05FFCC4EB8411324A88183F2213
:1051B0000EA913F015FB40F2263101EB041010226A
:1051C0002DA90BF07DFD5DE0BDF89C0087421FD14D
:1051D00029A80FC8CDE92023CDE91E01BDF8840020
:1051E000ADF800000EA81EA90EC909F03BFCC4EBE7
:1051F0008411204A88183F220EA913F0F1FA40F2D8
:10520000263101EB0410102229A90AF0F1FB39E044
:10521000214619A8FFF73BFE142219A922A813F072
:1052200024FB0220C4EB8411124A11444870C4EBE1
:1052300084111144881C122222A913F0D1FABDF85E
:105240008800F8B1C4EB84100A4A104400F1100140
:105250002F2268460C9413F0C3FAC4EB8410054A5D
:1052600081183F220EA807E0A4980020889905081D
:105270009EA100200199002013F0B2FA0EA80FC8D9
:10528000FFF7E5FE0BF02EF8601CC4B2F748B0F84B
:10529000CF00A0423FF74CAF31B0F0BD70B5B0B019
:1052A000402120A813F03DFB00201C901D901E9073
:1052B0001F90189019901A901B90002400251790A9
:1052C0000026169012901390149015901CA80119A6
:1052D000102240F216300AF096FB18A8011910228D
:1052E00040F216300BF0FCFC1CA908190E2109F045
:1052F0009DFC054618A908190E2109F097FC0646E1
:105300000E341CA820440088179018A82044008858
:105310001690BDF85C0085421AD11CA80FC8CDE9D3
:105320001423CDE91201BDF85400ADF8000002A825
:1053300012A90EC909F096FB3F2202A9CC4813F02E
:105340004FFA10221CA940F216300BF0B9FC2EE0E7
:10535000BDF8580086421AD118A80FC8CDE9142309
:10536000CDE91201BDF85400ADF8000002A812A961
:105370000EC909F077FB3F2202A9BD4813F030FAAD
:10538000102218A940F216300AF032FB0FE001207B
:105390008DF881004FF49670ADF882002F2224A979
:1053A000684613F062FA20A80FC8FFF792FD30B0EC
:1053B00070BD11B583B00020029001900024BDF8AB
:1053C0000C00AA49A1F8CF0002A82044BDF80C1097
:1053D0000180A41C022102A809F028FC019002A867
:1053E0002044BDF804100180A41C042202A940F24C
:1053F000F1200AF0FDFA042202A940F2F1200BF09C
:105400005FFC1FBD10B5A2B0402112A813F089FAAD
:10541000002414210DA813F084FA02208DF849000D
:1054200000BF1DE0214608A8FFF731FD142208A99E
:105430000DA813F01AFA12220DA90DF14A0013F06B
:10544000CFF9E0B22F2216A90C90684613F00DFA9E
:1054500012A80FC8FFF780FD0AF044FF601C84B259
:105460001D2CDFDB22B010BD70B586B0002005908A
:10547000049003900024002502900026019004A8C7
:105480000119042240F2F1200AF0BDFA03A8011923
:10549000042240F2F1200BF023FC04A90819022198
:1054A00009F0C4FB054603A90819022109F0BEFB57
:1054B0000646A41C04A820440088029003A82044A7
:1054C00000880190BDF80800854208D10498059035
:1054D000042204A940F2F1200BF0F2FB13E0BDF826
:1054E0000400864208D103980590042203A940F2E3
:1054F000F1200AF07DFA06E01D200590FFF782FFFB
:105500001D20FFF756FFBDF814001D2803D01D20F5
:105510000590FFF74EFFBDF814005449A1F8CF00E5
:10552000BDF8140006B070BD5048B0F8CF00704709
:105530000FB470B5A0B06FF001050024FFF7F4FFC1
:105540000646402110A813F0ECF91D2E1ADB651E4B
:1055500000BF14E021466846FFF7C2FD40226946BD
:1055600010A813F082F912220DF192010DF1420000
:1055700013F00AF908B925B203E0601C84B2B44202
:10558000E8DB06E0FFF73EFF1D20FFF712FF6FF09C
:105590000105A81C48B92F2228A9684613F065F90F
:1055A00024A80FC8FFF7C4FF0546284620B070BCEA
:1055B0005DF814FB2D48B0F8A201704711B583B017
:1055C0000020029001900024BDF80C002749A1F8AA
:1055D000A20102A82044BDF80C100180A41C0221E5
:1055E00002A809F023FB019002A82044BDF8041092
:1055F0000180A41C042202A940F2F5200AF0F8F967
:10560000042202A940F2F5200BF05AFB1FBD30B571
:1056100093B005460C463822164905A813F025F923
:105620001421684613F07DF9032C08DA04EBC4005A
:1056300005AA02EB40011222684613F0D1F81222AB
:105640006946284613F0CCF813B030BD10B5A2B0AF
:10565000402112A813F065F9002414210DA813F0BD
:1056600060F903208DF8490000BF23E04495002035
:10567000C2980020949B0508214608A8FFF7C7FFA1
:10568000142208A90DA813F0F0F812220DA90DF1AB
:105690004A0013F0A5F8E0B22F2216A90C90684634
:1056A00013F0E3F812A80FC8FFF756FC0AF01AFE31
:1056B000601C84B2032CDFDB22B010BD70B586B055
:1056C00000200590049003900024002502900026FD
:1056D000019004A80119042240F2F5200AF093F980
:1056E00003A80119042240F2F5200BF0F9FA04A9ED
:1056F0000819022109F09AFA054603A9081902219E
:1057000009F094FA0646A41C04A8204400880290DC
:1057100003A8204400880190BDF80800854208D104
:1057200004980590042204A940F2F5200BF0C8FA71
:1057300013E0BDF80400864208D1039805900422C6
:1057400003A940F2F5200AF053F906E00320059082
:10575000FFF77CFF0320FFF731FFBDF8140003289B
:1057600003D003200590FFF729FFBDF81400FE4980
:10577000A1F8A20106B070BD70B505460C46C4EB99
:105780008410FA4A81183F22284613F029F870BD88
:105790000FB430B58DB0209C002009900A900B907A
:1057A0000C90002508900490059006900790E2B2B6
:1057B00010A9684609F0EEF89DE80F00CDE9062330
:1057C000CDE9040109A948190E2204A913F008F82B
:1057D0000E35294609A809F029FA089009A8284495
:1057E000BDF820100180AD1C40F2565101EB0410B1
:1057F0002A4609A90AF0FCF840F2565101EB0411BF
:1058000088B22A4609A90BF05BFAC4EB8411D74A87
:1058100088183F2210A912F0E3FF0DB030BC5DF8EC
:1058200014FBF0B5B1B000202D902E902F90309049
:1058300029902A902B902C900026289000272790C2
:105840000025142122A813F06CF8002400201E90DB
:105850001F902090219000BFA4E000252DAA51198F
:1058600040F2565202EB041010220AF0CCF829AA9A
:10587000511940F2565202EB041010220BF030FA8C
:105880002DA948190E2109F0D1F9064629A9481970
:105890000E2109F0CBF907460E352DA828440088C3
:1058A000289029A8284400882790BDF8A0008642A7
:1058B0001FD12DA80FC8CDE92023CDE91E01BDF8C9
:1058C0008400ADF800000EA81EA90EC909F0CAF8A0
:1058D000C4EB8411A54A88183F220EA912F080FF5C
:1058E00040F2565101EB041010222DA90BF0E8F9FB
:1058F00054E0BDF89C0087421FD129A80FC8CDE90C
:105900002023CDE91E01BDF88400ADF800000EA8EB
:105910001EA90EC909F0A6F8C4EB8411934A881891
:105920003F220EA912F05CFF40F2565101EB041029
:10593000102229A90AF05CF830E0214619A8FFF7E7
:1059400066FE142219A922A812F08FFF0320C4EBCF
:105950008411864A11444870C4EB84111144881C98
:10596000122222A912F03CFFBDF88800B0B1C4EBAE
:1059700084107E4A104400F110012F2268460C94D6
:1059800012F02EFFC4EB8410784A81183F220EA833
:1059900012F026FF0EA80FC8FFF7FAFE0AF0A2FCCD
:1059A000601CC4B27048B0F8A201A0423FF755AFE6
:1059B00031B0F0BD0FB470B5A0B06FF00105002498
:1059C000FFF7F8FD0646402110A812F0AAFF032EAB
:1059D0001ADB651E00BF14E021466846FFF7CCFEC7
:1059E0004022694610A812F040FF12220DF19201E8
:1059F0000DF1420012F0C8FE08B925B203E0601CA8
:105A000084B2B442E8DB06E0FFF720FE0320FFF794
:105A1000D5FD6FF00105A81C48B92F2228A96846BA
:105A200012F023FF24A80FC8FFF7C4FF054628463D
:105A300020B070BC5DF814FB11B583B0002001905C
:105A400002900090002448480399C0F8CB1001A8A8
:105A500001194548D0F8CB000860241D214601A853
:105A600009F0E4F8009001A82044BDF8001001807E
:105A7000A41C062201A940F2E65009F0B9FF062253
:105A800001A940F2E6500BF01BF91FBD70B588B0BC
:105A90003748006807900020059006900390049016
:105AA00000240025029000260190062205A940F25C
:105AB000E65009F0A8FF062203A940F2E6500BF0D9
:105AC0000FF9042105A809F0B1F80546042103A83F
:105AD00009F0ACF80646241D05A820440088029071
