:020000040804EE
:1000000048D60120B1430508B943050883FA04081E
:10001000BD430508BF430508C143050800000000B3
:10002000000000000000000000000000C3430508BD
:10003000C543050800000000E3290508FB2A050860
:10004000CB430508CB430508CB430508CB43050844
:10005000CB430508CB430508CB430508CB43050834
:10006000CB430508CB430508CB430508CB43050824
:10007000CB430508CB4305086D0B0508CB430508AA
:10008000CB430508CB430508CB430508CB43050804
:1000900015FD0408CB430508CB430508CB430508F1
:1000A000CB430508CB430508CB430508CB430508E4
:1000B000CB430508CB430508CB430508CB430508D4
:1000C000CB430508CB430508CB430508CB430508C4
:1000D000CB430508891C0508CB430508630C0508BC
:1000E000CB430508CB430508CB430508CB430508A4
:1000F000CB430508CB430508CB430508CB43050894
:10010000CB430508CB430508CB430508CB43050883
:10011000CB430508CB430508CB430508CB43050873
:10012000CB430508CB430508CB430508CB43050863
:10013000CB430508CB430508CB430508CB43050853
:10014000C7180508CB430508CB430508CB43050872
:10015000CB430508CB430508931B0508CB43050893
:10016000CB430508CB430508CB430508CB43050823
:10017000CB430508CB430508CB430508CB43050813
:10018000CB43050800F002F800F05AF80AA090E806
:10019000000C82448344AAF10107DA4501D100F042
:1001A0004FF8AFF2090EBAE80F0013F0010F18BFB5
:1001B000FB1A43F00103184730A6010050A60100C6
:1001C0000A444FF0000C10F8013B13F0070408BF7D
:1001D00010F8014B1D1108BF10F8015B641E05D01B
:1001E00010F8016B641E01F8016BF9D113F0080FD0
:1001F0001EBF10F8014BAD1C0C1B09D16D1E58BF62
:1002000001F801CBFAD505E014F8016B01F8016B98
:100210006D1EF9D59142D6D370470000002300240B
:1002200000250026103A28BF78C1FBD8520728BF06
:1002300030C148BF0B6070471FB51FBD10B510BD62
:1002400018F0F5FB1146FFF7F7FF00F028F818F05B
:1002500013FC03B4FFF7F2FF03BC18F01BFC000013
:1002600010B50FF037FC0FF03CFC10BD00F0A0FA09
:1002700000F03AFF01F0D0FB0AF0BAFF0AF08DFF60
:1002800003F0ECFE04F019FC0BF0B3FE07F089FD5F
:1002900007F097F802E032200EF09EFDFBE7002405
:1002A00012F07EFB0446FFF7DBFF0FF05FFC0A2332
:1002B000084A0021AFF24B000FF03AFC204612F042
:1002C00073FB0FF04DFC02E00A200EF085FDFBE70A
:1002D000704700008C1B0020FE4870477CB5054627
:1002E000002400200190FCA00068009001A928468D
:1002F0000EF029FE044630220421F6481E3018F084
:1003000042FBC4F10402F3491E315018224601A9F0
:1003100018F0C2FAEF480099C0F81A107CBD10B569
:1003200086B0EE4A07CA03AB07C3EDA103C9CDE906
:10033000010104F0FBFB044641F2AF21E54818F04F
:100340004CFB1022E849E3480A3018F0A5FA0A22CB
:1003500003A9E04818F0E5FADE480199C0F8221038
:10036000BDF80810C1842046FFF7B8FF06B010BDE5
:1003700000B589B0002005900690079008900EF017
:1003800082F801A805F0F0FF01A80FC8CDE9072306
:10039000CDE90501102205A9CE480A3018F07CFAF3
:1003A00009B000BD01460020092902DB392900DC23
:1003B000012070470146012070477CB505460C4678
:1003C00000200190C5480C3000680090207801287A
:1003D00002D0022808D104E00120019009F045FA7A
:1003E00002E00020019000BF00BF6078022803D126
:1003F000009800F0F9F900BF00BF0020BB49487029
:10040000019805F0C2FF7CBD7047F8B506460C4662
:10041000B2481030006800900025605D012804D0CB
:10042000022803D0FE280ED104E00CE0009800F072
:10043000DBF908E0A74890F8AE0020F02001A548BD
:1004400080F8AE1000BF00BF681CC5B2605D012817
:1004500002D0022813D109E09E4890F8280020F02D
:100460000100401C9B4981F8280008E0994890F859
:10047000280020F00100974981F8280000BF00BF44
:10048000F8BD38B504460D46944814300068009015
:10049000009800F0A9F938BD2DE9FE4305460E4647
:1004A0008E48183000680290002001900027814695
:1004B00080460024009082218D4818F06CFA57E0A5
:1004C0004FF00009301900880190002747E007EB42
:1004D0004700884931F81000BDF8041088423CD12B
:1004E0004FF001097B48B0F8361100F59C700844C4
:1004F000BDF804100180A01CC4B2A81E85B27548C6
:10050000B0F83601801C7349A1F8360116F8048052
:10051000601CC4B2681E85B20846B0F8362100F5EA
:100520009C701318311907EB4700724A02EB400028
:10053000D0F802C06A464046E04704EB0800C4B267
:10054000A5EB080085B26348B0F836019DF80010AD
:1005500008446049A1F8360105E0781CC7B2664836
:1005600000788742B3DB00BFB9F1000F00D101E092
:10057000022DA5D200BF029800F036F9BDE8FE8337
:1005800038B505460C4655481C3000680090207868
:100590008DF80300009800F027F938BD38B50446FF
:1005A0000D464E48203000680090009800F01CF97D
:1005B00038BD01224D4B1A70704738B505460C46C0
:1005C00046482430006800902078302805DA2078EA
:1005D0008DF80300009800F007F938BD73B50D469B
:1005E000002400BF14E09DF8000004EB8401434A9E
:1005F000515C88420AD1BDF8010004EB8401134626
:100600001944D1F801202946904705E0601CC4B286
:100610003B4800788442E6DB00BF7CBD2DE9F04119
:1006200086B007460E4600200390049005903C4695
:10063000358802900190B6F8008071E0B4F80100AE
:1006400002902078682866D1BDF80800FFF7AAFE5E
:10065000002860D0BDF8080085425BDBBDF80800CB
:10066000801E81B220460EF076FBBDF80810891E70
:10067000615C884248D1BDF80800401E205C162805
:1006800042D120680390A088ADF81000A0798DF8C1
:100690001200BDF810000190BDF80800801E205C1B
:1006A0008DF813009DF81200FFF784FE48B1DDF8C5
:1006B0000F00E11D0090FFF791FF002003900490D0
:1006C0000590BDF808000444BDF80800281A85B25A
:1006D000002017E0902B002030323030C8990508F8
:1006E0004344522D55310000959600200C00002007
:1006F000C62C0020E0980508000000209A99050803
:100700000100002002900BE0641C681E85B20020EE
:10071000029005E006E0641C681E85B2002002908D
:10072000032D8BDA00BF2A462146384618F0B4F86C
:100730003580A8EB0501781918F02DF906B0BDE851
:10074000F081ADF6180D002400200190FFF7E7FDC1
:100750004FF47A600EF040FB00BF0020019002A829
:10076000021901AB012108460FF015F9BDF804008C
:10077000204484B2B4F5016F00D90024BDF8040010
:1007800040B93CB102AD019401A92846FFF746FFEC
:10079000BDF804400FF0D6FBFFF7EAFD0BF0ACFE0E
:1007A0000DF0E5FF0FF0FAFD0A200EF015FBD4E77F
:1007B00010B50623034A0021AFF279000FF0B8F913
:1007C00010BD00008C2B0020FE48704710B5FD487E
:1007D00000210180817001F02DF9FB49086004F0CF
:1007E00089F9FA49086010BD31B5002404E0601CA5
:1007F000C4B20A200EF0F0FAF548407808B1642C33
:10080000F5DBF3480099016038BDF1484078704746
:100810002DE9F04106460D469046002400BF102207
:10082000EA48016801F25111EA4818F035F8281930
:100830001022E84918F030F810342819E5490A392F
:10084000D1F81A100160241D2919DF480068D0F87A
:1008500052010860241D2819DE490A39D1F81E10FA
:100860000160241D2919D8480068D0F85601086095
:10087000241D2819D7490A39D1F822200260C98CD1
:100880008180A41D2819D3490A390A6802604A6880
:100890004260098901810A3410F076FD4FF47A71C3
:1008A00000FB01F728190760241DF01CB480BDE887
:1008B000F0812DE9F04105460E4617460024301917
:1008C0001022C44917F0E8FF1034E81CAC80BDE8E2
:1008D000F0812DE9F04105460E46174600243019F7
:1008E000E222BC49223117F0D7FFE234E81CAC8089
:1008F000BDE8F081F0B589B006460D4617460024E4
:100900000020059006900790089028192822B249E7
:1009100017F0C2FF28342919AE480A38408D0880E4
:10092000A41C2919A9480068B0F8CF000880A41CAD
:1009300001A80DF08FFF01A80FC8CDE90723CDE96D
:1009400005012819102205A917F0A6FF1034F01C84
:10095000B48009B0F0BD70B504460D4616469D48FA
:100960000A38B0F83611E01CA180A2889A492A31D1
:10097000284617F091FF70BD2DE9F04107460D465E
:10098000164600242E55641C302E04DB0220285508
:10099000601C84B2D1E101202855601C84B2C6EBF2
:1009A00086118948006800F5A87010F8110000F061
:1009B000010020B902202855601C84B2BDE101204D
:1009C0002855601C84B22919C6EB86127E4800683F
:1009D00000F5A87000EB4200B0F80B000880A01CE6
:1009E00084B22919C6EB86127748006800F5A87012
:1009F00000EB4200B0F811000880A01C84B2291955
:100A0000C6EB86127048006800F5A87000EB420043
:100A1000B0F813000880A01C84B2C6EB86116A48A7
:100A2000006800F5A87000EB410090F84A002855D6
:100A3000601C84B2C6EB86116348006800F5A8709C
:100A400000EB410090F860002855601C84B2291921
:100A5000C6EB86125C48006800F5A87000EB420007
:100A6000B0F850000880A01C84B2C6EB861156482E
:100A7000006800F5A87000EB410090F8520028557E
:100A8000601C84B2C6EB86114F48006800F5A87060
:100A900000EB410090F839002855601C84B22919F8
:100AA000C6EB86124848006800F5A87000EB4200CB
:100AB000B0F84B000880A01C84B2C6EB8613424AF3
:100AC000126802F5A87202EB430202F1190128191B
:100AD000202217F0E1FE04F1200084B2C6EB861359
:100AE000394A126802F5A87202EB430202F13A0198
:100AF0002819102217F0D0FE04F1100084B2291931
:100B0000C6EB86123048006800F5A87000EB420082
:100B1000B0F858000880A01C84B22919C6EB8612D0
:100B20002948006800F5A87000EB4200B0F85A00B0
:100B30000880A01C84B22919C6EB861222480068DE
:100B400000F5A87000EB4200B0F85C000880A01C23
:100B500084B22919C6EB86121B48006800F5A870FC
:100B600000EB4200B0F817000880A01C84B22919DD
:100B7000C6EB86121448006800F5A87000EB42002E
:100B8000B0F815000880A01C84B22919C6EB8612A3
:100B90000D48006800F5A87000EB4200B0F8650051
:100BA0000880A01C84B2C6EB86110748006800F5D7
:100BB000A87000EB410090F854002855601C84B2E6
:100BC0000CE000000C0000200400002008000020C1
:100BD0000F0000209A2B00209E2C0020C6EB8611CF
:100BE000FE48006800F5A87000EB410090F8550041
:100BF0002855601C84B2C6EB8611F848006800F5E1
:100C0000A87000EB410090F856002855601C84B293
:100C1000C6EB8611F148006800F5A87000EB4100B2
:100C200090F857002855601C84B2C6EB8611EB483B
:100C3000006800F5A87000EB410090F85E002855B0
:100C4000601C84B2C6EB8611E448006800F5A87009
:100C500000EB410090F84F002855601C84B2291920
:100C6000C6EB8612DD48006800F5A87000EB420074
:100C7000B0F861000880A01C84B22919C6EB861266
:100C8000D648006800F5A87000EB4200B0F8630099
:100C90000880A01C84B2C6EB8611D048006800F51D
:100CA000A87000EB410090F85F002855601C84B2EA
:100CB000C6EB8611C948006800F5A87000EB41003A
:100CC00090F867002855601C84B2C6EB8611C348B3
:100CD000006800F5A87000EB410090F84D00285521
:100CE000601C84B2C6EB8611BC48006800F5A87091
:100CF00000EB410090F84E002855601C84B2C6EB12
:100D00008611B648006800F5A87000EB410090F825
:100D100053002855601C84B2C6EB8613AF4A126894
:100D200002F5A87202EB430202F1680128191622AB
:100D300017F0B2FD04F1160084B2F81CBC80BDE8C7
:100D4000F0812DE9F041A0B007460D469046002401
:100D50000026684605F069FA684608F0C9FC0646B0
:100D60002E55641C28193246694617F095FD344407
:100D700010A808F0BDFC06462E55641C2819324602
:100D800010A917F089FD34442819102294490968E4
:100D900001F2511117F080FD1034F81CBC8020B016
:100DA000BDE8F081F0B504460B460021002000BFED
:100DB0003CE0C1EB8116894D2D6805F5A87515F845
:100DC000165005F001054DB3C1EB8116834D2D681A
:100DD00005F5A87505EB460595F84A501D54451CC8
:100DE000A8B21E18C1EB81177C4D2D6805F5A875BA
:100DF00005EB4705B5F80D503580851CA8B21E18C7
:100E0000C1EB8117754D2D6805F5A87505EB4705F4
:100E1000B5F80B503580851CA8B205E01D180026DA
:100E20002E602E71451DA8B24D1CE9B23029C0DBE1
:100E3000E51CA080F0BD2DE9F04107460D461646A1
:100E400000242E55641C06EB860202EB4612634B0F
:100E50001B6841F6F00C63441A44911C28191822AF
:100E600017F01AFD1834281906EB860101EB46111C
:100E70005A4A126841F6F0031A44114451F81A2FE5
:100E800002604A6842600A890281897A81720B3461
:100E9000F81CBC80BDE8F08108B55248006800909D
:100EA0005148407801280DD141F288314F480DF06A
:100EB0007BFF012806D100214C480DF075FF0098FA
:100EC000FFF792FC08BD08B54648001D0068009079
:100ED0004548807801280DD141F2883144480DF011
:100EE00063FF012806D1002141480DF05DFF009805
:100EF000FFF77AFC08BD08B53A4808300068009052
:100F00003C48007801280AD100203A49087013F0C3
:100F100028FA3949086013F024FA3849086044F681
:100F2000206135480DF040FF012818D1E2223449F4
:100F3000344817F085FC90B14FF47A712F480DF0CA
:100F400033FF01280BD100212C480DF02DFFE222A8
:100F50002B492C4817F0E5FC0098FFF745FC08BD2D
:100F600008B520480C30006800901F48007898B9F8
:100F700041F2707124480DF017FF012802D0234878
:100F8000007848B9002120480DF00EFF0098FFF7C7
:100F90002BFC01201D49087008BD2DE9F0410646D3
:100FA0000F461546002468202855641CB088093077
:100FB000A6F801002819B6F801100180A41C281910
:100FC000D6F803100160241DB2882819394617F09D
:100FD00063FC30792044C4B2214619E004000020AB
:100FE00008000020209A05080C0000201C000020AA
:100FF0002000002024000020140000201800002001
:10100000BC2B002040460020280000202C0000209F
:1010100028460DF0A0FE2855601CC4B216202855A5
:10102000BDE8F081ADF5047D4FF4807144A817F060
:10103000D4FC4FF4807104A817F0CFFC002001907D
:10104000029003900024FFF7C1FB4FF47A600DF08B
:10105000C3FE00BF29480078012834D100242DE0C8
:101060002648407804EB8401254A515C884223D10C
:1010700004EB84001146085C8DF807001F48817856
:101080008DF80A10C27804EB84001D490844D0F89A
:10109000013044A901A8984704AA44A901A8FFF770
:1010A0007CFF0DF1050304AA012108460EF063FC44
:1010B00012480021016005E0601CC4B211480078AC
:1010C0008442CDDB00BF01200F490870084600783C
:1010D000012801D1FFF70FFF0EF034FF0FF05EF98A
:1010E0000A200DF079FEB5E710B50723074A002165
:1010F000AFF2CF000EF01CFD10BD00000F0000206D
:10110000F0990508130000200C0000203C46002048
:1011100010B5FFF7E1F8F849086010BD7CB5002470
:1011200004F061FD019000200090BDF806000A2146
:1011300090FBF1F085B2BDF8040090FBF1F086B2AF
:101140006A46294630460EF0DBFA0446BDF9001027
:10115000E94800684185214601200FF089F8E648FA
:10116000006890F8280064F3C300E349096881F837
:101170002800E148006890F8AD0064F34510DE49AE
:10118000096881F8AD007CBD10B5DB48006890F8B7
:10119000AD00C0F3400000285BD1D748006890F84C
:1011A000AD0000F00100002853D1D348006890F84A
:1011B000AE00C0F3001000284BD1CF480068416B4F
:1011C000806B002251405040014342D1CA4801681F
:1011D000486D896D5040514008433AD1C648006877
:1011E00090F8AD00C0F3800098BBC348006890F849
:1011F000AD00C0F3C00060BBBF48006890F8AD0010
:101200000121B1EBD01F24D0BB48006890F8AE009C
:1012100000F00100E8B9B848006890F8AE00C0F3EB
:101220004000B0B9B4480068B630016D406D00238D
:101230005940584001430CD1AF480068B63081682E
:10124000C06859405840014303D101F0F8F8012823
:101250000FD1012104200FF00BF8A748006890F887
:10126000AD0020F010001030A349096881F8AD00EE
:101270000DE0002104200EF0FBFF9F48006890F86D
:10128000AD0020F010019C48006880F8AD1010BD42
:1012900010B54FF4FA7199480DF086FD012810D170
:1012A000002196480DF080FD9548007808B901208E
:1012B00000E00020924908700846017805200EF0F1
:1012C000D7FF10BD10B5FFF729FFFFF75DFFFFF750
:1012D000DFFF10BD10B501200FF026F818B38948C4
:1012E000B0F900100088401C00B2864A1080962990
:1012F0003CDB9620114608807F48006890F8280063
:1013000020F00400001D7C49096881F828007A4813
:10131000006890F8AD0020F00200801C7649096852
:1013200081F8AD0022E07748B0F900100088401E37
:1013300000B2744A108011F1960F17DC6FF095001F
:10134000114608806C48006890F8280020F00400DE
:101350006949096881F828006748006890F8AD007D
:1013600020F002016448006880F8AD1010BD10B58F
:1013700000200EF0D9FFC0B1634890F9001000784A
:10138000401C40B2604A1070052926DB052011463A
:1013900008705948006890F8AD0020F00100401C2A
:1013A0005549096881F8AD0017E0574890F90010D9
:1013B0000078401E40B2544A107011F1050F0CDC49
:1013C000FB20114608704C48006890F8AD0020F0F2
:1013D00001014948006880F8AD1010BD10B5022029
:1013E0000EF0A2FFC0B1494890F900100078401CEF
:1013F00040B2464A1070052926DB052011460870C8
:101400003D48006890F8AE0020F0400140313A4875
:10141000006880F8AE1017E03C4890F900100078A2
:10142000401E40B2394A107011F1050F0CDCFB2050
:10143000114608703048006890F8AE0020F0400176
:101440002D48006880F8AE1010BD2B48006890F859
:10145000AD00C0F3400010BB2748006890F8AD0015
:1014600000F00100D8B92448006890F8AE00C0F33D
:101470000010A0B92048006890F8AD00C0F38000CB
:1014800068B91D48006890F8AE0000F0010030B95E
:101490001948006890F8AE00C0F3400010B1012078
:1014A0001B490870704710B5A4B014A80AF0C5FD18
:1014B0004FF0FF340CA806F092FC9DF85100002874
:1014C00063D02B2119A817F066FA9DF85100012866
:1014D00004D002281ED0032847D134E001208DF823
:1014E00051002F2218A9684617F01BFA14A80FC83C
:1014F00003F053FD39E000003000002038000020E8
:101500003C0000203E000020400000204100002060
:101510003400002002208DF851002F2218A96846BF
:1015200017F0FFF914A80FC804F066F80446601C11
:1015300040B12F2218A9684617F0F3F914A80FC874
:1015400003F02BFD11E002208DF8510004F096F815
:1015500004B2601C40B12F2218A9684617F0E1F9C7
:1015600014A80FC803F019FD00BF00BF402114A844
:1015700017F033FA2F2218A9684617F0D2F914A8E9
:101580000FC80AF050FD0BF043F89DF8310028B366
:1015900006F016FC05F026FF0022F9480068C26735
:1015A000C0F88020F64800682C308265C2650021B2
:1015B000F34A12682C32116651660022F04909681C
:1015C0002C318A66CA66EE480068B6300263426310
:1015D0000021EB480068B6308163C16324B010BDC0
:1015E00010B50024E648006890F8AD00C0F3400054
:1015F000002863D1E248006890F8AD0000F00100D7
:1016000000285BD1DE48006890F8AE00C0F30010FF
:10161000002853D1DA480068416B806B00235940A1
:10162000584001434AD1D6480068416D806D002280
:1016300051405040014341D1D148006890F8AD007D
:10164000C0F38000D0BBCE48006890F8AD00C0F376
:10165000C00098BBCA48006890F8AD000121B1EB0A
:10166000D01F2BD0C648006890F8AE0000F00100F3
:1016700020BBC348006890F8AE00C0F34000E8B952
:10168000BF480068C16E006F59405840014315D1F2
:10169000BB480068B630016D406D59405840014369
:1016A0000CD1B7480068B6308168C06859405840CE
:1016B000014303D100F0C3FE012802D10124FFF74A
:1016C000F2FE204610BD10B5FFF704FEFFF74FFEF7
:1016D000FFF784FEFFF784FFFFF7B7FE10BDA848B1
:1016E0000068416F806F4FF6FF72504070EA010151
:1016F0001DD1A348006890F8AF0000F0010058B970
:101700009F48006890F8280020F00200801C9C4947
:10171000096881F8280014E09948006890F82800CA
:1017200020F002009649096881F8280009E09448F1
:10173000006890F8280020F002009149096881F8BB
:101740002800704710B504F04EFC8D490968B1F9C6
:101750002A1088420BDC8A48006890F8AE0020F01E
:10176000100110318648006880F8AE1012E004F0D5
:101770003AFC323882490968B1F92A10884209DDF9
:101780007F48006890F8AE0020F010017C480068A7
:1017900080F8AE1010BD10B50020794909684A6D77
:1017A000896D0024624061400A4351D1744909683F
:1017B0004A6B896B624061400A4349D170490968AC
:1017C00091F8AE10C1F30011002941D16C490A68AB
:1017D000D16E126F61406240114339D16849096886
:1017E00091F8AD10C1F3400191BB6549096891F8CA
:1017F000AD1001F0010159BB6149096801F587711C
:101800000A6A496A624061400A4321D15C49096819
:10181000CA6D096E00235A4059400A4318D15849ED
:1018200009684A6E896E624061400A4310D154498A
:10183000096891F82810C1F3400149B95149097864
:1018400031B94F49096891F8AE10C1F3801101B167
:10185000012010BD00B589B001A806F0C0FA4848C3
:10186000006890F8AF0000F0010000283FD09DF81C
:10187000050028B306F0A4FA05F0B4FD0021404AA3
:101880001268D167C2F880103D4800682C3081652D
:10189000C16500203A4909682C3108664866384A13
:1018A00012682C329066D066002235480068B63047
:1018B00002634263002132480068B6308163C1632D
:1018C00000202F4A12682C321067506700212C48E4
:1018D00000682C308167C167002229480068B63053
:1018E0000264426426480068B6308264C26409B06B
:1018F00000BD00202249096891F8AD10C1F34001F4
:1019000089BB1F49096891F8AD1001F0010151BB75
:101910001B49096891F8AE10C1F3001119BB1849B1
:10192000096891F8AD10C1F38001E1B91449096863
:1019300091F8AD10C1F3C001A9B91149096891F836
:10194000AD100122B2EBD11F0DD00D49096891F8FD
:10195000AE1001F0010131B90949096891F8AE10E2
:10196000C1F3400101B10020704710B500240448C4
:10197000006890F8AF0000F0010038B300BF0AE043
:10198000300000209801002022460021032005F0AD
:1019900060F9601CC4B203F02BFEA042F4DC00240A
:1019A00006E022460021042005F053F9601CC4B271
:1019B00003F064FEA042F4DC1C48006890F8AF001D
:1019C00020F080011948006880F8AF1010BD10B5F4
:1019D000FFF785FEFFF7B6FEFFF73CFFFFF7C5FFF9
:1019E00010BDFFF795FB4FF4FA700DF0F5F900BF4D
:1019F000FFF768FCFFF7EBFFFFF765FE06F014FA50
:101A00000AF098FD0AF00FFE0EF09CFA0EF0C6FCEC
:101A10000A200DF0E1F9EBE710B50823044A002194
:101A2000AFF241000EF084F810BD0000300000203D
:101A3000204B0020FE48704710B54FF4FF51FC4882
:101A400016F0CBFFFEF748FCFA49086010BD70B5F0
:101A500003460020092B2ED2DFE803F02D050607F0
:101A600008090A0B0C0000BF00BF00BF00BF00BF89
:101A700000BF00BFC2EB8215EF4C04EB45040D180C
:101A80002D88A4F81150841CE0B2C2EB8215EA4CF8
:101A900004EB45040D182D88A4F81350841CE0B203
:101AA0000D5CC2EB8216E44C04EB460484F84A5009
:101AB000441CE0B200E000BF00BF70BD2DE9FC4156
:101AC0000020009001900024FFF713FF012806D0AA
:101AD000D848006890F8AF0000F0010040B1002045
:101AE0000090019030208DF800008DF804003FE058
:101AF00000243BE0CF480068D0F87480876F22460E
:101B0000012500262846314616F074FE08EA00003A
:101B100007EA0103002250405340184306D09DF8C5
:101B20000000401CC0B28DF800001DE0C348005DFD
:101B300020B1012809D0022815D10DE09DF8000040
:101B4000401CC0B28DF800000DE09DF80100401C63
:101B5000C0B28DF8010006E09DF80200401CC0B242
:101B60008DF8020000BF00BF601CC4B2302CC1DB86
:101B7000B0480068009940F8B11F9DF80410017149
:101B8000BDE8FC812DE9FC5F002400200090A948FD
:101B9000006890F8AF0000F0010018B10021A848DB
:101BA0000DF002F900246FE004EB4401A04830304E
:101BB00000EB4100407901283ED19E48006890F832
:101BC000AF0000F00100E0B94EF660219C480DF036
:101BD000EBF801284BD197480068D0F874B0D0F8E2
:101BE00078A02246012500262846314616F002FE3E
:101BF0004BEA00024AEA01038E48006842678367A5
:101C000035E08C480068D0F874A0D0F878B022464F
:101C100001274FF000083846414616F0EBFD0A4612
:101C2000C1430AEA010A2BEA020B82480068C0F8A5
:101C300074A0C0F878B01AE07E480068D0F874A0AC
:101C4000D0F878B022464FF00109002001904846B4
:101C5000019916F0CFFD0A46C1430AEA010A2BEAB0
:101C6000020B74480068C0F874A0C0F878B0C4EBE8
:101C70008411714810F811000121B1EBD01F01D17E
:101C800001200090601CC4B2302C8DDB69480068D4
:101C9000416F806F00225140504001430BD0654896
:101CA000006890F8AE0020F0080108316148006833
:101CB00080F8AE1009E05F48006890F8AE0020F0B0
:101CC00008015C48006880F8AE105A480099006826
:101CD00090F8AE2061F382025648006880F8AE208A
:101CE000BDE8FC9F2DE9F04FB1B0044600200590FF
:101CF000039004900290C4EB84114F4810F8110037
:101D000000F00100B0B14B480068D0F82CB0D0F81A
:101D100030A02246012500262846314616F06AFDED
:101D20004BEA00024AEA010A42480068C262C0F86F
:101D300030A023E03F480068D0F82CA0D0F830B0A5
:101D4000224601274FF000083846414616F052FD62
:101D50000A46C1430AEA010A2BEA020B3548006829
:101D6000C0F82CA0C0F830B0C4EB8412324901EBAB
:101D7000420101F111006D2116F00DFEC4EB84113A
:101D80002D4810F81100C0F34000B8B12948006890
:101D9000D0F834B0D0F838A022464FF00109002026
:101DA00006904846069916F025FD4BEA00024AEADD
:101DB000010320480068426383631AE01D480068FD
:101DC000D0F834A0D0F838B0224601210020CDE967
:101DD00007010846079916F00DFD0A46C1430AEAB5
:101DE000010A2BEA020B13480068C0F834A0C0F8BF
:101DF00038B0C4EB8411104810F81100C0F3800013
:101E0000A8B10C480068D0F854A0D0F858B02246C9
:101E100001210020CDE909010846099916F0EAFCE4
:101E20004AEA000A4BEA010B024800680AE00EE0A9
:101E30002453002048000020745400200473002024
:101E400064000020C0F854A0C0F858B017E0FE4865
:101E50000068D0F854A0D0F858B0224601210020E4
:101E6000CDE90B0108460B9916F0C4FC2AEA0000E4
:101E70002BEA010BF44909684865C1F858B0C4EB76
:101E80008411F24810F81100C0F3C000C8B1EE4848
:101E90000068D0F82EA1D0F832B1224601210020EE
:101EA000CDE90D0108460D9916F0A4FC4AEA000A96
:101EB0004BEA010BE4480068C0F82EA1C0F832B12B
:101EC0001AE0E1480068D0F82EA1D0F832B12246DD
:101ED00001210020CDE90F0108460F9916F08AFC78
:101EE0000A46C1430AEA010A2BEA020BD6480068F7
:101EF000C0F82EA1C0F832B1C4EB8411D34810F859
:101F00001100C0F30010C8B1CF480068D0F80EA18E
:101F1000D0F812B1224601210020CDE91101084676
:101F2000119916F067FC4AEA000A4BEA010BC64811
:101F30000068C0F80EA1C0F812B11AE0C2480068EB
:101F4000D0F80EA1D0F812B1224601210020CDE92F
:101F500013010846139916F04DFC0A46C1430AEADC
:101F6000010A2BEA020BB8480068C0F80EA1C0F8BD
:101F700012B1C4EB8411B54810F81100C0F3801001
:101F8000C8B1B1480068D0F81EA1D0F822B12246ED
:101F900001210020CDE915010846159916F02AFC0B
:101FA0004AEA000A4BEA010BA7480068C0F81EA1E4
:101FB000C0F822B11AE0A4480068D0F81EA1D0F8F9
:101FC00022B1224601210020CDE9170108461799C8
:101FD00016F010FC0A46C1430AEA010A2BEA020B7A
:101FE00099480068C0F81EA1C0F822B1C4EB841162
:101FF000964810F811000121B1EBD01F18D192487A
:102000000068D0F826A1D0F82AB122460020CDE9F8
:1020100019010846199916F0EDFB4AEA000A4BEA45
:10202000010B89480068C0F826A1C0F82AB118E061
:1020300085480068D0F826A1D0F82AB122460121AF
:102040000020CDE91B0108461B9916F0D3FB2AEAB4
:1020500000002BEA010B7C490968C1F82601C1F890
:102060002AB1C4EB8411794800EB4100407800F0BC
:102070000100C8B174480068D0F85CA0D0F860B026
:10208000224601210020CDE91D0108461D9916F0C8
:10209000B1FB4AEA000A4BEA010B6B480068C0F842
:1020A0005CA0C0F860B01AE067480068D0F85CA097
:1020B000D0F860B0224601210020CDE91F0108467A
:1020C0001F9916F097FB0A46C1430AEA010A2BEA58
:1020D000020B5D480068C0F85CA0C0F860B0C4EBBB
:1020E00084115A4800EB41004078C0F34000C8B169
:1020F00055480068D0F83CA0D0F840B022460121F5
:102100000020CDE921010846219916F073FB4AEA27
:10211000000A4BEA010B4C480068C0F83CA0C0F82C
:1021200040B01AE048480068D0F83CA0D0F840B071
:10213000224601210020CDE923010846239916F00B
:1021400059FB0A46C1430AEA010A2BEA020B3E4840
:102150000068C0F83CA0C0F840B0C4EB84113B4814
:1021600000EB41004078C0F30010C0B13648006871
:10217000D0F864B0D0F868A0224601210020CDE953
:1021800025010846259916F035FB4BEA00024AEA7C
:10219000010A2D4800684266C0F868A017E02A4886
:1021A0000068D0F864A0D0F868B022460121002071
:1021B000CDE927010846279916F01CFB2AEA000002
:1021C0002BEA010B204909684866C1F868B0C4EBE6
:1021D00084111E4800EB41004078C0F34010C0B1AC
:1021E00019480068D0F844B0D0F848A02246012130
:1021F0000020CDE929010846299916F0FBFA4BEA9F
:1022000000024AEA010A104800684264C0F848A087
:1022100017E00D480068D0F844A0D0F848B0224636
:1022200001210020CDE92B0108462B9916F0E2FA96
:102230002AEA00002BEA010B034909684864C1F847
:1022400048B0C4EB841103E048000020745400201F
:10225000FE4800EB41004078C0F38010C0B1FC485C
:102260000068D0F84CB0D0F850A0224601210020E0
:10227000CDE92D0108462D9916F0BCFA4BEA000273
:102280004AEA010AF2480068C264C0F850A017E0A8
:10229000EF480068D0F84CA0D0F850B02246012199
:1022A0000020CDE92F0108462F9916F0A3FA2AEA5B
:1022B00000002BEA010BE6490968C864C1F850B078
:1022C000C4EB8411E14800EB410040780121B1EBFF
:1022D000D01F1AD103AA02A9FE2001F033FF01206A
:1022E000234603AA00909DF808100DF05AFCD84828
:1022F000006890F8AE0020F020012031D44800683A
:1023000080F8AE100020D349087031B0BDE8F08FDE
:102310002DE9FE4F0E4614460025C4EB8411CB4830
:1023200010F81100C00900287ED1C4EB8411C74801
:1023300000EB4100711909880180A81CC5B2C4EBEB
:102340008411C24810F8110000F0010050B1705D16
:10235000C1490855681CC5B27119BF4A105D2246B3
:10236000FFF775FBBA480068D0F89CB0D0F8A0A081
:10237000224601274FF000083846414616F03AFA47
:102380000BEA00000AEA01010023584059400843C3
:1023900050D0C4EB8411AD4800EB41004078C0F34D
:1023A000800038B9C4EB8411A84810F8110000F07F
:1023B0000100D0BBA6480068D0F89CA0D0F8A0B01F
:1023C00022464FF00109002000904846009916F07F
:1023D00011FA0A46C1430AEA010A2BEA020B9C4899
:1023E0000068C0F89CA0C0F8A0B0C4EB8411974866
:1023F00000EB41004078C0F3C000B0B194480068E1
:10240000D0F8A4A0D0F8A8B0224601210020CDE940
:1024100001010846019916F0EDF94AEA000A4BEA73
:10242000010B8B48006801E007E003E0C0F8A4A0BE
:10243000C0F8A8B02046FFF755FCBDE8FE8F00218C
:10244000002000BF17E0C1EB8113804A02EB43027A
:1024500092F85020C2F380024AB9C1EB81137B4A43
:1024600002EB430292F85020C2F380120AB101201D
:1024700003E04A1CD1B23029E5DB00BF704710B53C
:10248000002473480068416B806B0022514050402B
:10249000014326D16E480068416D806D002359408C
:1024A000584001431DD16A480068C16E006F514019
:1024B0005040014315D166480068B630016D406D4B
:1024C0005140504001430CD161480068B6308168EA
:1024D000C06859405840014303D1FFF7B0FF0128BD
:1024E00000D10124204610BD2DE9F74FAEB00E46B5
:1024F00014460025002021900120209000201E90ED
:102500001F9040210EA816F068FA4FF0FF39002006
:102510000D9000274FF06048705D21906D1C6D1C80
:10252000219808287FD2DFE800F07E041B29374E6F
:102530005C6A04EB8400494901EBC0007119098809
:10254000A0F80110A81CC5B204EB8400434901EBBC
:10255000C00071190968C0F80310281DC5B262E0F7
:1025600004EB84003D4901EBC000C01C71190A68EE
:10257000426089880181A81DC5B254E004EB840043
:10258000364901EBC00071190A6840F80D2F89889F
:102590008180A81DC5B246E004EB84002F4901EB01
:1025A000C00071190988A0F81310A81CC5B204EB6B
:1025B00084002A4901EBC00071190968C0F81510A0
:1025C000281DC5B22FE004EB8400244901EBC000B4
:1025D000153071190A68426089880181A81DC5B249
:1025E00021E004EB84001D4901EBC00071190A6869
:1025F0000B30426189880183A81DC5B213E0705D6C
:1026000017490870681CC5B22E9805280AD11548CC
:1026100000EB4400711909880180A81CC5B2012093
:102620001149085500BF00BF1048015D2198401EA8
:10263000012282401143C8B20C4908550846005D8A
:102640007F2875D10020085512E000007454002046
:102650004800002034000020245300206473002030
:1026600068000020447B0020A47B002034730020FD
:1026700004EB8400FC4A02EBC000411C12220DF165
:102680003A0016F009F904EB8401F74A02EBC101A4
:10269000481C282116F07FF92F2212A9684616F04F
:1026A00040F90EA80FC802F0A7FF814609F101000A
:1026B00018B904208DF878000AE1FFF7E0FE012840
:1026C00003D102208DF8780002E1E8480078012863
:1026D00002D0022857D152E01FFA89F1032004F0FA
:1026E000DBF8401C90B901208DF8780022460121CA
:1026F0000020CDE922010846229916F07BF8DC4B38
:102700000CCB10431943DA4A03C237E01FFA89F1B0
:10271000032004F0A4F90D901FFA89F1032004F0BE
:10272000BBF80D99884204DC02208DF8780025E082
:10273000DEE001208DF87800CE4830F81400CE4954
:1027400031F81410884202D1CC48005DB0B9CA48B3
:1027500030F81400C74921F814000D98401C80B2CD
:102760000D904FF6FF710D98884201D101200D9018
:102770001FFA89F203200D9903F0CDFF03E0012039
:102780008DF8780000BF00BF9DF8780001287DD14A
:10279000B6480078012802D002281CD10DE0B848C4
:1027A00000682C30016F406FB94320EA0800B44A3A
:1027B00012682C32116750670DE0B14801682C3166
:1027C000086F496F384341EA0801AD4A12682C325C
:1027D0001067516700BF00BFA9480068D0F89CA0EF
:1027E000D0F8A0B0224601210020CDE92C010846F6
:1027F0002C9915F0FFFF4AEA000A4BEA010BA048AA
:102800000068C0F89CA0C0F8A0B09D480068D0F84F
:10281000A4A0D0F8A8B0224601210020CDE92A01C9
:1028200008462A9915F0E6FF0A46C1430AEA010A5A
:102830002BEA020B92480068C0F8A4A0C0F8A8B028
:10284000224601210020CDE928010846289915F0EB
:10285000D1FF0A46C143D0438A4AD2E90032194027
:102860001040884AC2E9001085480068D0F8F6A0F8
:10287000D0F8FAB0224601210020CDE92601084611
:10288000269915F0B7FF2AEA000000E020E02BEAC5
:10289000010B7B490968C1F8F600C1F8FAB0784825
:1028A0000068D0F8FEA0D0F802B122460121002035
:1028B000CDE924010846249915F09CFF2AEA00007E
:1028C0002BEA010B6E490968C1F8FE00C1F802B19C
:1028D000002066490870684921F8140067490855C6
:1028E000022023461EAA0090012020990DF059F9DC
:1028F00031B0BDE8F08F2DE9F04F89B00E46144697
:10290000002500200190705D01909DF8040000F00A
:10291000010060B1C4EB84115B4810F8110020F095
:102920000100401CC4EB8412574901F812009DF8C5
:102930000400C0F3400000284ED051480068D0F891
:102940007CA0D0F880B0224601274FF0000838461E
:10295000414615F04FFF0A46C1430AEA010A2BEA35
:10296000020B47480068C0F87CA0C0F880B044481B
:102970000068D0F88CA0D0F890B02246B94600206C
:1029800004904846049915F035FF0A46C1430AEA07
:10299000010A2BEA020B3A480068C0F88CA0C0F884
:1029A00090B037480068D0F8E6A0D0F8EAB02246E8
:1029B00001210020CDE902010846029915F01AFF15
:1029C000C243C8430AEA02010BEA000B2C48006824
:1029D000C0F8E610C0F8EAB09DF80400C0F380002B
:1029E00018B100202949085514E09DF80400C0F3EF
:1029F000C00018B10120254908550BE09DF80400DE
:102A0000C0F3001018B102202049085502E0002050
:102A10001E490855681CC5B2C4EB84111A4810F849
:102A2000110000F0010098B3715DC4EB84121648E8
:102A300000EB42008172681CC5B2C4EB84111248DD
:102A400000EB410071190988A0F80B10A81CC5B251
:102A5000C4EB84110C4800EB410071190988A0F8FF
:102A60000D10A81CC5B21FE0647300206800002090
:102A700050000020E47A0020447B0020A47B00204A
:102A800048000020A001002074540020047300209E
:102A9000FFE7C4EB8411FC4800EB41000021C0F8C3
:102AA0000A108173681DC5B203F09DF9C4EB84124E
:102AB000F54901EB4201B1F80D10884218DCF348EA
:102AC0000068D0F86CA0D0F870B022460121002038
:102AD000CDE905010846059915F08CFE4AEA000A81
:102AE0004BEA0100E9490968C1F86CA008671AE0DF
:102AF000E6480068D0F86CA0D0F870B022460121FA
:102B00000020CDE907010846079915F073FE0A4633
:102B1000C1430AEA010A2BEA020BDC480068C0F84C
:102B20006CA0C0F870B0C4EB8411D74800EB410032
:102B300071190988A0F80F10A81CC5B209B0BDE82A
:102B4000F08F2DE9F04106460F4615460024A046B9
:102B5000C5EB8511CC4810F8110020F00100401C95
:102B6000C5EB8512C84901F81200152F74D2DFE8B1
:102B700007F0730B3F6A6B6C6D6E6F898A8BA5C70C
:102B8000F0EEEDECEBEAE900C5EB8511BE4800EB99
:102B9000410031190988A0F81110A01CC4B2C5EB7E
:102BA0008511B94800EB410031190988A0F81310CC
:102BB000A01CC4B2315DC5EB8512B34800EB4200E6
:102BC00080F84A10601CC4B2315DC5EB8512AE4876
:102BD00000EB420080F86010601CC4B2C5EB8511A8
:102BE000A94800EB410090F86000A94948557AE1F6
:102BF000C5EB8511A44800EB410031190988A0F804
:102C00005010A01CC4B2315DC5EB85129E4800EB8C
:102C1000420080F85210601CC4B2315DC5EB8512D1
:102C2000994800EB420080F83910601CC4B2C5EB33
:102C30008511954800EB410031190988A0F84B1027
:102C4000A01CC4B24FE100BF00BF00BF00BF00BF67
:102C5000082F02D0062001E044E102208046C5EBA7
:102C60008513894A02EB43021932FB1E03EB43032F
:102C700002EB43003119424615F00EFE04EB08004A
:102C8000C4B230E100BF00BF0B2F01D0062000E02E
:102C900004208046C5EB85137B4A02EB43023A329F
:102CA000A7F1090303EB430302EB4300311942464A
:102CB00015F0F2FD04EB0800C4B214E1C5EB851178
:102CC000714800EB410031190988A0F85810A01C88
:102CD000C4B2C5EB85116C4800EB4100311909887D
:102CE000A0F85A10A01CC4B2C5EB8511664800EBD1
:102CF000410031190988A0F85C10A01CC4B2F2E0B0
:102D0000C5EB8511604800EB410031190988A0F836
:102D10001710A01CC4B2C5EB85115B4800EB410045
:102D200031190988A0F81510A01CC4B2C5EB851193
:102D3000554800EB410031190988A0F86510A01C26
:102D4000C4B2D0E0C2E0B3E0A4E08EE06EE042E0C6
:102D5000FFE7305D41B2C5EB85124B4800EB420006
:102D600080F85410601CC4B2305D41B2C5EB8512CE
:102D7000454800EB420080F85510601CC4B2305D3D
:102D800041B2C5EB8512404800EB420080F8561076
:102D9000601CC4B2305D41B2C5EB85123A4800EB0D
:102DA000420080F85710601CC4B2305D41B2C5EBE0
:102DB0008512354800EB420080F85E10601CC4B2FA
:102DC000315DC5EB8512304800EB420080F84F10B2
:102DD000601CC4B287E0C5EB85112B4800EB4100B5
:102DE00031190988A0F86110A01CC4B2C5EB851187
:102DF000254800EB410031190988A0F86310A01C98
:102E0000C4B2315DC5EB85121F4800EB420080F86B
:102E10005F10601CC4B2315DC5EB85121A4800EB2F
:102E2000420080F86710601CC4B25CE0315DC5EB05
:102E30008512154800EB420080F84D10601CC4B2AA
:102E4000315DC5EB8512104800EB420080F84E1052
:102E5000601CC4B2315DC5EB85120B4800EB42002B
:102E600080F85310601CC4B23DE0C5EB85110648E4
:102E700000EB410031190A6882668988A0F86C105D
:102E8000A01DC4B22FE000007454002048000020B0
:102E900024530020C5EB8511FE4800EB4100311999
:102EA0000A6840F86E2F89888180A01DC4B21AE09C
:102EB000C5EB8511F74800EB4100683031190A680D
:102EC000C26089880182A01DC4B20CE0C5EB8511E7
:102ED000F04800EB410031190968C0F87A10A01DD4
:102EE000C4B200E000BF00BFBDE8F0812DE9F041B1
:102EF00004460E4617461D46092C13D2DFE804F09F
:102F00001205060708090A0B0C0000BF00BF00BF2E
:102F100000BF00BF00BF00BF2A4639463046FFF75A
:102F200010FE0AE0C5EB8512DA4901EB420101F11E
:102F300011006D2115F02FFD00BF00BFBDE8F0812D
:102F40002DE9F04180460D461646002700242F5DEE
:102F5000641C641C2919D04A905D33463A46FFF739
:102F6000C5FFBDE8F0817CB506460C460025002073
:102F70000190CAA00068009001A930460BF0E3FF61
:102F80000546C4EB8412C34901EB4201881D30227F
:102F9000042115F0F8FCC4EB8412BE4901EB420198
:102FA000891DC5F1040288182A4601A915F074FC90
:102FB000C4EB8411B74800EB41000099C0F802103F
:102FC0007CBD2DE9F04107468846002400BF14E08F
:102FD00004EB4401B048303000EB41004079012857
:102FE00009D12246012500262846314615F002FC6B
:102FF000074341EA0808601CC4B2302CE8DB3846BD
:103000004146BDE8F0812DE9F04F85B080460F467E
:103010001646002002900190002500240090814671
:103020007C5D6D1C9E480078844215D09C480470DD
:1030300000219C4A116051609B4A1160516000BFA1
:1030400007E04946002001F06BFD09F1010000F0A6
:10305000FF09B9F1300FF4DB781900880190A81C42
:10306000C5B2A8EB0500002878DD785D012804D002
:10307000022865D0042864D100E000BF32464FF03A
:10308000010A002003905046039915F0B3FB854BCD
:103090000CCB10431943834A03C2824903C9FFF78B
:1030A00090FF804A03C2012C22DB02F0A1FA401CEF
:1030B000A0421DDD601E81B2032003F0BAFD01288D
:1030C00012D17848D0E900104FF6FF72504070EAF4
:1030D00001010DD10020734A10605060601E82B261
:1030E000032003F097FD03E000216E4A1160516058
:1030F000802C24DB02F0C2FA8030A0421FDDA4F154
:10310000800081B2042003F094FD012813D16548AA
:10311000D0E900104FF6FF73584070EA01010ED15C
:103120000020604A10605060A4F1800082B2042048
:1031300003F070FD03E000215A4A1160516000E085
:1031400000BF00BF681CC5B2A8EB0500002862DD07
:10315000785D012803D002285CD15AE06BE032464A
:103160004FF0010B002004905846049915F042FBE3
:103170004D4B0CCB104319434B4A03C2012C21DBAE
:1031800002F036FA401CA0421CDD601E81B2032012
:1031900003F06EFD012811D14348D0E900104FF62D
:1031A000FF72504070EA01010CD13F4A116051603A
:1031B000601E82B2032003F04CFD03E000203A4A77
:1031C00010605060802C23DB02F058FA8030A0425F
:1031D0001EDDA4F1800081B2042003F049FD012826
:1031E00012D1314903C94FF6FF72514071EA000014
:1031F0000ED12D4A10605060A4F1800082B20021EF
:10320000042003F026FD03E00020274A10605060F0
:1032100000E000BF00BF681CC5B2A8EB0500002895
:1032200009DD781900880090A81CC5B23146BDF8A8
:10323000000001F075FC24B93146BDF80400FFF729
:1032400092FE1A480078A04204D1BDF80400184943
:1032500021F81600304601F056FC0290BDF804102B
:103260000298884204D03146BDF8040001F052FCB7
:10327000802C02DBA4F15C00C4B2BDF8041004EBA6
:1032800044020C48006800F2CF1000EB421000EB43
:10329000460011E0745400202453002030323030B6
:1032A000690000207000002078000020DE0000206F
:1032B00048B4002048000020018005B0BDE8F08F30
:1032C0002DE9F041044604EB840000EB4410F8497A
:1032D000085C00F00100B0B1F6480068D0F8B68094
:1032E000D0F8BA702246012500262846314615F04E
:1032F00081FA48EA000247EA0103EE4800688A3092
:10330000C262036317E0EB480068D0F8B670D0F8EB
:10331000BA802246012500262846314615F06AFA71
:103320000A46C1430F4028EA0208E2480068C0F894
:10333000B670C0F8BA8004EB840000EB4410DC499E
:10334000085CC0F34000B0B1DA480068D0F8BE8035
:10335000D0F8C2702246012500262846314615F0D5
:1033600049FA48EA000247EA0103D2480068B63049
:103370008260C36016E0CF480068D0F8BE70D0F815
:10338000C2802246012500262846314615F032FA31
:1033900027EA000028EA0108C6490968C1F8BE000A
:1033A000C1F8C28004EB840000EB4410C049085C03
:1033B000C0F38000B0B1BF480068D0F8C680D0F834
:1033C000CA702246012500262846314615F012FA19
:1033D00048EA000247EA0103B6480068B6300261D5
:1033E000436115E0B3480068D0F8C670D0F8CA80D1
:1033F0002246012500262846314615F0FBF927EA2A
:10340000000028EA0102AB490968B63108614A6147
:1034100004EB840000EB4410A549085CC0F3C00035
:10342000B0B1A4480068D0F8CE80D0F8D27022465F
:10343000012500262846314615F0DCF948EA00024D
:1034400047EA01039B480068B6308261C36117E018
:1034500098480068D0F8CE70D0F8D2802246012576
:1034600000262846314615F0C5F90A46C1430F40EB
:1034700028EA02088F480068C0F8CE70C0F8D280F1
:1034800004EB840000EB44108949085CC0F3001091
:10349000B0B188480068D0F8D680D0F8DA702246FB
:1034A000012500262846314615F0A4F948EA000215
:1034B00047EA01037F480068B6300262436214E0C5
:1034C0007C480068D0F8D680D0F8DA702246012512
:1034D00000262846314615F08DF928EA00008F4372
:1034E00074490968B63108624F6204EB840000EB4E
:1034F00044106F49085CC0F34010B0B16D480068DB
:10350000D0F8DE80D0F8E270224601250026284659
:10351000314615F06FF948EA000347EA01026548B1
:103520000068B6308362C26216E062480068D0F874
:10353000DE70D0F8E280224601250026284631467A
:1035400015F058F927EA000028EA010859490968E6
:10355000C1F8DE00C1F8E28004EB840000EB441007
:103560005349085CC0F38010B0B152480068D0F8ED
:103570000681D0F80A7122460125002628463146E8
:1035800015F038F948EA000247EA010349480068A3
:10359000B6300265436515E046480068D0F806710C
:1035A000D0F80A812246012500262846314615F02A
:1035B00021F927EA000028EA01023E490968B631EC
:1035C00008654A653B480068D0F8F680D0F8FA7084
:1035D0002246012500262846314615F00BF908EA57
:1035E000000207EA010000235A405840024347D036
:1035F00004EB840000EB44102D4908444078C0F3EC
:10360000801038B904EB840000EB4410085C00F033
:103610000100A8BB27480068D0F8F670D0F8FA80FF
:103620002246012500262846314615F0E3F827EA10
:10363000000028EA01081F490968C1F8F600C1F82E
:10364000FA8004EB840000EB4410194908444078E8
:103650000121B1EBD01F13D116480068D0F8FE80CD
:10366000D0F8027122462846314615F0C3F848EAE0
:10367000000347EA01020F480068B6308364C26461
:10368000BDE8F0812DE9F04107460D4614460026BD
:1036900004EB840000EB441005490844A91909888B
:1036A000018000BF2046FFF70BFEBDE8F08100005F
:1036B000146C0020480000202DE9F74FAEB00E46F4
:1036C00014460025002021900120209000201E900B
:1036D0001F9040210EA815F080F94FF0FF3900200F
:1036E0000D9000274FF06048705D21906D1C6D1C9F
:1036F000219808287FD2DFE800F07E041B29374E8E
:103700005C6A04EB8400FB4901EBC0007119098875
:10371000A0F80110A81CC5B204EB8400F54901EB28
:10372000C00071190968C0F80310281DC5B262E015
:1037300004EB8400EF4901EBC000C01C71190A685A
:10374000426089880181A81DC5B254E004EB840061
:10375000E84901EBC00071190A6840F80D2F89880B
:103760008180A81DC5B246E004EB8400E14901EB6D
:10377000C00071190988A0F81310A81CC5B204EB89
:103780008400DC4901EBC00071190968C0F815100C
:10379000281DC5B22FE004EB8400D64901EBC00020
:1037A000153071190A68426089880181A81DC5B267
:1037B00021E004EB8400CF4901EBC00071190A68D5
:1037C0000B30426189880183A81DC5B213E0705D8A
:1037D000C9490870681CC5B22E9805280AD1C74887
:1037E00000EB4400711909880180A81CC5B20120B2
:1037F000C349085500BF00BFC248015D2198401E63
:10380000012282401143C8B2BE4908550846005DF6
:103810007F287CD10020085504EB8400B54A02EBD8
:10382000C000411C12220DF13A0015F035F804EBEE
:103830008401B04A02EBC101481C282115F0ABF805
:103840002F2212A9684615F06CF80EA80FC802F0D6
:103850000DF9814609F1010018B902208DF87800B0
:1038600008E1FEF70CFE012803D104208DF8780052
:1038700000E1A1480078012802D0022853D14EE08F
:103880001FFA89F1042003F007F8401C98B90120C1
:103890008DF87800224601210020CDE9220108465A
:1038A000229914F0A7FF984AD2E900321843114335
:1038B000954A03C232E01FFA89F1042003F0CFF8E1
:1038C0000D901FFA89F1042002F0E6FF0D9988425D
:1038D00003DC02208DF8780020E001208DF87800CC
:1038E0008A4830F81400854931F81410884202D112
:1038F0008348005D90B90D98401C80B20D904FF642
:10390000FF710D98884201D101200D9000E0C1E0C7
:103910001FFA89F204200D9902F0FDFE03E0012058
:103920008DF8780000BF00BF9DF87800012897D17E
:1039300071480078012802D0022820D10FE0744895
:10394000006800F1B601D0F8F600496CB84321EAEE
:1039500008026F490968B63108644A640FE06C4890
:10396000006800F1B601D0F8F600496C384341EA2E
:10397000080267490968B63108644A6400BF00BF9D
:1039800063480068D0F8F6B0D0F8FAA022460121CA
:103990000020CDE92C0108462C9914F02BFF4BEAAE
:1039A00000024AEA010A5A480068C0F8F620C0F846
:1039B000FAA057480068D0F8FEA0D0F802B122461D
:1039C00001210020CDE92A0108462A9914F012FFAE
:1039D0002AEA00002BEA010B4D490968C1F8FE00F4
:1039E000C1F802B1224601210020CDE92801084694
:1039F000289914F0FFFE0A46C143D043454AD2E954
:103A0000003219401040434AC2E9001040480068A3
:103A1000D0F89CA0D0F8A0B0224601210020CDE92A
:103A200026010846269914F0E5FE0A46C1430AEA33
:103A3000010A2BEA020B36480068C0F89CA0C0F8C7
:103A4000A0B033480068D0F8A4A0D0F8A8B02246AF
:103A500001210020CDE924010846249914F0CAFE72
:103A60002AEA00002BEA010B29490968C1F8A400E1
:103A7000C1F8A8B0002020490870204921F814009E
:103A80001F490855052023461EAA009001202099B1
:103A90000CF087F831B0BDE8F08FF0B50546002096
:103AA00000230B5C401C401C012B02D0022B1ED1BA
:103AB0000EE002EB820404EB4214174E34440E185D
:103AC0003768C4F81A70B688E683841DE0B20EE049
:103AD00002EB820404EB42140F4E34440E18376894
:103AE0002762367984F82460441DE0B200BF00BF2D
:103AF000F0BD0000047C002080000020E483002052
:103B000044840020D47B00205800002084830020BF
:103B100048000020A0010020146C00202DE9FE4F79
:103B20000E46144600250027AA464FF0010BFB491C
:103B300003C9CDE90101775D6D1C6D1C062F3BD2D9
:103B4000DFE807F03A03121E1F2004EB840000EBAD
:103B50004410F349084471190A68C0F802208988A2
:103B6000C180A81DC5B227E004EB840000EB44101F
:103B7000EB490844711909880181A81CC5B21BE0F2
:103B800000BF00BF052F01D1042000E006208246BF
:103B900004EB840202EB4412E14B1A440A32FB1E8E
:103BA00003EB430302EB43007119524614F074FE19
:103BB00005EB0A00C5B200BF00BFDA48005D791E00
:103BC00001228A401043D74908550846005D1F2846
:103BD00018D100200855A020234601AA594600907C
:103BE00001200BF0DEFF22464FF001084FF00009E4
:103BF0004046494614F0FEFDCB4B0CCB1043194315
:103C0000C94A03C2BDE8FE8F2DE9F74FAAB00E46A0
:103C100014460025AA4601202690002024902590D5
:103C20008146402114A814F0D8FE6F1EA84600203B
:103C3000139016F805A06D1C6D1CBAF1080F1BD26D
:103C4000DFE80AF095041B29374E5C6A04EB840018
:103C5000B64901EBC00071190988A0F80110A81C31
:103C6000C5B204EB8400B14901EBC00071190968C9
:103C7000C0F80310281DC5B279E004EB8400AB49FD
:103C800001EBC000C01C71190A684260898801817B
:103C9000A81DC5B26BE004EB8400A44901EBC00091
:103CA00071190A6840F80D2F89888180A81DC5B256
:103CB0005DE004EB84009D4901EBC00071190988A7
:103CC000A0F81310A81CC5B204EB8400974901EBBF
:103CD000C00071190968C0F81510281DC5B246E06A
:103CE00004EB8400914901EBC000153071190A689A
:103CF000426089880181A81DC5B238E004EB8400C8
:103D00008A4901EBC00071190A680B304261898849
:103D10000183A81DC5B22AE0705D04EB8401834ACB
:103D200002F83100681CC5B204EB8400114601EBB7
:103D3000C00071190988A0F82510A81CC5B2705DD3
:103D400004EB840102EBC10181F82700681CC5B2B5
:103D50002A9808280AD1764800EB4400711909888E
:103D60000180A81CC5B201207249085500BF00BFE0
:103D70007148005DAAF1010101228A4010436E4999
:103D800008550846005D7F2873D10020085504EBD4
:103D90008400664A02EBC000411C12220DF1520061
:103DA00014F07AFD04EB8400604901EBC000C07898
:103DB00041280BD14FF003092F2218A9684614F0AF
:103DC000B0FD14A80FC801F017FC074604EB8400EF
:103DD000564901EBC000C07843280BD14FF00409CD
:103DE0002F2218A9684614F09CFD14A80FC801F0F2
:103DF0003DFE0746B9B2484602F04EFD401CF0B108
:103E00000120A040C1174D4B0CCB1040194000239E
:103E100058405940084302D0B9F1030F0FD0012098
:103E2000A040C117464AD2E9003218401140002391
:103E30005840594008434BD0B9F1040F48D1781C81
:103E4000F0B304EB8400394901EBC00090F827007F
:103E500001283DD1032004EB8401344A02EBC10167
:103E600081F82700B9F1030F04D0B9F1040F2ED166
:103E700014E0DBE022464FF0010B0020279058466B
:103E8000279914F0B7FC2D4BD3E9002C134623EAF5
:103E900000002CEA0101294A03C218E02246012150
:103EA0000020CDE928010846289914F0A3FC0A4611
:103EB000C143D043224BD3E9002C1346194000E004
:103EC00006E000EA0C001E4AC2E9001000BF00BF75
:103ED0001C4830F81400164931F81410884202D1F9
:103EE0001448005D80BB04EB8400104A02EBC00064
:103EF00000F10C011C226846079414F012FD04EB3B
:103F000084000A4A02EBC001282209A814F009FD26
:103F1000484609A90EC90AF090FB19E0309A050835
:103F2000146C00207484002090000020D4840020B1
:103F3000B48C0020148D0020A484002050000020A8
:103F400058000020548C0020FFE7012048490870E9
:103F500004EB8400474901EBC00090F827000128DA
:103F600004D0022803D0032840D13EE03EE0781C74
:103F700028B3414830F81400404931F81410884201
:103F800002D13F48005DD0B904EB8400394911F8F3
:103F90003000FF2814D1B9B2484602F08EFE8046A8
:103FA00008F101001FFA80F84FF6FF70804501D13B
:103FB0004FF00108BAB24146484602F069FE13E0EC
:103FC000B9B2484602F09FFE804608F101001FFA90
:103FD00080F84FF6FF70804501D14FF00108BAB26A
:103FE0004146484602F07CFE00E000BF00BF234887
:103FF00030F81400204921F8140004EB84011D4A14
:1040000002EBC100282114F0E8FC00201B4921F834
:1040100014001B4908559DF84C0038B9062023466A
:1040200024AA0090012026990BF0BBFD2DB0BDE81D
:10403000F08FFDF701FD4FF4FA600AF0CDFE00BFEE
:104040000AF058FAFDF79EFDFDF738FD0BF07AFFF8
:104050000CF0A4F90A200AF0BFFEF1E710B5042322
:10406000084A0021AFF235000BF062FD10BD0000E0
:1040700060000020D4840020548C0020B48C0020E8
:10408000148D00202053002010B5FCF725F9FE49BF
:10409000086000F02FFDFD49086000F02DFD10BD07
:1040A0002DE9FC5F044600200090F7480068D0F836
:1040B0007CB0D0F880A02246012500262846314653
:1040C00014F098FB0BEA00000AEA01034FF0000C21
:1040D00080EA0C0083EA0C03184330D1EA480068F8
:1040E000D0F88CB0D0F890A0224601274FF00008FD
:1040F0003846414614F07EFB0BEA00020AEA01034F
:1041000000214A404B401A4319D1DF480068D0F8DB
:10411000E6B0D0F8EAA022464FF001090020019055
:104120004846019914F066FB0BEA00020AEA010313
:1041300000214A404B401A4301D1012000900098D1
:10414000BDE8FC9F2DE9FE4306460F4615460024B8
:1041500001F0CDFD804601F0C6FE029001F043FE65
:10416000019000200090C8480068B0F8AD004DF202
:104170008F31084000902819BDF800100180A41C60
:1041800005F80480641C2819BDF808100180A41CDF
:104190002819BDF804100180A41C2E55641C3C7025
:1041A000BDE8FE832DE9F04F95B000200490029009
:1041B0000390B7480078FFF773FF01280ED102AAD9
:1041C00004A90020FFF7BEFF01200090B04803784B
:1041D00002AA9DF8101001200BF0E3FCAC48007817
:1041E00000EB4001AB4800EB41000079401CC1B23C
:1041F000A748007800EB4002A64800EB420001719E
:10420000A349097801EB4102A24901EB42004EF6B5
:1042100060210AF0C9FD01287ED19D48007800EB9D
:1042200040019C4800EB410000790A2874DB0A2118
:104230009748007800EB4002964800EB420001717D
:1042400091480068D0F87CB0D0F880A090480278FF
:10425000012400252046294614F0CCFA0BEA00027E
:104260000AEA010300214A404B401A437ED1012152
:104270008748007800EB4002864800EB420041711D
:1042800081480068D0F87CB0D0F880A080480278DF
:10429000012600273046394614F0ACFA2BEA00001C
:1042A0002AEA010A78490968C867C1F880A07648F7
:1042B0000068D0F884B0D0F888A075480278A0468D
:1042C0004FF000094046494614F094FAC343CA43EC
:1042D0000BEA03010AEA02006B4A12682C3291656C
:1042E000D06569480068D0F88CA0D0F890B06848D4
:1042F000027801210020CDE913010846139914F03A
:1043000079FA0A46C1430AEA010A2BEA020B5E481F
:104310000068C0F88CA000E0E6E0C0F890B05A4811
:104320000068D0F894A0D0F898B0594802780121DC
:104330000020CDE911010846119914F05BFA0A46F4
:10434000C1430AEA010A2BEA020B4F480068C0F891
:1043500094A0C0F898B04C480068D0F8E6A0D0F817
:10436000EAB04B4802780121002000E0A1E0CDE94D
:104370000F0108460F9914F03DFA2AEA00002BEAD3
:10438000010B41490968C1F8E600C1F8EAB03E48AE
:104390000068D0F8EEA0D0F8F2B03D4802780121D4
:1043A0000020CDE90D0108460D9914F023FA2AEA00
:1043B00000002BEA010B34490968C1F8EE00C1F88E
:1043C000F2B031480068D0F89CA0D0F8A0B03048D6
:1043D000027801210020CDE90B0108460B9914F069
:1043E00009FA0A46C1430AEA010A2BEA020B2648E7
:1043F0000068C0F89CA0C0F8A0B023480068D0F8BE
:10440000A4A0D0F8A8B02248027801210020CDE96C
:1044100009010846099914F0EDF90A46C1430AEA70
:10442000010A2BEA020B18480068C0F8A4A0C0F8E3
:10443000A8B015480068D0F8F6A0D0F8FAB0144833
:10444000027801210020CDE907010846079914F000
:10445000D1F9C243C8430AEA02010BEA000B0A4839
:104460000068C0F8F610C0F8FAB007480068D0F845
:10447000FEA0D0F802B10648027801210020CDE963
:1044800005010846059907E0880000208C000020FF
:10449000980000205453002014F0ACF92AEA0000E0
:1044A0002BEA010BFE490968C1F8FE00C1F802B110
:1044B0001AE0FC49097801EB4102FB4901EB42009B
:1044C00000210AF071FC0021F648007800EB400260
:1044D000F54800EB42000171F248007800EB400221
:1044E000F14800EB42004171EE480078401CED4974
:1044F000087008460078302801D10020087015B0F7
:10450000BDE8F08F70B505460E460024FDF7B7FFF5
:10451000012803D1285D40F001002855601CC4B279
:1045200001F08EFD2855601CC4B202F026FC28550F
:10453000601CC4B202F09CFC2855601CC4B202F09E
:1045400016FD2855601CC4B2347070BD1FB5002024
:1045500003900190029003A901A8FFF7D3FF032065
:104560000090D248037801AA9DF80C1001200BF0AE
:1045700018FBCE480078401CCC49087008460078EB
:10458000302801D1002008701FBD3EB50125002054
:10459000019002900024C64804781AE0C4EB84110C
:1045A000C44810F8110000F0010080B1C048047048
:1045B0000078FFF775FD012808D180200090BC48E5
:1045C000037801AA294601200BF0EBFA03E0601CF6
:1045D000C4B2302CE2DB00BFB5480078401CB449BF
:1045E000087008460078302801D1002008703EBDD0
:1045F0003EB50124002001900290AF480078FFF7FB
:104600004FFD012808D104200090AB48037801AA8F
:10461000214601200BF0C5FAA7480078401CA649A6
:10462000087008460078302801D1002008703EBD8F
:104630003EB50124002001900290A0480078FFF7C9
:104640002FFD012813D19D48007800EB800101EB7C
:1046500040109B49085C00F0010040B190200090A0
:104660009648037801AA214601200BF09AFA934854
:104670000078401C9149087008460078302801D124
:10468000002008703EBDFEB501268E4903C9CDE964
:1046900001018D480078FFF703FD012824D18A48E5
:1046A0000278012400252046294614F0A3F8874B00
:1046B0000CCB10401940002358405940084313D1F7
:1046C0008148007800EB800101EB40107C49085CD8
:1046D00000F0010040B1A02000907B48037801AABF
:1046E000314601200BF05DFA77480078401C76498E
:1046F000087008460078302801D100200870FEBDFF
:10470000F0B5A1B0044600250026402111A814F000
:1047100064F900271CB96E48006846881BE0802CAD
:104720000DDBA4F1800081B201A801F081F84022E4
:1047300001A911A814F0F5F8BDF858600BE0601E4F
:1047400081B201A800F030FD402201A911A814F0A7
:10475000E8F8BDF8586000252AE0FCF741FF28BBC7
:104760004F48006890F8AF0000F00100F0B95948D8
:104770000078D8B905EB45014B4800EB4100407982
:10478000A0B953480068001D00EB45000088B04206
:104790000CD05EB14E480068643000EB45000088E4
:1047A0004FF6FF71884201D0012703E0681CC5B2B3
:1047B000302DD2DB00BF384621B0F0BD2DE9F041ED
:1047C00007460E461446002574556D1C0020705592
:1047D000012C0DDB00F00CFF401CA04208DD601E28
:1047E00081B2032002F025FA012801D1FE20705584
:1047F000802C0EDB00F042FF8030A04209DDA4F1E6
:10480000800081B2042002F014FA012801D1FE20B8
:104810007055681CC5B200207055012C0DDB00F0EE
:10482000E7FE401CA04208DD601E81B2032002F0BA
:104830001FFA012801D1EE207055802C0EDB00F00C
:104840001DFF8030A04209DDA4F1800081B2042068
:1048500002F00EFA012801D1EE207055681CC5B295
:104860003D70BDE8F08100B5A3B0002022902090FB
:104870002190402110A814F0B0F8174800780028C3
:104880007ED14FF4C87115480AF08EFA0128F7D18D
:10489000002112480AF088FA11480178007821E0D6
:1048A0008800002098000020545300209900002028
:1048B0009A000020745400209B0000209C000020DF
:1048C000146C0020389A05089D00002090000020FC
:1048D0008C000020340000209F000020A000002059
:1048E000A4000020401C794A1070052958DB0020E4
:1048F0001146087076480078FFF702FF012834D18E
:104900007348007840B9684600F013F940226946C0
:1049100010A814F006F81CE06D48007880280CDB25
:104920006B480078803881B2684600F081FF4022F1
:10493000694610A813F0F5FF0BE065480078401EAB
:1049400081B2684600F030FC4022694610A813F09E
:10495000E8FF02208DF840002F2214A9684613F0CA
:10496000E0FF10A80FC807F0A2F859480078401CD3
:104970005749087000F03CFE401C5549097800E09A
:1049800030E0884202D180205149087000F076FE64
:1049900080304F490978884202DC00204C49087079
:1049A00000F026FE401C4A49097888420ADC484843
:1049B0000078802816DB00F061FE803044490978D9
:1049C00088420FDD4248027820A922A8FFF7F6FEB0
:1049D000F42000903F48037820AA9DF88810012019
:1049E0000BF0DFF823B000BD90B0202108A813F031
:1049F000F4FFFFF749FB4FF4FA600AF0EDF900BF4E
:104A00000A2135480AF0D0F9012812D10021324894
:104A10000AF0CAF9684603F0E2F92022694608A8BC
:104A200013F07FFF9DF8210008B9FFF71CFFFFF787
:104A3000B9FB322129480AF0B7F9012805D1002134
:104A400026480AF0B1F9FFF781FD142124480AF045
:104A5000ABF9012805D1002121480AF0A5F9FFF79B
:104A6000C7FD64211F480AF09FF9012805D10021E4
:104A70001C480AF099F9FFF788FD78211A480AF0D6
:104A800093F9012805D1002117480AF08DF9FFF7A5
:104A9000CFFD322115480AF087F9012805D1002100
:104AA00012480AF081F9FFF7EEFD0BF04BFA0BF01C
:104AB00075FC05200AF090F9A2E710B505230C4A11
:104AC0000021AFF2DB000BF033F810BDA400002092
:104AD000A50000209E000020A8000020B0000020BB
:104AE000B4000020AC000020B8000020BC00002072
:104AF00040950020FE48704710B56021FC48001D1D
:104B000013F049FF10BD0146F948001D00EB4100BC
:104B100000887047F64A121D02EB41021080704770
:104B2000F34A643202EB410210807047F04800887B
:104B3000704710B504463F22EE49204613F0ACFE04
:104B400010BD2DE9F04387B00025002005900690A8
:104B5000039004900024002600278046029081469E
:104B6000019005A8011907220D200AF0A8FF03A84B
:104B7000011907220D200CF00FF905A908190521CC
:104B80000AF0B0F8804603A9081905210AF0AAF82E
:104B9000814605A8065D03A8075D641C241D05A8C1
:104BA00020440088029003A8204400880190A52E8C
:104BB0000BD1BDF80800804507D1DDF8155007225C
:104BC00005A90D200CF0D8F80EE0A52F0BD1BDF8EB
:104BD0000400814507D1DDF80D50072203A90D20FF
:104BE0000AF062FF00E00125284607B0BDE8F08327
:104BF00000B5A1B0402111A813F0EFFEFFF7A1FF0F
:104C0000BB49088001A8FFF794FF402201A911A821
:104C100013F087FEBDF85800B549488021B000BDAB
:104C200030B595B040F285141822B3A10FA813F047
:104C300078FE254617200E9000200C900D900A90CB
:104C40000B90242101A813F0C8FE00200090A84872
:104C50000088A04206D11722AD490FA813F0F0FD3D
:104C6000002861D0A248048017220FA9A84813F099
:104C700013FEA5208DF83000CDF8315005210CA889
:104C80000AF030F80090BDF80000ADF835000722BA
:104C90000CA90D200CF070F807220CA90D200AF0C9
:104CA00003FFA5208DF82800BDF83800ADF82900D5
:104CB00003210AA80AF016F80090BDF80000ADF82C
:104CC0002B0005220AA918200CF056F805220AA983
:104CD00018200AF0E9FEA5208DF80400BDF8382060
:104CE0008B490DF1050013F0D7FDBDF83800401CCD
:104CF00081B201A809F0F6FF009001A9BDF83800C3
:104D0000401C0844BDF800100180BDF83800C01CEC
:104D100082B201A921200CF02FF8BDF83820D21C56
:104D200001A921200AF0C0FE15B030BD1FB579A23F
:104D300007CA01AB07C300200090072101A809F0B2
:104D4000D1FF0090BDF80000ADF80B00092201A9C9
:104D500000200CF011F81FBD7148007870472DE954
:104D6000F04186B00020049005900290039000244A
:104D700000250026002701908046009004A8011914
:104D8000052218200AF09BFE02A80119052218200E
:104D90000CF002F804A90819032109F0A3FF074643
:104DA00002A90819032109F09DFF804604A8055DAA
:104DB00002A8065D641CA41C04A82044008801907D
:104DC00002A8204400880090A52D0DD1BDF8040054
:104DD000874209D15248BDF811100180052204A96B
:104DE00018200BF0C9FF12E0A52E0DD1BDF8000070
:104DF000804509D14A48BDF809100180052202A961
:104E000018200AF051FE02E000204549087006B063
:104E1000BDE8F08170B506460D460024FFF79CFF03
:104E20000446002C06DD1E2C04DC224638493046A0
:104E300013F032FD2C7070BD2DE9F047C4B0842111
:104E400023A813F0CAFD842102A813F0C6FD002494
:104E500000260027A04600200190814600900025F2
:104E60008246FFF779FF0546002D71DD1E2D6FDCB0
:104E7000E81C1FFA80FA23A80119524621200AF0E3
:104E80001EFE02A80119524621200BF085FF6A1C64
:104E900091B223AA101909F025FF80466A1C91B22D
:104EA00002AA101909F01EFF814623A8065D02A878
:104EB000075D601CC4B26019C4B223A820440088F6
:104EC000019002A8204400880090A52E2AD1BDF8A8
:104ED0000400804526D12A460DF18D010C4813F0BF
:104EE000DBFC524623A921200BF046FF30E00000F6
:104EF00044950020C29800204344475F4D445F42E0
:104F00005F42315F3330305F3338392E62696E0073
:104F1000A4980020A57A6C6412040100000000002F
:104F2000C0000020A52F0FD1BDF8000081450BD196
:104F30002A460DF10901FE4813F0AEFC524602A9C3
:104F400021200AF0B1FD03E02946F94813F023FDC2
:104F500044B0BDE8F08730B5ADF5097D05460C4697
:104F60004FF40372F34906A813F0DBFC142101A8E7
:104F700013F033FD1D2C08DA04EBC40006AA02EB83
:104F80004001122201A813F087FC122201A9284631
:104F900013F082FC0DF5097D30BD0FB430B595B02E
:104FA000002011901290139014900024109000256E
:104FB0000C900D900E900F9018A908A809F0C1FC54
:104FC00008A80FC8CDE90E23CDE90C0111A90819D5
:104FD0000E220CA913F060FC0E34214611A809F032
:104FE00081FE109011A82044BDF840100180A41C3F
:104FF0002F221CA9684613F094FC18A80FC807F0CC
:1050000067F80546224611A928460AF04DFDA8B2C8
:10501000224611A90BF0B0FE15B030BC5DF814FBB0
:105020000FB470B596B02A9C002012901390149083
:1050300015900025119000260D900E900F90109065
:105040009DF86900012862D09DF8690000285ED0B3
:105050009DF86900032808D1C4EB8411B64A88186A
:105060003F221AA913F018FC07E0C4EB8411B34ADD
:1050700088183F221AA913F00FFC22461AA909A882
:1050800009F0E4FC09A80FC8CDE90F23CDE90D0113
:1050900012A948190E220DA913F0FEFB05F10E000E
:1050A000C5B2294612A809F01DFE119012A8284485
:1050B000BDF844100180A81CC5B233221DA9684662
:1050C00013F02FFC20461AA90EC907F04BF806462C
:1050D0002A4612A930460AF0E7FCB0B22A4612A9C5
:1050E0000BF04AFE9DF86900032808D1C4EB841137
:1050F000914A88183F221AA913F0CEFB07E0C4EBAF
:1051000084118E4A88183F221AA913F0C5FB16B0E5
:1051100070BC5DF814FB0FB430B58DB0209C00203E
:1051200009900A900B900C9000250890049005902F
:1051300006900790E2B210A9684609F087FC9DE846
:105140000F00CDE90623CDE9040109A948190E2273
:1051500004A913F0A1FB0E35294609A809F0C2FDE8
:10516000089009A82844BDF820100180AD1C40F229
:10517000263101EB04102A4609A90AF095FC40F2F9
:10518000263101EB041188B22A4609A90BF0F4FD7F
:10519000C4EB8411694A88183F2210A913F07CFBE4
:1051A0000DB030BC5DF814FB70B505460C46C4EB81
:1051B0008410624A81183F22284613F06DFB70BDAF
:1051C000F0B5B1B000202D902E902F903090299006
:1051D0002A902B902C9000262890002727900025BD
:1051E000142122A813F0F9FB002400201E901F9028
:1051F0002090219000BFADE000252DAA511940F26A
:10520000263202EB041010220AF059FC29AA511987
:1052100040F2263202EB041010220BF0BDFD2DA946
:1052200048190E2109F05EFD064629A948190E21EC
:1052300009F058FD07460E352DA82844008828900F
:1052400029A8284400882790BDF8A00086421FD1D5
:105250002DA80FC8CDE92023CDE91E01BDF884009B
:10526000ADF800000EA81EA90EC909F057FCC4EB4A
:105270008411324A88183F220EA913F00DFB40F228
:10528000263101EB041010222DA90BF075FD5DE015
:10529000BDF89C0087421FD129A80FC8CDE9202363
:1052A000CDE91E01BDF88400ADF800000EA81EA9CE
:1052B0000EC909F033FCC4EB8411204A88183F2240
:1052C0000EA913F0E9FA40F2263101EB0410102286
:1052D00029A90AF0E9FB39E0214619A8FFF73BFEAE
:1052E000142219A922A813F01CFB0220C4EB84117C
:1052F000124A11444870C4EB84111144881C1222D4
:1053000022A913F0C9FABDF88800F8B1C4EB8410E3
:105310000A4A104400F110012F2268460C9413F041
:10532000BBFAC4EB8410054A81183F220EA807E09F
:10533000A4980020409A05089EA100200199002011
:1053400013F0AAFA0EA80FC8FFF7E5FE0BF026F837
:10535000601CC4B2F748B0F8CF00A0423FF74CAF92
:1053600031B0F0BD70B5B0B0402120A813F035FBCE
:1053700000201C901D901E901F90189019901A905C
:105380001B90002400251790002616901290139071
:10539000149015901CA80119102240F216300AF042
:1053A0008EFB18A80119102240F216300BF0F4FC05
:1053B0001CA908190E2109F095FC054618A9081921
:1053C0000E2109F08FFC06460E341CA820440088EC
:1053D000179018A8204400881690BDF85C008542FC
:1053E0001AD11CA80FC8CDE91423CDE91201BDF8CC
:1053F0005400ADF8000002A812A90EC909F08EFBF6
:105400003F2202A9CC4813F047FA10221CA940F20F
:1054100016300BF0B1FC2EE0BDF8580086421AD1D0
:1054200018A80FC8CDE91423CDE91201BDF8540026
:10543000ADF8000002A812A90EC909F06FFB3F22C7
:1054400002A9BD4813F028FA102218A940F216301C
:105450000AF02AFB0FE001208DF881004FF49670CE
:10546000ADF882002F2224A9684613F05AFA20A82A
:105470000FC8FFF792FD30B070BD11B583B00020AA
:10548000029001900024BDF80C00AA49A1F8CF00B9
:1054900002A82044BDF80C100180A41C022102A81F
:1054A00009F020FC019002A82044BDF804100180FE
:1054B000A41C042202A940F2F1200AF0F5FA042209
:1054C00002A940F2F1200BF057FC1FBD10B5A2B0AD
:1054D000402112A813F081FA002414210DA813F022
:1054E0007CFA02208DF8490000BF1DE0214608A883
:1054F000FFF731FD142208A90DA813F012FA1222A9
:105500000DA90DF14A0013F0C7F9E0B22F2216A938
:105510000C90684613F005FA12A80FC8FFF780FD3B
:105520000AF03CFF601C84B21D2CDFDB22B010BDF2
:1055300070B586B0002005900490039000240025EB
:1055400002900026019004A80119042240F2F120E3
:105550000AF0B5FA03A80119042240F2F1200BF079
:105560001BFC04A90819022109F0BCFB054603A98C
:105570000819022109F0B6FB0646A41C04A8204421
:105580000088029003A8204400880190BDF808001C
:10559000854208D104980590042204A940F2F12024
:1055A0000BF0EAFB13E0BDF80400864208D1039833
:1055B0000590042203A940F2F1200AF075FA06E0F2
:1055C0001D200590FFF782FF1D20FFF756FFBDF855
:1055D00014001D2803D01D200590FFF74EFFBDF8D5
:1055E00014005449A1F8CF00BDF8140006B070BDF6
:1055F0005048B0F8CF0070470FB470B5A0B06FF04E
:1056000001050024FFF7F4FF0646402110A813F01F
:10561000E4F91D2E1ADB651E00BF14E02146684622
:10562000FFF7C2FD4022694610A813F07AF9122252
:105630000DF192010DF1420013F002F908B925B203
:1056400003E0601C84B2B442E8DB06E0FFF73EFFF3
:105650001D20FFF712FF6FF00105A81C48B92F228B
:1056600028A9684613F05DF924A80FC8FFF7C4FF06
:105670000546284620B070BC5DF814FB2D48B0F8F4
:10568000A201704711B583B0002002900190002460
:10569000BDF80C002749A1F8A20102A82044BDF8DA
:1056A0000C100180A41C022102A809F01BFB019030
:1056B00002A82044BDF804100180A41C042202A901
:1056C00040F2F5200AF0F0F9042202A940F2F52098
:1056D0000BF052FB1FBD30B58FB005460C4624229F
:1056E000164906A813F01DF9142101A813F075F945
:1056F000022C08DA04EBC40006AA02EB40011222D5
:1057000001A813F0C9F8122201A9284613F0C4F821
:105710000FB030BD10B5A2B0402112A813F05DF952
:10572000002414210DA813F058F903208DF8490026
:1057300000BF23E044950020C29800204C9C05083F
:10574000214608A8FFF7C7FF142208A90DA813F0E7
:10575000E8F812220DA90DF14A0013F09DF8E0B20D
:105760002F2216A90C90684613F0DBF812A80FC878
:10577000FFF756FC0AF012FE601C84B2022CDFDB3D
:1057800022B010BD70B586B0002005900490039043
:105790000024002502900026019004A8011904228B
:1057A00040F2F5200AF08BF903A80119042240F217
:1057B000F5200BF0F1FA04A90819022109F092FA78
:1057C000054603A90819022109F08CFA0646A41C13
:1057D00004A820440088029003A820440088019077
:1057E000BDF80800854208D104980590042204A958
:1057F00040F2F5200BF0C0FA13E0BDF80400864239
:1058000008D103980590042203A940F2F5200AF07C
:105810004BF906E002200590FFF77CFF0220FFF71E
:1058200031FFBDF81400FE49A1F8A20106B070BD19
:1058300070B505460C46C4EB8410FA4A81183F2225
:10584000284613F029F870BD0FB430B58DB0209CF8
:10585000002009900A900B900C900025089004906D
:10586000059006900790E2B210A9684609F0EEF89C
:105870009DE80F00CDE90623CDE9040109A94819E7
:105880000E2204A913F008F80E35294609A809F0DC
:1058900029FA089009A82844BDF820100180AD1C01
:1058A00040F2565101EB04102A4609A90AF0FCF80F
:1058B00040F2565101EB041188B22A4609A90BF0B7
:1058C0005BFAC4EB8411D74A88183F2210A912F062
:1058D000E3FF0DB030BC5DF814FBF0B5B1B00020B3
:1058E0002D902E902F90309029902A902B902C90D4
:1058F00000262890002727900025142122A813F0C5
:105900006CF8002400201E901F902090219000BF72
:10591000A4E000252DAA511940F2565202EB0410C2
:1059200010220AF0CCF829AA511940F2565202EB83
:10593000041010220BF030FA2DA948190E2109F09D
:10594000D1F9064629A948190E2109F0CBF90746D5
:105950000E352DA828440088289029A828440088BE
:105960002790BDF8A00086421FD12DA80FC8CDE911
:105970002023CDE91E01BDF88400ADF800000EA87B
:105980001EA90EC909F0CAF8C4EB8411A54A8818EB
:105990003F220EA912F080FF40F2565101EB041095
:1059A00010222DA90BF0E8F954E0BDF89C008742C5
:1059B0001FD129A80FC8CDE92023CDE91E01BDF8CC
:1059C0008400ADF800000EA81EA90EC909F0A6F8C3
:1059D000C4EB8411934A88183F220EA912F05CFF91
:1059E00040F2565101EB0410102229A90AF05CF88C
:1059F00030E0214619A8FFF76EFE142219A922A84B
:105A000012F08FFF0320C4EB8411864A11444870C2
:105A1000C4EB84111144881C122222A912F03CFF0D
:105A2000BDF88800B0B1C4EB84107E4A104400F188
:105A300010012F2268460C9412F02EFFC4EB841044
:105A4000784A81183F220EA812F026FF0EA80FC830
:105A5000FFF7FAFE0AF0A2FC601CC4B27048B0F86E
:105A6000A201A0423FF755AF31B0F0BD0FB470B501
:105A7000A0B06FF001050024FFF700FE06464021AC
:105A800010A812F0AAFF022E1ADB651E00BF14E058
:105A900021466846FFF7CCFE4022694610A812F066
:105AA00040FF12220DF192010DF1420012F0C8FEEA
:105AB00008B925B203E0601C84B2B442E8DB06E01A
:105AC000FFF728FE0220FFF7DDFD6FF00105A81C9F
:105AD00048B92F2228A9684612F023FF24A80FC82E
