:020000040804EE
:10000000F0D50120493B0508513B0508EBF10408F8
:10001000553B0508573B0508593B05080000000003
:100020000000000000000000000000005B3B05082D
:100030005D3B050800000000632105087B220508E0
:10004000633B0508633B0508633B0508633B050804
:10005000633B0508633B0508633B0508633B0508F4
:10006000633B0508633B0508633B0508633B0508E4
:10007000633B0508633B0508D5020508633B05089B
:10008000633B0508633B0508633B0508633B0508C4
:100090007DF40408633B0508633B0508633B0508E2
:1000A000633B0508633B0508633B0508633B0508A4
:1000B000633B0508633B0508633B0508633B050894
:1000C000633B0508633B0508633B0508633B050884
:1000D000633B0508F1130508633B0508CB030508DE
:1000E000633B0508633B0508633B0508633B050864
:1000F000633B0508633B0508633B0508633B050854
:10010000633B0508633B0508633B0508633B050843
:10011000633B0508633B0508633B0508633B050833
:10012000633B0508633B0508633B0508633B050823
:10013000633B0508633B0508633B0508633B050813
:100140002F100508633B0508633B0508633B050862
:10015000633B0508633B0508FB120508633B050884
:10016000633B0508633B0508633B0508633B0508E3
:10017000633B0508633B0508633B0508633B0508D3
:10018000633B050800F002F800F05AF80AA090E876
:10019000000C82448344AAF10107DA4501D100F042
:1001A0004FF8AFF2090EBAE80F0013F0010F18BFB5
:1001B000FB1A43F0010318474C9D01006C9D0100A0
:1001C0000A444FF0000C10F8013B13F0070408BF7D
:1001D00010F8014B1D1108BF10F8015B641E05D01B
:1001E00010F8016B641E01F8016BF9D113F0080FD0
:1001F0001EBF10F8014BAD1C0C1B09D16D1E58BF62
:1002000001F801CBFAD505E014F8016B01F8016B98
:100210006D1EF9D59142D6D370470000002300240B
:1002200000250026103A28BF78C1FBD8520728BF06
:1002300030C148BF0B6070471FB51FBD10B510BD62
:1002400017F0C7FF1146FFF7F7FF00F028F817F087
:10025000E5FF03B4FFF7F2FF03BC17F0E9FF00006E
:1002600010B50EF0EBFF0EF0F0FF10BD00F09EFA9F
:1002700000F024FF01F0B6FB0AF036FF0AF009FF98
:1002800003F08DFE04F0B1FB0BF031FE07F019FD19
:1002900007F026F802E032200EF078F9FBE70024A0
:1002A00011F03EFF0446FFF7DBFF0FF013F80A23BF
:1002B000084A0021AFF24B000EF0EEFF204611F08D
:1002C00033FF0FF001F802E00A200EF05FF9FBE7C0
:1002D00070470000841B0020FE4870477CB505462F
:1002E000002400200190FCA00068009001A928468D
:1002F0000EF003FA044630220421F6481E3017F0AF
:1003000014FFC4F10402F3491E315018224601A91A
:1003100017F094FEEF480099C0F81A107CBD10B594
:1003200086B0EE4A07CA03AB07C3EDA103C9CDE906
:10033000010104F091FB044641F2AF21E54817F0BA
:100340001EFF1022E849E3480A3017F077FE0A2220
:1003500003A9E04817F0B7FEDE480199C0F8221063
:10036000BDF80810C1842046FFF7B8FF06B010BDE5
:1003700000B589B0002005900690079008900DF018
:1003800080FC01A805F082FF01A80FC8CDE9072372
:10039000CDE90501102205A9CE480A3017F04EFE1E
:1003A00009B000BD01460020092902DB392900DC23
:1003B000012070470146012070477CB505460C4678
:1003C00000200190C5480C3000680090207801287A
:1003D00002D0022808D104E00120019009F0C8F9F8
:1003E00002E00020019000BF00BF6078022803D126
:1003F000009800F0F7F900BF00BF0020BB4948702B
:10040000019805F054FF7CBD7047F8B506460C46D0
:10041000B2481030006800900025605D012804D0CB
:10042000022803D0FE280ED104E00CE0009800F072
:10043000D9F908E0A74890F8AE0020F02001A548BF
:1004400080F8AE1000BF00BF6D1C605D012802D0B7
:10045000022813D109E09F4890F8280020F00100FD
:10046000401C9C4981F8280008E09A4890F8280030
:1004700020F00100974981F8280000BF00BFF8BDB7
:1004800038B504460D469548143000680090009831
:1004900000F0A8F938BD2DE9FE4305460E468F4809
:1004A00018300068029000200190002781468046A5
:1004B0000024009082218E4817F03FFE57E04FF055
:1004C0000009301900880190002747E007EB47003A
:1004D000884931F81000BDF8041088423CD14FF033
:1004E00001097C48B0F8361100F59C700844BDF84D
:1004F00004100180A01CC4B2A81E85B27548B0F8D3
:100500003601801C7349A1F8360116F80480601C7E
:10051000C4B2681E85B20846B0F8362100F59C705A
:100520001318311907EB4700724A02EB4000D0F86C
:1005300002C06A464046E04704EB0800C4B2A5EB9F
:10054000080085B26348B0F836019DF800100844F1
:100550006049A1F8360105E0781CC7B2664800780A
:100560008742B3DB00BFB9F1000F00D101E0022DDB
:10057000A5D200BF029800F035F9BDE8FE8338B57A
:1005800005460C4655481C300068009020788DF8D0
:100590000300009800F026F938BD38B504460D4632
:1005A0004E48203000680090009800F01BF938BDDC
:1005B00001224E4B1A70704738B505460C46474825
:1005C0002430006800902078302805DA20788DF8F3
:1005D0000300009800F006F938BD73B50D460024FD
:1005E00000BF14E09DF8000004EB8401434A515C15
:1005F00088420AD1BDF8010004EB84011346194476
:10060000D1F801202946904705E0601CC4B23C485F
:1006100000788442E6DB00BF7CBD2DE9F04186B066
:1006200007460E4600200390049005903C4635880E
:1006300002900190B6F8008070E0B4F801000290DA
:100640002078682865D1BDF80800FFF7ABFE0028C8
:100650005FD0BDF8080085425ADBBDF80800801E57
:1006600081B220460DF051FFBDF80810891E615C73
:10067000884247D1BDF80800401E205C162841D1B1
:1006800020680390A088ADF81000A0798DF81200C2
:10069000BDF810000190BDF80800801E205C8DF8A8
:1006A00013009DF81200FFF785FE48B1DDF80F003A
:1006B000E11D0090FFF791FF00200390049005904A
:1006C000BDF808000444BDF80800281A85B20020CF
:1006D000029023E0882B002030323030E49005086F
:1006E0004344522D55310000A0A1002029000020D4
:1006F000BE2C0020FC8F050800000020B6900508E5
:1007000001000020641C681E85B20020029005E0F4
:1007100006E0641C681E85B200200290032D8CDA6E
:1007200000BF2A462146384617F088FC3580A8EBE2
:100730000501781917F001FD06B0BDE8F081ADF6AE
:10074000180D002400200190FFF7E9FD4FF47A60B6
:100750000DF01CFF00BF0020019002A8021901ABA0
:10076000012108460EF0CBFCBDF80400204484B201
:10077000B4F5016F00D90024BDF8040040B93CB1C4
:1007800002AD019401A92846FFF747FFBDF80440D8
:100790000EF08FFFFFF7ECFD0BF01CFE0DF0C3FB1E
:1007A0000FF0B2F90A200DF0F1FED4E710B50623E0
:1007B000034A0021AFF279000EF06EFD10BD00007B
:1007C000842B0020FE48704710B5FD4800210180B1
:1007D000817001F015F9FB49086004F021F9FA492C
:1007E000086010BD31B5002404E0601CC4B20A20CA
:1007F0000DF0CCFEF548407808B1642CF5DBF348E9
:100800000099016038BDF148407870472DE9F0410A
:1008100006460D469046002400BF1022EA480168B3
:1008200001F25111EA4817F009FC28191022E84991
:1008300017F004FC10342819E5490A39D1F81A10C8
:100840000160241D2919DF480068D0F852010860B2
:10085000241D2819DE490A39D1F81E100160241D13
:100860002919D8480068D0F856010860241D2819B5
:10087000D7490A39D1F822200260C98C8180A41D91
:100880002819D3490A390A6802604A68426009890E
:1008900001810A3410F02CF94FF47A7100FB01F752
:1008A00028190760241DF01CB480BDE8F0812DE9F3
:1008B000F04105460E461746002430191022C4495F
:1008C00017F0BCFB1034E81CAC80BDE8F0812DE9CA
:1008D000F04105460E46174600243019E222BC4975
:1008E000223117F0ABFBE234E81CAC80BDE8F081AC
:1008F000F0B589B006460D46174600240020059045
:1009000006900790089028192822B24917F096FB04
:1009100028342919AE480A38408D0880A41C2919AA
:10092000A9480068B0F8CF000880A41C01A80DF009
:100930006DFB01A80FC8CDE90723CDE905012819F2
:10094000102205A917F07AFB1034F01CB48009B00E
:10095000F0BD70B504460D4616469D480A38B0F8FD
:100960003611E01CA180A2889A492A31284617F046
:1009700065FB70BD2DE9F04107460D461646002483
:100980002E55641C302E03DB02202855641CBFE169
:1009900001202855641CC6EB86118A48006800F5C2
:1009A000A87010F8110010F0010F03D10220285593
:1009B000641CADE101202855641C2919C6EB861280
:1009C0008048006800F5A87000EB4200B0F80B000A
:1009D0000880A41C2919C6EB86127A48006800F525
:1009E000A87000EB4200B0F811000880A41C29197F
:1009F000C6EB86127348006800F5A87000EB420051
:100A0000B0F813000880A41CC6EB86116D4800687E
:100A100000F5A87000EB410090F84A002855641CCE
:100A2000C6EB86116748006800F5A87000EB41002E
:100A300090F860002855641C2919C6EB861261489D
:100A4000006800F5A87000EB4200B0F85000088084
:100A5000A41CC6EB86115B48006800F5A87000EB8B
:100A6000410090F852002855641CC6EB8611554889
:100A7000006800F5A87000EB410090F83900285597
:100A8000641C2919C6EB86124E48006800F5A87050
:100A900000EB4200B0F84B000880A41CC6EB8613A4
:100AA000484A126802F5A87202EB430202F11901EA
:100AB0002819202217F0C2FA2034C6EB8613414AC7
:100AC000126802F5A87202EB430202F13A012819FA
:100AD000102217F0B3FA10342919C6EB86123948E0
:100AE000006800F5A87000EB4200B0F858000880DC
:100AF000A41C2919C6EB86123248006800F5A870BC
:100B000000EB4200B0F85A000880A01C84B22919FA
:100B1000C6EB86122B48006800F5A87000EB420077
:100B2000B0F85C000880A01C84B22919C6EB8612BC
:100B30002448006800F5A87000EB4200B0F81700E8
:100B40000880A01C84B22919C6EB86121D480068D3
:100B500000F5A87000EB4200B0F815000880A01C5A
:100B600084B22919C6EB86121648006800F5A870F1
:100B700000EB4200B0F865000880A01C84B2C6EB10
:100B800086111048006800F5A87000EB410090F84D
:100B900054002855601C84B2C6EB861109480068D1
:100BA00000F5A87000EB410090F855002855601C36
:100BB00084B2C6EB86110348006800F5A8700BE00C
:100BC0002900002004000020080000202C00002044
:100BD000922B0020962C002000EB410090F856004C
:100BE0002855601C84B2C6EB8611F648006800F5F3
:100BF000A87000EB410090F857002855601C84B2A3
:100C0000C6EB8611EF48006800F5A87000EB4100C4
:100C100090F85E002855601C84B2C6EB8611E94846
:100C2000006800F5A87000EB410090F84F002855CF
:100C3000601C84B22919C6EB8612E248006800F5F0
:100C4000A87000EB4200B0F861000880A01C84B2DC
:100C50002919C6EB8612DB48006800F5A87000EB86
:100C60004200B0F863000880A01C84B2C6EB861175
:100C7000D448006800F5A87000EB410090F85F00D0
:100C80002855601C84B2C6EB8611CE48006800F57A
:100C9000A87000EB410090F867002855601C84B2F2
:100CA000C6EB8611C748006800F5A87000EB41004C
:100CB00090F84D002855601C84B2C6EB8611C148DF
:100CC000006800F5A87000EB410090F84E00285530
:100CD000601C84B2C6EB8611BA48006800F5A870A3
:100CE00000EB410090F853002855601C84B2C6EB1D
:100CF0008613B44A126802F5A87202EB430202F1AD
:100D000068012819162217F099F904F1160084B227
:100D1000F81CBC80BDE8F0812DE9F041A0B0074689
:100D20000D46904600240026684605F010FA6846F5
:100D300008F061FC06462E55641C281932466946A7
:100D400017F07CF9344410A808F055FC06462E55DF
:100D5000641C2819324610A917F070F93444281978
:100D600010229949096801F2511117F067F91034FE
:100D7000F81CBC8020B0BDE8F081F0B504460B46FD
:100D80000021002000BF3CE0C1EB81168D4D2D6895
:100D900005F5A87515F8165015F0010F29D0C1EB0F
:100DA0008116884D2D6805F5A87505EB460595F863
:100DB0004A501D54451CA8B21E18C1EB8117814D25
:100DC0002D6805F5A87505EB4705B5F80D5035807C
:100DD000851CA8B21E18C1EB81177A4D2D6805F548
:100DE000A87505EB4705B5F80B503580851CA8B2F2
:100DF00005E01D1800262E602E71451DA8B24D1C61
:100E0000E9B23029C0DBE51CA080F0BD2DE9F0413E
:100E100007460D46164600242E55641C06EB860236
:100E200002EB4612674B1B6841F6F00C63441A4410
:100E3000911C2819182217F001F91834281906EB0B
:100E4000860101EB46115F4A126841F6F0031A442D
:100E5000114451F81A2F02604A6842600A890281DF
:100E6000897A81720B34F81CBC80BDE8F08108B52A
:100E70005648006800905648407801280DD141F24C
:100E8000883154480DF06AFB012806D100215148F1
:100E90000DF064FB0098FFF7A5FC08BD08B54B48B2
:100EA000001D006800904A48807801280DD141F269
:100EB000883149480DF052FB012806D100214648EF
:100EC0000DF04CFB0098FFF78DFC08BD08B53F48BE
:100ED0000830006800904148007801280AD10020BD
:100EE0003E49087012F009FE3D49086012F005FE07
:100EF0003C49086044F6206139480DF02FFB012879
:100F000018D1E2223849394817F06CF890B14FF403
:100F10007A7134480DF022FB01280BD100213148B1
:100F20000DF01CFBE2223049304817F087F800989A
:100F3000FFF758FC08BD08B524480C300068009045
:100F40002348007898B941F2707129480DF006FBEA
:100F5000012802D02748007848B9002124480DF024
:100F6000FDFA0098FFF73EFC01202249087008BDF9
:100F70002DE9F04106460F46154600246820285505
:100F8000641CB0880930A6F801002819B6F80110D1
:100F90000180A41C2819D6F803100160241DB28812
:100FA0002819394617F04AF830792044C4B221464E
:100FB00028460DF0AAFA2855601CC4B21620285500
:100FC000BDE8F08104000020080000203C910508E5
:100FD00029000020180000201C0000202000002014
:100FE0001000002014000020B42B00203846002000
:100FF0002400002028000020ADF5047D4FF480710E
:1010000044A817F0BCF84FF4807104A817F0B7F8A3
:1010100000200190029003900024FFF7D5FB4FF4CD
:101020007A600DF0B3FA00BF29480078012834D166
:1010300000242DE02648407804EB8401254A515CC9
:10104000884223D104EB84001146085C8DF8070028
:101050001F4881788DF80A10C27804EB84001D497E
:101060000844D0F8013044A901A8984704AA44A92B
:1010700001A8FFF77DFF0DF1050304AA0121084631
:101080000EF02DF812480021016005E0601CC4B28A
:10109000114800788442CDDB00BF01200F49087061
:1010A00008460078012801D1FFF710FF0EF001FB80
:1010B0000EF02AFD0A200DF069FAB5E710B50723F6
:1010C000074A0021AFF2CF000EF0E6F810BD000095
:1010D0002C0000200C9105080C00002029000020A5
:1010E0003446002010B5FFF7F7F8F749086010BD47
:1010F0007CB5002404F009FD019000200090BDF8AB
:1011000006000A2190FBF1F085B2BDF8040090FBC7
:10111000F1F086B26A46294630460DF0A5FE044637
:10112000BDF90010E84800684185214601200EF015
:1011300055FCE548006890F8280064F3C300E249D4
:10114000096881F82800E048006890F8AD0064F371
:101150004510DD49096881F8AD007CBD10B5DA485D
:10116000006890F8AD00C0F3400000285AD1D6487E
:10117000006890F8AD0010F0010F53D1D24800681C
:1011800090F8AE00C0F3001000284BD1CE480068A4
:10119000416B806B002251405040014342D1CA480C
:1011A0000168486D896D5040514008433AD1C648A6
:1011B000006890F8AD00C0F3800098BBC24800689A
:1011C00090F8AD00C0F3C00060BBBF48006890F865
:1011D000AD000121B1EBD01F24D0BB48006890F8CE
:1011E000AE0010F0010F1DD1B748006890F8AE00B6
:1011F000C0F34000B0B9B4480068B630016D406D2E
:1012000000235940584001430CD1AF480068B63024
:101210008168C06859405840014303D101F0ECF89F
:1012200001280FD1012104200EF0D8FBA648006848
:1012300090F8AD0020F010001030A349096881F843
:10124000AD000DE0002104200EF0C8FB9E480068B0
:1012500090F8AD0020F010019B48006880F8AD10B8
:1012600010BD10B54FF4FA7198480DF077F90128C8
:1012700010D1002195480DF071F99548007808B912
:10128000012000E0002092490870084601780520FE
:101290000EF0A4FB10BD10B5FFF72AFFFFF75EFFAD
:1012A000FFF7DFFF10BD10B501200EF0F3FB18B300
:1012B0008848B0F900100088401C00B2854A1080B0
:1012C00096293CDB9620114608807F48006890F8FC
:1012D000280020F00400001D7B49096881F82800DF
:1012E0007948006890F8AD0020F00200801C764933
:1012F000096881F8AD0022E07648B0F90010008856
:10130000401E00B2734A108011F1960F17DC6FF087
:101310009500114608806C48006890F8280020F07D
:1013200004006949096881F828006748006890F856
:10133000AD0020F002016448006880F8AD1010BDD7
:1013400010B500200EF0A6FBC0B1634890F9001064
:101350000078401C40B2604A1070052926DB052049
:10136000114608705848006890F8AD0020F0010060
:10137000401C5549096881F8AD0017E0564890F9BE
:1013800000100078401E40B2534A107011F1050F52
:101390000CDCFB20114608704B48006890F8AD004B
:1013A00020F001014848006880F8AD1010BD10B56C
:1013B00002200EF06FFBC0B1484890F90010007891
:1013C000401C40B2454A1070052926DB0520114615
:1013D00008703D48006890F8AE0020F040014031B0
:1013E0003948006880F8AE1017E03C4890F90010CA
:1013F0000078401E40B2394A107011F1050F0CDC24
:10140000FB20114608703048006890F8AE0020F0CC
:1014100040012D48006880F8AE1010BD2A480068D1
:1014200090F8AD00C0F3400010BB2748006890F86A
:10143000AD0010F0010F1BD12348006890F8AE00FA
:10144000C0F30010A0B92048006890F8AD00C0F3C8
:10145000800068B91C48006890F8AE0010F0010FD9
:1014600006D11948006890F8AE00C0F3400010B1F2
:1014700001201B490870704710B5A4B014A80AF0E9
:101480005AFD4FF0FF340CA806F039FC9DF85100CE
:10149000002862D02B2119A816F071FE9DF851008A
:1014A000012804D002281DD0032846D133E00120B2
:1014B0008DF851002F2218A9684616F004FE14A8D2
:1014C0000FC803F0FEFC38E0300000203800002098
:1014D0003C0000203E000020400000204100002091
:1014E0003400002002208DF851002F2218A96846F0
:1014F00016F0E9FD14A80FC804F00FF80446601CAC
:1015000008D02F2218A9684616F0DDFD14A80FC8D0
:1015100003F0D7FC11E002208DF8510004F03FF8F1
:1015200004B2601C08D02F2218A9684616F0CBFD23
:1015300014A80FC803F0C5FC00BF00BF402114A8C9
:1015400016F01DFE2F2218A9684616F0BCFD14A83F
:101550000FC80AF0E6FC0AF0C9FF9DF8310028B375
:1015600006F0BEFB05F0CEFE0022F8480068C26718
:10157000C0F88020F54800682C308265C2650021E3
:10158000F24A12682C32116651660022EF4909684E
:101590002C318A66CA66ED480068B6300263426341
:1015A0000021EA480068B6308163C16324B010BDF1
:1015B00010B50024E548006890F8AD00C0F3400085
:1015C000002862D1E148006890F8AD0010F0010FEA
:1015D0005BD1DE48006890F8AE00C0F30010002830
:1015E00053D1DA480068416B806B00235940584062
:1015F00001434AD1D5480068416D806D00225140B9
:101600005040014341D1D148006890F8AD00C0F38B
:101610008000D0BBCD48006890F8AD00C0F3C0009A
:1016200098BBCA48006890F8AD000121B1EBD01F0B
:101630002BD0C648006890F8AE0010F0010F24D1FE
:10164000C248006890F8AE00C0F34000E8B9BF4857
:101650000068C16E006F59405840014315D1BB4826
:101660000068B630016D406D5940584001430CD1BF
:10167000B6480068B6308168C06859405840014398
:1016800003D100F0B9FE012802D10124FFF7F4FED6
:10169000204610BD10B5FFF706FEFFF751FEFFF71D
:1016A00086FEFFF785FFFFF7B9FE10BDA74800686B
:1016B000416F806F4FF6FF72504070EA01011DD1FB
:1016C000A248006890F8AF0010F0010F0BD19F48BE
:1016D000006890F8280020F00200801C9B490968EF
:1016E00081F8280014E09948006890F8280020F05C
:1016F00002009649096881F8280009E093480068CB
:1017000090F8280020F002009049096881F828002C
:10171000704710B504F0F9FB8C490968B1F92A103B
:1017200088420BDC8948006890F8AE0020F0100178
:1017300010318648006880F8AE1012E004F0E5FB36
:10174000323882490968B1F92A10884209DD7F4898
:10175000006890F8AE0020F010017C48006880F826
:10176000AE1010BD10B50020784909684A6D896D2A
:101770000024624061400A4351D1744909684A6BB0
:10178000896B624061400A4349D17049096891F808
:10179000AE10C1F30011002941D16C490A68D16E25
:1017A000126F61406240114339D16849096891F86C
:1017B000AD10C1F3400191BB6449096891F8AD10C7
:1017C00011F0010F2BD16149096801F587710A6A8F
:1017D000496A624061400A4321D15C490968CA6D87
:1017E000096E00235A4059400A4318D157490968E5
:1017F0004A6E896E624061400A4310D153490968BC
:1018000091F82810C1F3400149B95149097831B91B
:101810004E49096891F8AE10C1F3801101B1012061
:1018200010BD00B589B001A806F069FA4748006804
:1018300090F8AF0010F0010F3FD09DF8050028B3DD
:1018400006F04EFA05F05EFD0021404A1268D167AD
:10185000C2F880103D4800682C308165C1650020C9
:101860003A4909682C3108664866384A12682C32B1
:101870009066D066002235480068B6300263426345
:10188000002132480068B6308163C16300202F4ACE
:1018900012682C321067506700212C4800682C30E9
:1018A0008167C167002229480068B630026442643B
:1018B00026480068B6308264C26409B000BD0020CA
:1018C0002249096891F8AD10C1F3400189BB1F4955
:1018D000096891F8AD1011F0010F2AD11B49096870
:1018E00091F8AE10C1F3001119BB1849096891F8BD
:1018F000AD10C1F38001E1B91449096891F8AD1048
:10190000C1F3C001A9B91149096891F8AD100122CC
:10191000B2EBD11F0DD00D49096891F8AE1011F04E
:10192000010F06D10949096891F8AE10C1F34001D1
:1019300001B10020704710B500240448006890F8F9
:10194000AF0010F0010F27D000BF0AE030000020E8
:10195000CC01002022460021032005F008F9601C7C
:10196000C4B203F0D6FDA042F4DC002406E0224617
:101970000021042005F0FBF8601CC4B203F00FFE48
:10198000A042F4DC1C48006890F8AF0020F0800111
:101990001948006880F8AF1010BD10B5FFF786FE3B
:1019A000FFF7B7FEFFF73DFFFFF7C5FF10BDFFF7DD
:1019B00099FB4FF4FA700CF0E9FD00BFFFF76BFCE8
:1019C000FFF7EBFFFFF766FE06F0BEF90AF020FD19
:1019D0000AF096FD0DF06DFE0EF096F80A200CF060
:1019E000D5FDEBE710B50823044A0021AFF2410012
:1019F0000DF052FC10BD000030000020184B0020FC
:101A0000FE48704710B54FF4FF51FC4816F0B7FB85
:101A1000FEF762FCFA49086010BD70B5044600206C
:101A2000092C2BD2DFE804F02A05060708090A0B67
:101A30000C0000BF00BF00BF00BF00BF00BF00BF61
:101A4000C2EB8215EF4B03EB45030D182D88A3F86D
:101A50001150801CC2EB8215EA4B03EB45030D18B5
:101A60002D88A3F81350801C0D5CC2EB8216E54B49
:101A700003EB460383F84A50401C00E000BF00BF60
:101A800070BD2DE9FC410020009001900024FFF77B
:101A900016FF012806D0DA48006890F8AF0010F071
:101AA000010F08D000200090019030208DF8000038
:101AB0008DF804003FE000243BE0D1480068D0F8F6
:101AC0007480876F2246012500262846314616F08D
:101AD00063FA08EA000007EA01030022504053407D
:101AE000184306D09DF80000401CC0B28DF80000DD
:101AF0001DE0C548005D20B1012809D0022815D19C
:101B00000DE09DF80000401CC0B28DF800000DE013
:101B10009DF80100401CC0B28DF8010006E09DF860
:101B20000200401CC0B28DF8020000BF00BF601C64
:101B3000C4B2302CC1DBB2480068009940F8B11F34
:101B40009DF804100171BDE8FC812DE9FC5F0024C3
:101B500000200090AA48006890F8AF0010F0010F34
:101B600003D00021A9480CF0F9FC00246FE004EB3D
:101B70004401A248303000EB4100407901283ED1B9
:101B80009F48006890F8AF0010F0010F1CD14EF68E
:101B900060219E480CF0E2FC01284BD19848006877
:101BA000D0F874B0D0F878A0224601250026284647
:101BB000314616F0F1F94BEA00024AEA0103904877
:101BC00000684267836735E08D480068D0F874A0EC
:101BD000D0F878B0224601274FF000083846414639
:101BE00016F0DAF90A46C1430AEA010A2BEA020BA7
:101BF00083480068C0F874A0C0F878B01AE0804844
:101C00000068D0F874A0D0F878B022464FF00109EF
:101C1000002001904846019916F0BEF90A46C143DA
:101C20000AEA010A2BEA020B75480068C0F874A0A2
:101C3000C0F878B0C4EB8411724810F8110001218B
:101C4000B1EBD01F01D101200090601CC4B2302C38
:101C50008DDB6B480068416F806F0022514050401F
:101C600001430BD06648006890F8AE0020F00801F0
:101C700008316348006880F8AE1009E060480068E9
:101C800090F8AE0020F008015D48006880F8AE10C2
:101C90005B480099006890F8AE2061F382025848D2
:101CA000006880F8AE20BDE8FC9F2DE9F04FB1B090
:101CB000044600200590039004900290C4EB841128
:101CC000504810F8110010F0010F16D04C48006871
:101CD000D0F82CB0D0F830A02246012500262846A6
:101CE000314616F059F94BEA00024AEA010A444823
:101CF0000068C262C0F830A023E041480068D0F814
:101D00002CA0D0F830B0224601274FF0000838460A
:101D1000414616F041F90A46C1430AEA010A2BEA94
:101D2000020B37480068C0F82CA0C0F830B0C4EBF4
:101D30008412344901EB420101F111006D2116F0CA
:101D4000FCF9C4EB84112F4810F81100C0F34000D7
:101D5000B8B12B480068D0F834B0D0F838A022468B
:101D60004FF00109002006904846069916F014F934
:101D70004BEA00024AEA0103214800684263836398
:101D80001AE01F480068D0F834A0D0F838B02246D6
:101D900001210020CDE907010846079916F0FCF85B
:101DA0000A46C1430AEA010A2BEA020B14480068FA
:101DB000C0F834A0C0F838B0C4EB8411114810F852
:101DC0001100C0F3800018B30D480068D0F854A08B
:101DD000D0F858B0224601210020CDE9090108467B
:101DE000099916F0D9F84AEA000A4BEA010B0448AF
:101DF0000068C0F854A0C0F858B021E05C6D002025
:101E000048000020AC6E00201C530020640000201D
:101E1000FE480068D0F854A0D0F858B022460121FE
:101E20000020CDE90B0108460B9916F0B5F82AEA17
:101E300000002BEA010BF54909684865C1F858B064
:101E4000C4EB8411F24810F81100C0F3C000C8B10F
:101E5000EE480068D0F82EA1D0F832B12246012118
:101E60000020CDE90D0108460D9916F095F84AEAD3
:101E7000000A4BEA010BE5480068C0F82EA1C0F843
:101E800032B11AE0E1480068D0F82EA1D0F832B1A2
:101E9000224601210020CDE90F0108460F9916F0D6
:101EA0007BF80A46C1430AEA010A2BEA020BD7482B
:101EB0000068C0F82EA1C0F832B1C4EB8411D44838
:101EC00010F81100C0F30010C8B1D0480068D0F875
:101ED0000EA1D0F812B1224601210020CDE9110156
:101EE0000846119916F058F84AEA000A4BEA010B25
:101EF000C6480068C0F80EA1C0F812B11AE0C34885
:101F00000068D0F80EA1D0F812B1224601210020BD
:101F1000CDE913010846139916F03EF80A46C1436D
:101F20000AEA010A2BEA020BB8480068C0F80EA1C1
:101F3000C0F812B1C4EB8411B54810F81100C0F319
:101F40008010C8B1B1480068D0F81EA1D0F822B105
:101F5000224601210020CDE915010846159916F009
:101F60001BF84AEA000A4BEA010BA8480068C0F8CF
:101F70001EA1C0F822B11AE0A4480068D0F81EA142
:101F8000D0F822B1224601210020CDE917010846F0
:101F9000179916F001F80A46C1430AEA010A2BEA2A
:101FA000020B9A480068C0F81EA1C0F822B1C4EB29
:101FB0008411974810F811000121B1EBD01F18D1FE
:101FC00092480068D0F826A1D0F82AB12246002015
:101FD000CDE919010846199915F0DEFF4AEA000A11
:101FE0004BEA010B89480068C0F826A1C0F82AB165
:101FF00018E086480068D0F826A1D0F82AB1224619
:1020000001210020CDE91B0108461B9915F0C4FFF2
:102010002AEA00002BEA010B7C490968C1F8260175
:10202000C1F82AB1C4EB8411794800EB4100407833
:1020300010F0010F19D075480068D0F85CA0D0F8F6
:1020400060B0224601210020CDE91D0108461D99FE
:1020500015F0A2FF4AEA000A4BEA010B6B48006840
:10206000C0F85CA0C0F860B01AE068480068D0F81A
:102070005CA0D0F860B0224601210020CDE91F010C
:1020800008461F9915F088FF0A46C1430AEA010A6B
:102090002BEA020B5D480068C0F85CA0C0F860B095
:1020A000C4EB84115A4800EB41004078C0F3400073
:1020B000C8B156480068D0F83CA0D0F840B02246DD
:1020C00001210020CDE921010846219915F064FF86
:1020D0004AEA000A4BEA010B4C480068C0F83CA0F1
:1020E000C0F840B01AE049480068D0F83CA0D0F8E9
:1020F00040B0224601210020CDE923010846239962
:1021000015F04AFF0A46C1430AEA010A2BEA020B0C
:102110003E480068C0F83CA0C0F840B0C4EB841151
:102120003B4800EB41004078C0F30010C0B1374895
:102130000068D0F864B0D0F868A0224601210020E1
:10214000CDE925010846259915F026FF4BEA000246
:102150004AEA010A2D4800684266C0F868A017E004
:102160002A480068D0F864A0D0F868B0224601215F
:102170000020CDE927010846279915F00DFF2AEA2E
:1021800000002BEA010B214909684866C1F868B0D4
:10219000C4EB84111E4800EB41004078C0F34010AE
:1021A000C0B11A480068D0F844B0D0F848A0224620
:1021B00001210020CDE929010846299915F0ECFEFE
:1021C0004BEA00024AEA010A104800684264C0F87B
:1021D00048A017E00D480068D0F844A0D0F848B0F7
:1021E000224601210020CDE92B0108462B9915F04C
:1021F000D3FE2AEA00002BEA010B0449096848646F
:10220000C1F848B0C4EB8411014803E04800002045
:10221000AC6E002000EB41004078C0F38010C0B1EC
:10222000FE480068D0F84CB0D0F850A022460121FA
:102230000020CDE92D0108462D9915F0ADFE4BEAA1
:1022400000024AEA010AF5480068C264C0F850A0DA
:1022500017E0F2480068D0F84CA0D0F850B0224601
:1022600001210020CDE92F0108462F9915F094FE99
:102270002AEA00002BEA010BE8490968C864C1F8A2
:1022800050B0C4EB8411E64800EB410040780121D6
:10229000B1EBD01F1AD103AA02A9FE2001F0F0FE73
:1022A0000120234603AA00909DF808100DF02DF898
:1022B000DA48006890F8AE0020F020012031D748BD
:1022C000006880F8AE100020D649087031B0BDE833
:1022D000F08F2DE9FE4F0E4614460025C4EB841105
:1022E000CF4810F81100C0097ED1C4EB8411CC484E
:1022F00000EB4100711909880180AD1CC4EB841109
:10230000C74810F8110010F0010F09D0705DC649E0
:1023100008556D1C7119C44A105D2246FFF77DFBFC
:10232000BE480068D0F89CB0D0F8A0A02246012793
:102330004FF000083846414615F02EFE0BEA000229
:102340000AEA010300214A404B401A434FD0C4EB34
:102350008411B34800EB41004078C0F3800038B9E5
:10236000C4EB8411AE4810F8110010F0010F3ED1FB
:10237000AA480068D0F89CA0D0F8A0B022464FF040
:102380000109002000904846009915F005FE0A4614
:10239000C1430AEA010A2BEA020BA0480068C0F810
:1023A0009CA0C0F8A0B0C4EB84119D4800EB410094
:1023B0004078C0F3C000D0B198480068D0F8A4A01D
:1023C000D0F8A8B0224601210020CDE9010108463D
:1023D000019915F0E1FD4AEA000A4BEA010B8F482A
:1023E0000068C0F8A4A000E004E0C0F8A8B020464F
:1023F000FFF75BFCBDE8FE8F0021002000BF17E067
:10240000C1EB8113864A02EB430292F85020C2F3DB
:1024100080024AB9C1EB8113814A02EB430292F870
:102420005020C2F380120AB1012003E04A1CD1B24D
:102430003029E5DB00BF704710B5002477480068FD
:10244000416B806B002251405040014326D17348BC
:102450000068416D806D00235940584001431DD1F3
:102460006E480068C16E006F51405040014315D165
:102470006A480068B630016D406D514050400143DC
:102480000CD166480068B6308168C0685940584031
:10249000014303D1FFF7B0FF012800D101242046FA
:1024A00010BD2DE9F74FAEB0884614460025002038
:1024B00021900120209000201E901F9040210EA806
:1024C00015F05DFE4FF0FF3900200D9000264FF013
:1024D000604718F8050021906D1C6D1C2198082894
:1024E0001BD2DFE800F080041B29374E5C6C04EB44
:1024F00084004E4901EBC00008EB05010988A0F8F3
:102500000110AD1C04EB8400484901EBC00008EB4E
:1025100005010968C0F803102D1D64E004EB840078
:10252000424901EBC000C01C08EB05010A6842608B
:1025300089880181AD1D56E004EB84003B4901EB25
:10254000C00008EB05010A6840F80D2F89888180DA
:10255000AD1D48E004EB8400344901EBC00008EBFA
:1025600005010988A0F81310AD1C04EB84002F4965
:1025700001EBC00008EB05010968C0F815102D1D1E
:1025800031E004EB8400294901EBC000153008EB71
:1025900005010A68426089880181AD1D23E004EBD2
:1025A0008400224901EBC00008EB05010A6800F134
:1025B0000B0042618988018305F1060513E018F8D4
:1025C00005001B4908706D1C2E9805280AD1194872
:1025D00000EB440008EB050109880180AD1C0120D7
:1025E0001549085500BF00BF1448015D2198401EE1
:1025F000012282401143C8B2104908550846005DC7
:102600007F2874D10020085504EB8400074A02EBB0
:10261000C000411C12220DF13A0011E048000020D8
:10262000AC6E0020340000205C6D00207C53002044
:10263000680000205C5B0020BC5B00204C53002045
:1026400015F0FCFC04EB8401FE4A02EBC101481CBE
:10265000282115F072FD2F2212A9684615F033FDCE
:102660000EA80FC802F059FF814619F1010003D1ED
:1026700004208DF878000AE1FFF7DEFE012803D17F
:1026800002208DF8780002E1EF480078012802D09E
:10269000022857D152E01FFA89F1032004F08AF88A
:1026A000401C12D101208DF8780022460121002023
:1026B000CDE922010846229915F06EFCE34B0CCBC4
:1026C00010431943E14A03C237E01FFA89F103209E
:1026D00004F053F90D901FFA89F1032004F06AF811
:1026E0000D99884204DC02208DF8780025E0DEE0B8
:1026F00001208DF87800D64830F81400D54931F81B
:102700001410884202D1D448005DB0B9D14830F8E5
:102710001400CF4921F814000D98401C80B20D9090
:102720000D98A0F57F41FF3901D101200D901FFACE
:1027300089F203200D9903F080FF03E001208DF85A
:10274000780000BF00BF9DF8780001287DD1BE4809
:102750000078012802D002281AD10CE0BF48006896
:102760002C30016F406FB143B843BC4A12682C3221
:10277000116750670CE0B94800682C30016F406F5A
:1027800031433843B54A12682C321167506700BF95
:1027900000BFB2480068D0F89CA0D0F8A0B0224694
:1027A00001210020CDE92C0108462C9915F0F4FBFD
:1027B0004AEA000A4BEA010BA8480068C0F89CA04E
:1027C000C0F8A0B0A5480068D0F8A4A0D0F8A8B080
:1027D000224601210020CDE92A0108462A9915F058
:1027E000DBFB0A46C1430AEA010A2BEA020B9B48BB
:1027F0000068C0F8A4A0C0F8A8B0224601210020BB
:10280000CDE928010846289915F0C6FB0A46C143C0
:10281000D043934AD2E9003219401040904AC2E9AD
:1028200000108E480068D0F8F6A0D0F8FAB0224622
:1028300001210020CDE926010846269915F0ACFBC0
:10284000C243C8430AEA020100E020E00BEA000BA1
:1028500082480068C0F8F610C0F8FAB07F480068F7
:10286000D0F8FEA0D0F802B1224601210020CDE927
:1028700024010846249915F08FFB2AEA00002BEA70
:10288000010B76490968C1F8FE00C1F802B10020C9
:102890006D4908706F4921F814006F4908550220EE
:1028A00023461EAA0090012020990CF02EFD31B085
:1028B000BDE8F08F2DE9F04F89B00E461446002593
:1028C00000200190705D01909DF8040010F0010F50
:1028D0000CD0C4EB8411634810F8110020F0010003
:1028E000401CC4EB84125F4901F812009DF80400FB
:1028F000C0F3400000284BD058480068D0F87CA0B6
:10290000D0F880B0224601274FF0000838464146F3
:1029100015F042FB0A46C1430AEA010A2BEA020B00
:102920004E480068C0F87CA0C0F880B04B480068F2
:10293000D0F88CA0D0F890B02246B9460020049080
:102940004846049915F028FB0A46C1430AEA010AE1
:102950002BEA020B41480068C0F88CA0C0F890B088
:102960003E480068D0F8E6A0D0F8EAB0224601213F
:102970000020CDE902010846029915F00DFB2AEA74
:1029800000002BEA0101354A1268B6321063516328
:102990009DF80400C0F3800018B1002032490855AA
:1029A00014E09DF80400C0F3C00018B101202E49C6
:1029B00008550BE09DF80400C0F3001018B1022088
:1029C0002949085502E00020274908556D1CC4EB31
:1029D0008411244810F8110010F0010F1CD0715D13
:1029E000C4EB84121F4800EB420081726D1CC4EBE3
:1029F00084111C4800EB410071190988A0F80B10E4
:102A0000AD1CC4EB8411174800EB41007119098813
:102A1000A0F80D10AD1C09E0C4EB8411114800EBC7
:102A200041000021C0F80A1081736D1D03F06DF99B
:102A3000C4EB84120B4901EB4201B1F80D1088423E
:102A40002DDC13E07C5300206800002050000020A3
:102A5000FC5A00205C5B0020BC5B0020480000208A
:102A6000D0010020AC6E00201C530020FA48006802
:102A7000D0F86CB0D0F870A0224601210020CDE93A
:102A800005010846059915F087FA4BEA00024AEA63
:102A9000010AF1480068C266C0F870A01AE0EE486A
:102AA0000068D0F86CA0D0F870B022460121002058
:102AB000CDE907010846079915F06EFA0A46C143A9
:102AC0000AEA010A2BEA020BE3480068C0F86CA08E
:102AD000C0F870B0C4EB8411E04800EB41007119FC
:102AE0000988A0F80F10AD1C09B0BDE8F08F2DE9E2
:102AF000F04106460F4615460024A046C5EB851159
:102B0000D64810F8110020F00100401CC5EB8512DA
:102B1000D24901F81200152F7ED2DFE807F07D0BB5
:102B20003B6263646566678081829AB9D8FEFDFC6A
:102B3000FBFAF900C5EB8511C84800EB41003119DB
:102B40000988A0F81110A41CC5EB8511C34800EB3F
:102B5000410031190988A0F81310A41C315DC5EBA0
:102B60008512BE4800EB420080F84A10641C315DBB
:102B7000C5EB8512B94800EB420080F86010641C78
:102B8000C5EB8511B54800EB410090F86000B449F1
:102B9000485555E1C5EB8511B04800EB41003119AE
:102BA0000988A0F85010A41C315DC5EB8512AB4814
:102BB00000EB420080F85210641C315DC5EB8512B9
:102BC000A64800EB420080F83910641CC5EB851163
:102BD000A24800EB410031190988A0F84B10A41C51
:102BE0002EE100BF00BF00BF00BF00BF082F01D013
:102BF000062000E002208046C5EB8513974A02EBD1
:102C000043021932FB1E03EB430302EB430031196D
:102C1000424615F013FA00E011E1444410E100BF10
:102C200000BF0B2F01D0062000E004208046C5EB3A
:102C300085138A4A02EB43023A32A7F1090303EBF8
:102C4000430302EB43003119424615F0F7F94444BF
:102C5000F6E0C5EB8511814800EB41003119098888
:102C6000A0F85810A41CC5EB85117C4800EB41006E
:102C700031190988A0F85A10A41CC5EB85117748B2
:102C800000EB410031190988A0F85C10A41CD7E0C2
:102C9000C5EB8511714800EB410031190988A0F896
:102CA0001710A41CC5EB85116C4800EB41003119CD
:102CB0000988A0F81510A41CC5EB8511674800EB26
:102CC000410031190988A0F86510A41CB8E0305DF6
:102CD00041B2C5EB8512614800EB420080F8541008
:102CE000641C305D41B2C5EB85125C4800EB4200CC
:102CF00080F85510641C305D41B2C5EB8512574811
:102D000000EB420080F85610641C305D41B205E0D3
:102D10008AE07CE06EE060E043E01BE0C5EB8512FA
:102D20004E4800EB420080F85710641C305D41B201
:102D3000C5EB8512494800EB420080F85E10641C28
:102D4000315DC5EB8512454800EB420080F84F101D
:102D5000641C75E0C5EB8511404800EB410031195A
:102D60000988A0F86110A41CC5EB85113B4800EB55
:102D7000410031190988A0F86310A41C315DC5EB2E
:102D80008512364800EB420080F85F10641C315D0C
:102D9000C5EB8512314800EB420080F86710641CD7
:102DA0004EE0315DC5EB85122C4800EB420080F807
:102DB0004D10641C315DC5EB8512284800EB4200C4
:102DC00080F84E10641C315DC5EB8512234800EB82
:102DD000420080F85310641C32E0C5EB85111F4897
:102DE00000EB410031190A6882668988A0F86C10EE
:102DF000A41D25E0C5EB8511184800EB41003119F1
:102E00000A6840F86E2F89888180A41D18E0C5EB00
:102E10008511124800EB4100683031190A68C26020
:102E200089880182A41D0BE0C5EB85110B4800EBDE
:102E3000410031190968C0F87A10A41D00E000BFF4
:102E400000BFBDE8F0812DE9F04104460E4617466B
:102E50001D46092C1AD205E048000020AC6E002067
:102E60005C6D0020DFE804F01205060708090A0B74
:102E70000C0000BF00BF00BF00BF00BF00BF00BF0D
:102E80002A4639463046FFF732FE0AE0C5EB851286
:102E9000FE4901EB420101F111006D2115F04DF9E0
:102EA00000BF00BFBDE8F0812DE9F04180460D462E
:102EB0001646002700242F5D641C641C2919F44A5F
:102EC000905D33463A46FFF7BEFFBDE8F0817CB522
:102ED00006460C46002500200190EEA000680090F8
:102EE00001A930460BF009FC0546C4EB8412E74902
:102EF00001EB4201881D3022042115F016F9C4EBC4
:102F00008412E24901EB4201891DC5F104028818CF
:102F10002A4601A915F092F8C4EB8411DB4800EBB6
:102F200041000099C0F802107CBD2DE9F041074630
:102F300088464FF0000400BF14E004EB4401D4487D
:102F4000303000EB41004079012809D122460125AB
:102F500000262846314615F01FF8074341EA0808C5
:102F6000601CC4B2302CE8DB38464146BDE8F08135
:102F70002DE9F04F85B080460F461646002002909E
:102F8000019000250024009081467C5D6D1CC248A4
:102F90000078844215D0C04804700021BF4A1160F7
:102FA0005160BF4A1160516000BF07E049460020F0
:102FB00001F04CFD09F1010000F0FF09B9F1300FFB
:102FC000F4DB781900880190AD1CA8EB05000028FF
:102FD00076DD785D012804D0022864D0042863D10E
:102FE00000E000BF32464FF0010A00200390504637
:102FF000039914F0D1FFA94B0CCB10431943A74AF6
:1030000003C2A64903C9FFF790FFA44A03C2012CDB
:1030100022DB02F07EFA401CA0421DDD601E81B260
:10302000032003F094FD012812D19C48D0E9001040
:103030004FF6FF72504070EA01010DD10020974A0F
:1030400010605060601E82B2032003F071FD03E047
:103050000020924A10605060802C23DB02F09FFA1F
:103060008030A0421EDDA4F1800081B2042003F074
:103070006EFD012812D18948D0E900104FF6FF7289
:10308000504070EA01010DD1844A11605160A4F1F1
:10309000800082B2042003F04BFD03E000217F4A50
:1030A0001160516000E000BF00BF6D1CA8EB05007F
:1030B000002862DD785D012803D002285CD15AE047
:1030C00069E032464FF0010B002004905846049905
:1030D00014F062FF724B0CCB10431943704A03C2C9
:1030E000012C21DB02F015FA401CA0421CDD601E01
:1030F00081B2032003F04AFD012811D16848D0E9CC
:1031000000104FF6FF73584070EA01010CD1644A79
:1031100011605160601E82B2032003F028FD03E0BD
:1031200000205F4A10605060802C23DB02F037FAE9
:103130008030A0421EDDA4F1800081B2042003F0A3
:1031400025FD012812D15648D0E900104FF6FF7234
:10315000504070EA01010DD1514A11605160A4F153
:10316000800082B2042003F002FD03E000204C4AFC
:103170001060506000E000BF00BF6D1CA8EB0500B0
:10318000002808DD781900880090AD1C3146BDF894
:10319000000001F05BFC24B93146BDF80400FFF7E4
:1031A00096FE40480078A04204D1BDF804003E4994
:1031B00021F81600304601F03CFC0290BDF80410E6
:1031C0000298884204D03146BDF8040001F038FC72
:1031D000802C02DBA4F15C00C4B2BDF8041004EB47
:1031E00044023248006800F2CF1000EB421000EBBE
:1031F0004600018005B0BDE8F08F2DE9F04104469E
:1032000004EB840000EB44102949085C10F0010F26
:1032100017D026480068D0F8B680D0F8BA70224699
:10322000012500262846314614F0B6FE48EA000281
:1032300047EA01031D48006800F18A00C262036387
:1032400017E01A480068D0F8B670D0F8BA80224665
:10325000012500262846314614F09EFE0A46C14349
:103260000F4028EA020811480068C0F8B670C0F89C
:10327000BA8004EB840000EB44100D49085CC0F3F5
:10328000400060B30948006814E00000AC6E002004
:103290005C6D00203032303069000020700000206A
:1032A00078000020FA00002040B4002048000020F0
:1032B0004C860020D0F8BE80D0F8C270224601258E
:1032C00000262846314614F067FE48EA000247EA25
:1032D0000103FD480068B6308260C36016E0FA481A
:1032E0000068D0F8BE70D0F8C280224601250026C2
:1032F0002846314614F050FE27EA000028EA01086B
:10330000F1490968C1F8BE00C1F8C28004EB84002D
:1033100000EB4410ED49085CC0F38000B0B1EA480E
:103320000068D0F8C680D0F8CA7022460125002671
:103330002846314614F030FE48EA000247EA01030D
:10334000E1480068B6300261436115E0DE4800687C
:10335000D0F8C670D0F8CA8022460125002628463B
:10336000314614F019FE27EA000028EA0102D64986
:103370000968B63108614A6104EB840000EB44102F
:10338000D249085CC0F3C000B0B1CF480068D0F8A3
:10339000CE80D0F8D270224601250026284631463C
:1033A00014F0FAFD48EA000247EA0103C648006843
:1033B000B6308261C36117E0C3480068D0F8CE70B0
:1033C000D0F8D2802246012500262846314614F046
:1033D000E3FD0A46C1430F4028EA0208BA480068E4
:1033E000C0F8CE70C0F8D28004EB840000EB44102B
:1033F000B649085CC0F30010B0B1B3480068D0F81B
:10340000D680D0F8DA7022460125002628463146BB
:1034100014F0C2FD48EA000247EA0103AA48006826
:10342000B6300262436214E0A7480068D0F8D68044
:10343000D0F8DA702246012500262846314614F0DD
:10344000ABFD28EA00008F439F490968B631086246
:103450004F6204EB840000EB44109C49085CC0F30D
:103460004010B0B198480068D0F8DE80D0F8E27023
:103470002246012500262846314614F08DFD48EAF3
:10348000000347EA010290480068B6308362C262D6
:1034900016E08D480068D0F8DE70D0F8E280224651
:1034A000012500262846314614F076FD27EA000063
:1034B00028EA010884490968C1F8DE00C1F8E28001
:1034C00004EB840000EB44108049085CC0F38010DA
:1034D000B0B17D480068D0F80681D0F80A71224664
:1034E000012500262846314614F056FD48EA000220
:1034F00047EA010374480068B6300265436515E089
:1035000071480068D0F80671D0F80A81224601257A
:1035100000262846314614F03FFD27EA000028EA3D
:10352000010269490968B63108654A65664800685C
:10353000D0F8F680D0F8FA702246012500262846F9
:10354000314614F029FD08EA000207EA01000023D1
:103550005A405840024347D004EB840000EB44102B
:103560005A4908444078C0F3801038B904EB84000D
:1035700000EB4410085C10F0010F35D15248006890
:10358000D0F8F670D0F8FA802246012500262846A9
:10359000314614F001FD27EA000028EA01084A49F3
:1035A0000968C1F8F600C1F8FA8004EB840000EB6A
:1035B00044104649084440780121B1EBD01F13D193
:1035C00041480068D0F8FE80D0F8027122462846B3
:1035D000314614F0E1FC48EA000347EA01023A48A8
:1035E0000068B6308364C264BDE8F0812DE9F04123
:1035F00007460D461446002604EB840000EB4410F9
:1036000032490844A9190988018000BF2046FFF704
:10361000F4FDBDE8F0812DE9F74FAEB088461446C1
:103620000025002021900120209000201E901F9056
:1036300040210EA814F0A3FD4FF0FF3900200D909B
:1036400000264FF0604718F8050021906D1C6D1C96
:10365000219808281BD2DFE800F086041B293D547E
:10366000627204EB84001A4901EBC00008EB05010B
:103670000988A0F80110AD1C04EB8400144901EB8B
:10368000C00008EB05010968C0F803102D1D6AE0B1
:1036900004EB84000E4901EBC000C01C08EB0501DF
:1036A0000A68426089880181AD1D5CE004EB8400FA
:1036B000074901EBC00008EB05010A6840F80D2F2F
:1036C00089888180AD1D4EE0480000204C86002096
:1036D0001C5C002004EB8400F94901EBC00008EBFE
:1036E00005010988A0F81310AD1C04EB8400F4490F
:1036F00001EBC00008EB05010968C0F815102D1D8D
:1037000031E004EB8400EE4901EBC000153008EB1A
:1037100005010A68426089880181AD1D23E004EB40
:103720008400E74901EBC00008EB05010A6800F1DD
:103730000B0042618988018305F1060513E018F842
:103740000500E04908706D1C2E9805280AD1DE4856
:1037500000EB440008EB050109880180AD1C012045
:10376000DA49085500BF00BFD948015D2198401EC5
:10377000012282401143C8B2D54908550846005D70
:103780007F287DD10020085504EB8400CC4A02EB51
:10379000C000411C12220DF13A0014F04FFC04EB62
:1037A0008401C74A02EBC101481C282114F0C5FC62
:1037B0002F2212A9684614F086FC0EA80FC802F04A
:1037C000E7F8814619F1010003D102208DF8780055
:1037D00003E1FEF731FE012803D104208DF87800C3
:1037E000FBE0B8480078012802D0022852D14DE011
:1037F0001FFA89F1042002F0DDFF401C12D10120E4
:103800008DF87800224601210020CDE922010846EA
:10381000229914F0C1FBAF4B0CCB10431943AD4AB6
:1038200003C232E01FFA89F1042003F0A6F80D90DC
:103830001FFA89F1042002F0BDFF0D99884203DCD4
:1038400002208DF8780020E001208DF87800A24851
:1038500030F814009C4931F81410884202D19B487A
:10386000005D90B90D98401C80B20D900D98A0F5A8
:103870007F41FF3901D101200D901FFA89F200E04C
:10388000BBE004200D9902F0D8FE03E001208DF882
:10389000780000BF00BF9DF87800012898D18948C2
:1038A0000078012802D002281BD10CE08B48006868
:1038B000B630026C416CB243B94388480068B630F8
:1038C000026441640DE085480068B630016C406CCC
:1038D000314340EA070281480068B630016442641F
:1038E00000BF00BF7D480068D0F8F6A0D0F8FAB05D
:1038F000224601210020CDE92C0108462C9914F024
:103900004BFB4AEA000A4BEA010B74480068C0F816
:10391000F6A0C0F8FAB071480068D0F8FEA0D0F860
:1039200002B1224601210020CDE92A0108462A9948
:1039300014F032FB2AEA00002BEA010B6749096800
:10394000C1F8FE00C1F802B1224601210020CDE9F4
:1039500028010846289914F01FFB0A46C143D043AA
:103960005F4B0CCB114018405D4AC2E900105B4828
:103970000068D0F89CA0D0F8A0B022460121002019
:10398000CDE926010846269914F006FB0A46C143F4
:103990000AEA010A2BEA020B50480068C0F89CA012
:1039A000C0F8A0B04D480068D0F8A4A0D0F8A8B0E6
:1039B000224601210020CDE924010846249914F073
:1039C000EBFA0A46C1430AEA010A2BEA020B434812
:1039D0000068C0F8A4A0C0F8A8B000203949087059
:1039E000394921F8140039490855052023461EAAF3
:1039F0000090012020990BF088FC31B0BDE8F08FD9
:103A0000F0B50546002000230B5C401C401C012B38
:103A100002D0022B1CD10DE002EB820404EB421415
:103A2000304E34440E183768C4F81A70B688E683EE
:103A3000801D0DE002EB820404EB4214294E344455
:103A40000E1837682762367984F82460401D00BF5D
:103A500000BFF0BD2DE9FE4F0E461446002500279D
:103A6000AA464FF0010B204903C9CDE90101775D5A
:103A70006D1C6D1C062F4DD2DFE807F04C03111CA6
:103A80001D1E04EB840000EB441016490844711914
:103A90000A68C0F802208988C180AD1D3AE004EBB5
:103AA000840000EB44100F49084471190988018112
:103AB000AD1C2FE000BF00BF052F17D1042016E07A
:103AC0001C5C002080000020FC6300205C6400205F
:103AD000EC5B0020580000209C6300204800002080
:103AE000D00100204C8600204C910508062082461B
:103AF00004EB840202EB4412FE4B1A440A32FB1E12
:103B000003EB430302EB43007119524614F096FA9B
:103B1000554400BF00BFF848005D791E01228A406D
:103B20001043F54908550846005D1F2818D10020AC
:103B30000855A020234601AA5946009001200BF009
:103B4000E4FB22464FF001084FF000094046494689
:103B500014F022FAE94B0CCB10431943E74A03C295
:103B6000BDE8FE8F2DE9F74FAAB00E46144600259A
:103B7000AA460120269000202490259081464021CD
:103B800014A814F0FCFA6F1EA8460020139016F833
:103B900005A06D1C6D1CBAF1080F19D2DFE80AF000
:103BA0008B0419263348556404EB8400D44901EB97
:103BB000C00071190988A0F80110AD1C04EB840045
:103BC000CF4901EBC00071190968C0F803102D1D21
:103BD00071E004EB8400CA4901EBC000C01C7119FC
:103BE0000A68426089880181AD1D64E004EB8400AD
:103BF000C34901EBC00071190A6840F80D2F89888C
:103C00008180AD1D57E004EB8400BD4901EBC0008D
:103C100071190988A0F81310AD1C04EB8400B84991
:103C200001EBC00071190968C0F815102D1D42E0A4
:103C300004EB8400B24901EBC000153071190A6829
:103C4000426089880181AD1D35E004EB8400AC49F8
:103C500001EBC00071190A6800F10B00426189880C
:103C6000018305F1060526E0705D04EB8401A44A9A
:103C700002F831006D1C04EB8400114601EBC0001A
:103C800071190988A0F82510AD1C705D04EB840142
:103C900002EBC10181F827006D1C2A98082809D180
:103CA000984800EB4400711909880180AD1C01207F
:103CB0009549085500BF00BF9448005DAAF1010175
:103CC00001228A401043914908550846005D7F282B
:103CD00073D10020085504EB8400894A02EBC00030
:103CE000411C12220DF1520014F0A8F904EB8400DB
:103CF000834901EBC000C07841280BD14FF0030984
:103D00002F2218A9684614F0DEF914A80FC801F094
:103D100004FC074604EB8400794901EBC000C0783D
:103D200043280BD14FF004092F2218A9684614F03C
:103D3000CAF914A80FC801F02BFE0746B9B24846CD
:103D400002F038FD401C1ED00120A040C117704B6E
:103D50000CCB10401940002358405940084302D072
:103D6000B9F1030F0FD00120A040C117694AD2E971
:103D7000003218401140002358405940084346D0B3
:103D8000B9F1040F43D1781C41D004EB84005C49A5
:103D900001EBC00090F82700012838D1032004EB84
:103DA0008401574A02EBC10181F82700B9F1030FE2
:103DB00004D0B9F1040F29D113E0D8E022464FF026
:103DC000010B002027905846279914F0E5F8504A37
:103DD000D2E9003223EA000022EA01014C4A03C280
:103DE00014E0224601210020CDE928010846289947
:103DF00014F0D2F80A46C143D043464AD2E9003211
:103E000019401040434AC2E9001000BF00BF4248B9
:103E100030F814003B4931F81410884202D13A4876
:103E2000005DD0B904EB8400354A02EBC00000F11C
:103E30000C011C226846079414F045F904EB840039
:103E40002F4A02EBC001282209A814F03CF9484689
:103E500009A90EC909F0CDFF02E001202F49087021
:103E600004EB8400264901EBC00090F827000128EC
:103E700004D0022803D0032859D157E057E0781C1A
:103E800053D0254830F814001E4931F814108842E8
:103E900002D11D48005D58BB04EB8400184911F89D
:103EA0003000FF2814D1B9B2484602F094FE804693
:103EB00008F101001FFA80F8A8F57F40FF3801D112
:103EC0004FF00108BAB24146484602F06FFE2CE0BE
:103ED000B9B2484602F0A5FE804608F101001FFA7B
:103EE00080F8A8F57F40FF3801D14FF0010817E0B6
:103EF0001BE000004C8600208C6400209000002015
:103F0000EC640020CC6C00202C6D0020BC640020F0
:103F100050000020580000206C6C00206000002041
:103F2000BAB24146484602F069FE00E000BF00BF59
:103F30001F4830F814001F4921F8140004EB8401D5
:103F40001D4A02EBC100282114F019F9002018497C
:103F500021F81400194908559DF84C0038B906207D
:103F6000234624AA0090012026990BF0CEF92DB00B
:103F7000BDE8F08FFDF746FD4FF4FA600AF006FB4E
:103F800000BF09F093FEFDF7E0FDFDF77AFD0BF0B1
:103F900090FB0BF0B9FD0A200AF0F8FAF1E710B532
:103FA0000423074A0021AFF233000BF075F910BD6E
:103FB000CC6C00206C6C0020EC6400202C6D002088
:103FC0001853002010B5FCF787F9FE49086000F08F
:103FD00027FDFD49086000F025FD10BD2DE9FC5FBF
:103FE000044600200090F7480068D0F87CB0D0F874
:103FF00080A02246012500262846314613F0CCFF3A
:104000000BEA00000AEA01034FF0000C80EA0C0002
:1040100083EA0C03184330D1EA480068D0F88CB02A
:10402000D0F890A0224601274FF0000838464146BC
:1040300013F0B2FF0BEA00020AEA010300214A4032
:104040004B401A4319D1DF480068D0F8E6B0D0F8E9
:10405000EAA022464FF0010900200190484601994C
:1040600013F09AFF0BEA00020AEA010300214A401A
:104070004B401A4301D1012000900098BDE8FC9FFD
:104080002DE9FE4306460F461546002401F0C1FD0A
:10409000804601F0BAFE029001F037FE0190002048
:1040A0000090C8480068B0F8AD004DF28F3108406C
:1040B00000902819BDF800100180A41C05F80480A8
:1040C000641C2819BDF808100180A41C2819BDF82B
:1040D00004100180A41C2E55641C3C70BDE8FE83B6
:1040E0002DE9F04F95B00020049002900390B7485E
:1040F0000078FFF773FF01280ED102AA04A900205F
:10410000FFF7BEFF01200090B048037802AA9DF897
:10411000101001200BF0F9F8AC48007800EB4001DA
:10412000AB4800EB41000079401CC1B2A7480078C1
:1041300000EB4002A64800EB42000171A349097858
:1041400001EB4102A24901EB42004EF660210AF068
:1041500005FA01287ED19D48007800EB40019C487B
:1041600000EB410000790A2874DB0A2197480078A7
:1041700000EB4002964800EB420001719148006854
:10418000D0F87CB0D0F880A09048027801240025B7
:104190002046294613F000FF0BEA00020AEA010359
:1041A00000214A404B401A437ED1012187480078C4
:1041B00000EB4002864800EB4200417181480068F4
:1041C000D0F87CB0D0F880A0804802780126002783
:1041D0003046394613F0E0FE2BEA00002AEA010AD5
:1041E00078490968C867C1F880A076480068D0F8A7
:1041F00084B0D0F888A075480278A0464FF0000936
:104200004046494613F0C8FEC343CA430BEA0301C4
:104210000AEA02006B4A12682C329165D06569483F
:104220000068D0F88CA0D0F890B0684802780121DE
:104230000020CDE913010846139913F0ADFE0A469C
:10424000C1430AEA010A2BEA020B5E480068C0F883
:104250008CA000E0E6E0C0F890B05A480068D0F8C2
:1042600094A0D0F898B05948027801210020CDE9F7
:1042700011010846119913F08FFE0A46C1430AEA5C
:10428000010A2BEA020B4F480068C0F894A0C0F85E
:1042900098B04C480068D0F8E6A0D0F8EAB04B4897
:1042A00002780121002000E0A1E0CDE90F010846DD
:1042B0000F9913F071FE2AEA00002BEA010B414925
:1042C0000968C1F8E600C1F8EAB03E480068D0F8D5
:1042D000EEA0D0F8F2B03D48027801210020CDE9EF
:1042E0000D0108460D9913F057FE2AEA00002BEA4B
:1042F000010B34490968C1F8EE00C1F8F2B0314849
:104300000068D0F89CA0D0F8A0B030480278012115
:104310000020CDE90B0108460B9913F03DFE0A463B
:10432000C1430AEA010A2BEA020B26480068C0F8DA
:104330009CA0C0F8A0B023480068D0F8A4A0D0F892
:10434000A8B02248027801210020CDE909010846E1
:10435000099913F021FE0A46C1430AEA010A2BEA31
:10436000020B18480068C0F8A4A0C0F8A8B015480F
:104370000068D0F8F6A0D0F8FAB01448027801210D
:104380000020CDE907010846079913F005FEC24356
:10439000C8430AEA02010BEA000B0A480068C0F8A9
:1043A000F610C0F8FAB007480068D0F8FEA0D0F8C0
:1043B00002B10648027801210020CDE90501084636
:1043C000059907E0880000208C000020980000205C
:1043D0008C6D002013F0E0FD2AEA00002BEA010BAF
:1043E000FE490968C1F8FE00C1F802B11AE0FC49B3
:1043F000097801EB4102FB4901EB420000210AF080
:10440000ADF80021F648007800EB4002F54800EBDB
:1044100042000171F248007800EB4002F14800EBE5
:1044200042004171EE480078401CED490870084692
:104430000078302801D10020087015B0BDE8F08F59
:1044400070B505460E460024FDF7F6FF012803D19E
:10445000285D40F001002855641C01F083FD2855BB
:10446000641C02F018FC2855641C02F08FFC2855CF
:10447000641C02F00AFD2855641C347070BD1FB521
:10448000002003900190029003A901A8FFF7D8FF34
:1044900003200090D448037801AA9DF80C10012055
:1044A0000AF033FFD0480078401CCF490870084616
:1044B0000078302801D1002008701FBD3EB50125CD
:1044C0000020019002900024C84804781AE0C4EB50
:1044D0008411C74810F8110010F0010F10D0C34824
:1044E00004700078FFF77AFD012808D18020009041
:1044F000BE48037801AA294601200AF006FF03E01E
:10450000601CC4B2302CE2DB00BFB8480078401C0D
:10451000B649087008460078302801D1002008709C
:104520003EBD3EB50124002001900290B1480078C4
:10453000FFF754FD012808D104200090AD4803780E
:1045400001AA214601200AF0E0FEAA480078401C9A
:10455000A849087008460078302801D1002008706A
:104560003EBD3EB50124002001900290A248007893
:10457000FFF734FD012813D19F48007800EB80013C
:1045800001EB40109D49085C10F0010F08D090200D
:1045900000909948037801AA214601200AF0B5FE4F
:1045A00095480078401C94490870084600783028E7
:1045B00001D1002008703EBDFEB50126904903C917
:1045C000CDE901018F480078FFF708FD012824D1CB
:1045D0008C480278012400252046294613F0DCFC93
:1045E000894B0CCB104019400023584059400843D8
:1045F00013D18448007800EB800101EB40107F4923
:10460000085C10F0010F08D0A02000907D480378CE
:1046100001AA314601200AF078FE7A480078401C51
:104620007849087008460078302801D100200870C9
:10463000FEBDF0B5A1B0044600250026402111A81A
:1046400013F09DFD00271CB97048006846881BE0E8
:10465000802C0DDBA4F1800081B201A801F07AF872
:10466000402201A911A813F02EFDBDF858600BE0FF
:10467000601E81B201A800F028FD402201A911A806
:1046800013F021FDBDF8586000252AE0FCF790FFEB
:1046900028BB5248006890F8AF0010F0010F1ED1FF
:1046A0005B480078D8B905EB45014E4800EB410066
:1046B0004079A0B955480068001D00EB450000880E
:1046C000B0420CD05EB151480068643000EB450048
:1046D0000088A0F57F41FF3901D0012703E0681C65
:1046E000C5B2302DD2DB00BF384621B0F0BD2DE978
:1046F000F04107460E461446002574556D1C0020F7
:104700007055012C0DDB00F004FF401CA04208DDB9
:10471000601E81B2032002F01AFA012801D1FE20A6
:104720007055802C0EDB00F03AFF8030A04209DD8E
:10473000A4F1800081B2042002F009FA012801D11D
:10474000FE2070556D1C00207055012C0DDB00F013
:10475000E0FE401CA04208DD601E81B2032002F092
:1047600015FA012801D1EE207055802C0EDB00F0E7
:1047700016FF8030A04209DDA4F1800081B2042040
:1047800002F004FA012801D1EE2070556D1C3D7035
:10479000BDE8F08100B5A3B00020229020902190C8
:1047A000402110A813F0EBFC1A48007800287DD1B6
:1047B0004FF4C871184809F0D1FE0128F7D1002143
:1047C000154809F0CBFE154801780078401C134AC3
:1047D000107005297CDB0020114621E088000020B4
:1047E000980000208C6D0020990000209A00002085
:1047F000AC6E00209B0000209C0000204C86002016
:10480000549105089D000020900000208C0000209D
:10481000340000209F000020A0000020A400002001
:10482000087076480078FFF704FF012834D17348F8
:10483000007840B9684600F012F94022694610A895
:1048400013F041FC1CE06D48007880280CDB6B48BD
:104850000078803881B2684600F07CFF40226946CB
:1048600010A813F030FC0BE064480078401E81B2C1
:10487000684600F02AFC4022694610A813F023FC89
:1048800002208DF840002F2214A9684613F01BFC6B
:1048900010A80FC807F087F858480078401C5749FF
:1048A000087000F036FE401C544901E032E00FE091
:1048B0000978884202D180205049087000F06FFECC
:1048C00080304E490978884202DC00204B4908704C
:1048D00000F01FFE401C4949097888420ADC47481D
:1048E0000078802816DB00F05AFE803043490978B2
:1048F00088420FDD4148027820A922A8FFF7F7FE81
:10490000F42000903E48037820AA9DF888100120EA
:104910000AF0FBFC23B000BD90B0202108A813F0E2
:104920002EFCFFF74FFB4FF4FA6009F02FFE00BF9B
:104930000A21344809F012FE012812D10021314821
:1049400009F00CFE684603F0DAF92022694608A84F
:1049500013F0B9FB9DF8210008B9FFF71BFFFFF723
:10496000BFFB3221284809F0F9FD012805D10021BB
:10497000254809F0F3FDFFF782FD1421234809F0D3
:10498000EDFD012805D10021204809F0E7FDFFF7E2
:10499000C8FD64211E4809F0E1FD012805D1002170
:1049A0001B4809F0DBFDFFF789FD7821194809F064
:1049B000D5FD012805D10021164809F0CFFDFFF7EC
:1049C000D0FD3221144809F0C9FD012805D100218C
:1049D000114809F0C3FDFFF7EFFD0AF06AFE0BF086
:1049E00093F8052009F0D2FDA2E710B505230B4A84
:1049F0000021AFF2DB000AF04FFC10BDA500002043
:104A00009E000020A8000020B0000020B40000207C
:104A1000AC000020B8000020BC0000203895002029
:104A2000FD48704710B56021FB48001D13F085FB61
:104A300010BD0146F848001D00EB4100008870479A
:104A4000F54A121D02EB410210807047F24A6432AF
:104A500002EB410210807047EF480088704710B5A4
:104A600004463F22ED49204613F0E8FA10BD2DE937
:104A7000F04387B000250020059006900390049035
:104A8000002400260027804602908146019005A858
:104A9000011907220D200AF0C6FB03A801190722FD
:104AA0000D200BF02DFD05A90819052109F0F4FCD6
:104AB000804603A90819052109F0EEFC814605A8E6
:104AC000065D03A8075D641C241D05A8204400881A
:104AD000029003A8204400880190A52E0BD1BDF8B8
:104AE0000800804507D1DDF81550072205A90D20E3
:104AF0000BF0F6FC0EE0A52F0BD1BDF804008145AC
:104B000007D1DDF80D50072203A90D200AF080FB24
:104B100000E00125284607B0BDE8F08300B5A1B04C
:104B2000402111A813F02BFBFFF7A1FFBA49088021
:104B300001A8FFF794FF402201A911A813F0C3FABE
:104B4000BDF85800B449488021B000BD30B595B0DB
:104B500040F24D141822B2A10FA813F0B4FA254662
:104B600017200E9000200C900D900A900B9024219D
:104B700001A813F004FB00200090A7480088A04281
:104B800006D11722AC490FA813F02CFA002861D0E7
:104B9000A148048017220FA9A74813F04FFAA520B7
:104BA0008DF83000CDF8315005210CA809F074FCC7
:104BB0000090BDF80000ADF8350007220CA90D20CB
:104BC0000BF08EFC07220CA90D200AF021FBA5207A
:104BD0008DF82800BDF83800ADF8290003210AA897
:104BE00009F05AFC0090BDF80000ADF82B0005223A
:104BF0000AA918200BF074FC05220AA918200AF053
:104C000007FBA5208DF80400BDF838208A490DF176
:104C1000050013F013FABDF83800401C81B201A85A
:104C200009F03AFC009001A9BDF83800401C084486
:104C3000BDF800100180BDF83800C01C82B201A987
:104C400021200BF04DFCBDF83820D21C01A92120F9
:104C50000AF0DEFA15B030BD1FB578A207CA01AB65
:104C600007C300200090072101A809F015FC00905F
:104C7000BDF80000ADF80B00092201A900200BF0DF
:104C80002FFC1FBD7048007870472DE9F04186B0B9
:104C90000020049005900290039000240025002637
:104CA000002701908046009004A8011905221820D1
:104CB0000AF0B9FA02A80119052218200BF020FC0D
:104CC00004A90819032109F0E7FB074602A90819FE
:104CD000032109F0E1FB804604A8055D02A8065DFA
:104CE000641CA41C04A820440088019002A820444D
:104CF00000880090A52D0DD1BDF80400874209D190
:104D00005148BDF811100180052204A918200BF0AC
:104D1000E7FB12E0A52E0DD1BDF80000804509D1BA
:104D20004948BDF809100180052202A918200AF09F
:104D30006FFA02E000204449087006B0BDE8F08137
:104D400070B506460D460024FFF79CFF0446002C74
:104D500006DD1E2C04DC22463749304613F06EF97E
:104D60002C7070BD2DE9F047C4B0842123A813F046
:104D700006FA842102A813F002FA00240026002774
:104D8000A046002001908146009000258246FFF752
:104D900079FF0546002D6FDD1E2D6DDCE81C1FFA26
:104DA00080FA23A80119524621200AF03CFA02A8F1
:104DB0000119524621200BF0A3FB6A1C91B223AAD1
:104DC000101909F069FB80466A1C91B202AA1019F9
:104DD00009F062FB814623A8065D02A8075D641CFA
:104DE0006019C4B223A820440088019002A820447E
:104DF00000880090A52E29D1BDF80400804525D15A
:104E00002A460DF18D010C4813F018F9524623A9DA
:104E100021200BF065FB2FE04FA000203C950020E7
:104E20004344475F4D445F425F42315F3330305F00
:104E30003333332E62696E00AFA30020A57A6C6411
:104E40001204010000000000C0000020A52F0FD1B7
:104E5000BDF8000081450BD12A460DF10901FE483D
:104E600013F0ECF8524602A921200AF0D1F903E030
:104E70002946F94813F061F944B0BDE8F08730B530
:104E8000ADF5097D05460C464FF40372F34906A8BB
:104E900013F019F9142101A813F071F91D2C08DA87
:104EA00004EBC40006AA02EB4001122201A813F091
:104EB000C5F8122201A9284613F0C0F80DF5097DA6
:104EC00030BD0FB430B595B0002011901290139002
:104ED00014900024109000250C900D900E900F90CF
:104EE00018A908A809F009F908A80FC8CDE90E23E8
:104EF000CDE90C0111A908190E220CA913F09EF896
:104F00000E34214611A809F0C7FA109011A82044C8
:104F1000BDF840100180A41C2F221CA9684613F084
:104F2000D2F818A80FC807F051F80546224611A973
:104F300028460AF06DF9A8B2224611A90BF0D0FA62
:104F400015B030BC5DF814FB0FB470B596B02A9C58
:104F500000201290139014901590002511900026B7
:104F60000D900E900F9010909DF8690001285FD071
:104F70009DF8690000285BD09DF86900032808D1DE
:104F8000C4EB8411B64A88183F221AA913F056F8C8
:104F900007E0C4EB8411B34A88183F221AA913F022
:104FA0004DF822461AA909A809F02CF909A80FC83A
:104FB000CDE90F23CDE90D0112A948190E220DA943
:104FC00013F03CF80E35294612A809F065FA119045
:104FD00012A82844BDF844100180AD1C33221DA93D
:104FE000684613F070F820461AA90EC907F038F881
:104FF00006462A4612A930460AF00AF9B0B22A46F5
:1050000012A90BF06DFA9DF86900032808D1C4EBD2
:105010008411934A88183F221AA913F00FF807E069
:10502000C4EB84118F4A88183F221AA913F006F89E
:1050300016B070BC5DF814FB0FB430B58DB0209C79
:10504000002009900A900B900C9000250890049085
:10505000059006900790E2B210A9684609F0D2F8D0
:105060009DE80F00CDE90623CDE9040109A94819FF
:105070000E2204A912F0E2FF0E35294609A809F014
:105080000BFA089009A82844BDF820100180AD1C37
:1050900040F2263101EB04102A4609A90AF0B8F8BB
:1050A00040F2263101EB041188B22A4609A90BF01F
:1050B00017FAC4EB84116B4A88183F2210A912F02A
:1050C000BDFF0DB030BC5DF814FB70B505460C4655
:1050D000C4EB8410634A81183F22284612F0AEFFC9
:1050E00070BDF0B5B1B000202D902E902F90309073
:1050F00029902A902B902C9000262890002727900A
:105100000025142122A813F03AF8002400201E9054
:105110001F902090219000BFADE000252DAA5119CD
:1051200040F2263202EB041010220AF07CF829AA81
:10513000511940F2263202EB041010220BF0E0F974
:105140002DA948190E2109F0A7F9064629A94819E1
:105150000E2109F0A1F907460E352DA82844008834
:10516000289029A8284400882790BDF8A0008642EE
:105170001FD12DA80FC8CDE92023CDE91E01BDF810
:105180008400ADF800000EA81EA90EC909F0A0F811
:10519000C4EB8411334A88183F220EA912F04EFF47
:1051A00040F2263101EB041010222DA90BF098F9E2
:1051B0005DE0BDF89C0087421FD129A80FC8CDE94A
:1051C0002023CDE91E01BDF88400ADF800000EA833
:1051D0001EA90EC909F07CF8C4EB8411214A881875
:1051E0003F220EA912F02AFF40F2263101EB0410F3
:1051F000102229A90AF00CF839E0214619A8FFF776
:105200003EFE142219A922A812F05DFF0220C4EB71
:105210008411144A11444870C4EB84111144881C51
:10522000122222A912F00AFFBDF88800F8B1C4EBDF
:1052300084100C4A104400F110012F2268460C948F
:1052400012F0FCFEC4EB8410064A81183F220EA81F
:1052500012F0F4FE0EA807E0AFA300205C91050851
:10526000189E00207B9500200FC8FFF7E5FE0AF08E
:105270004BFC601CC4B2F848B0F8CF00A0423FF726
:105280004CAF31B0F0BD70B5B0B0402120A812F0E5
:1052900076FF00201C901D901E901F901890199072
:1052A0001A901B900024002517900026169012904B
:1052B0001390149015901CA80119102240F216307A
:1052C00009F0B1FF18A80119102240F216300BF0B6
:1052D00017F91CA908190E2109F0DEF8054618A9CE
:1052E00008190E2109F0D8F806460E341CA82044EF
:1052F0000088179018A8204400881690BDF85C001C
:1053000085421AD11CA80FC8CDE91423CDE912019A
:10531000BDF85400ADF8000002A812A90EC908F0AB
:10532000D7FF3F2202A9CD4812F088FE10221CA907
:1053300040F216300BF0D4F82EE0BDF8580086424B
:105340001AD118A80FC8CDE91423CDE91201BDF870
:105350005400ADF8000002A812A90EC908F0B8FF69
:105360003F2202A9BD4812F069FE102218A940F29E
:10537000163009F04DFF0FE001208DF881004FF449
:105380009670ADF882002F2224A9684612F09BFE89
:1053900020A80FC8FFF795FD30B070BD11B583B0E0
:1053A0000020029001900024BDF80C00AA49A1F849
:1053B000CF0002A82044BDF80C100180A41C0221DB
:1053C00002A809F069F8019002A82044BDF8041071
:1053D0000180A41C042202A940F2F12009F018FF68
:1053E000042202A940F2F1200BF07AF81FBD10B59B
:1053F000A2B0402112A812F0C2FE002414210DA870
:1054000012F0BDFE02208DF8490000BF1DE02146CC
:1054100008A8FFF734FD142208A90DA812F053FEC6
:1054200012220DA90DF14A0012F008FEE0B22F225F
:1054300016A90C90684612F046FE12A80FC8FFF796
:1054400083FD0AF061FB601C84B21D2CDFDB22B0FF
:1054500010BD70B586B00020059004900390002424
:10546000002502900026019004A80119042240F2B0
:10547000F12009F0D8FE03A80119042240F2F1201E
:105480000BF03EF804A90819022109F005F80546B9
:1054900003A90819022108F0FFFF0646A41C04A86E
:1054A00020440088029003A8204400880190BDF8A1
:1054B0000800854208D104980590042204A940F20E
:1054C000F1200BF00DF813E0BDF80400864208D17E
:1054D00003980590042203A940F2F12009F098FEF8
:1054E00006E01D200590FFF782FF1D20FFF756FF05
:1054F000BDF814001D2803D01D200590FFF74EFFB6
:10550000BDF814005449A1F8CF00BDF8140006B04E
:1055100070BD5148B0F8CF0070470FB470B5A0B05F
:105520006FF001050024FFF7F4FF0646402110A8A4
:1055300012F025FE1D2E1ADB651E00BF14E0214669
:105540006846FFF7C2FD4022694610A812F0BBFD75
:1055500012220DF192010DF1420012F043FD08B943
:1055600025B203E0601C84B2B442E8DB06E0FFF73A
:105570003EFF1D20FFF712FF6FF00105A81C09D1A7
:105580002F2228A9684612F09EFD24A80FC8FFF715
:10559000C4FF0546284620B070BC5DF814FB2E48B9
:1055A000B0F8A201704711B583B0002002900190BD
:1055B0000024BDF80C002849A1F8A20102A820444B
:1055C000BDF80C100180A41C022102A808F064FFA1
:1055D000019002A82044BDF804100180A41C0422FC
:1055E00002A940F2F52009F013FE042202A940F2BC
:1055F000F5200AF075FF1FBD30B58FB005460C468B
:105600002422174906A812F05EFD142101A812F009
:10561000B6FD022C08DA04EBC40006AA02EB400136
:10562000122201A812F00AFD122201A9284612F046
:1056300005FD0FB030BD10B5A2B0402112A812F088
:105640009EFD002414210DA812F099FD03208DF871
:10565000490000BF24E000004FA000203C9500203E
:1056600068930508214608A8FFF7C6FF142208A979
:105670000DA812F028FD12220DA90DF14A0012F01A
:10568000DDFCE0B22F2216A90C90684612F01BFD3B
:1056900012A80FC8FFF758FC0AF036FA601C84B253
:1056A000022CDFDB22B010BD70B586B00020059063
:1056B000049003900024002502900026019004A885
:1056C0000119042240F2F52009F0ADFD03A80119EB
:1056D000042240F2F5200AF013FF04A90819022160
:1056E00008F0DAFE054603A90819022108F0D4FEE5
:1056F0000646A41C04A820440088029003A8204465
:1057000000880190BDF80800854208D104980590F2
:10571000042204A940F2F5200AF0E2FE13E0BDF8ED
:105720000400864208D103980590042203A940F2A0
:10573000F52009F06DFD06E002200590FFF77BFFE4
:105740000220FFF730FFBDF81400FE49A1F8A201C6
:1057500006B070BD70B505460C46C4EB8410FA4A1D
:1057600081183F22284612F069FC70BD0FB430B595
:105770008DB0209C002009900A900B900C90002581
:1057800008900490059006900790E2B210A9684630
:1057900008F038FD9DE80F00CDE90623CDE90401AE
:1057A00009A948190E2204A912F048FC0E35294611
:1057B00009A808F071FE089009A82844BDF8201037
:1057C0000180AD1C40F2565101EB04102A4609A994
:1057D00009F01EFD40F2565101EB041188B22A4631
:1057E00009A90AF07DFEC4EB8411D74A88183F222C
:1057F00010A912F023FC0DB030BC5DF814FBF0B51D
:10580000B1B000202D902E902F90309029902A90AA
:105810002B902C90002628900027279000251421FB
:1058200022A812F0ACFC002400201E901F902090B3
:10583000219000BFA4E000252DAA511940F2565234
:1058400002EB0410102209F0EEFC29AA511940F2D3
:10585000565202EB041010220AF052FE2DA94819EC
:105860000E2108F019FE064629A948190E2108F054
:1058700013FE07460E352DA828440088289029A835
:10588000284400882790BDF8A00086421FD12DA88B
:105890000FC8CDE92023CDE91E01BDF88400ADF885
:1058A00000000EA81EA90EC908F012FDC4EB841159
:1058B000A54A88183F220EA912F0C0FB40F25651AB
:1058C00001EB041010222DA90AF00AFE54E0BDF8E5
:1058D0009C0087421FD129A80FC8CDE92023CDE91C
:1058E0001E01BDF88400ADF800000EA81EA90EC967
:1058F00008F0EEFCC4EB8411934A88183F220EA9ED
:1059000012F09CFB40F2565101EB0410102229A921
:1059100009F07EFC30E0214619A8FFF76DFE142245
:1059200019A922A812F0CFFB0320C4EB8411864AE8
:1059300011444870C4EB84111144881C122222A91E
:1059400012F07CFBBDF88800B0B1C4EB84107E4A35
:10595000104400F110012F2268460C9412F06EFBE7
:10596000C4EB8410784A81183F220EA812F066FB1F
:105970000EA80FC8FFF7FAFE0AF0C6F8601CC4B202
:105980007048B0F8A201A0423FF755AF31B0F0BD6A
:105990000FB470B5A0B06FF001050024FFF7FFFD54
:1059A0000646402110A812F0EAFB022E1ADB651E03
:1059B00000BF14E021466846FFF7CCFE402269464E
:1059C00010A812F080FB12220DF192010DF142009D
:1059D00012F008FB08B925B203E0601C84B2B4429F
:1059E000E8DB06E0FFF727FE0220FFF7DCFD6FF0A3
:1059F0000105A81C09D12F2228A9684612F063FBD3
:105A000024A80FC8FFF7C4FF0546284620B070BC85
:105A10005DF814FB11B583B0002001900290009056
:105A2000002448480399C0F8CB1001A80119454843
:105A3000D0F8CB000860241D214601A808F02CFDF9
:105A4000009001A82044BDF800100180A41C06228B
:105A500001A940F2E65009F0DBFB062201A940F261
:105A6000E6500AF03DFD1FBD70B588B037480068AC
:105A700007900020059006900390049000240025D4
:105A8000029000260190062205A940F2E65009F096
:105A9000CAFB062203A940F2E6500AF031FD0421B8
:105AA00005A808F0F9FC0546042103A808F0F4FC59
:105AB0000646241D05A820440088029003A820441F
:105AC00000880190BDF8080085420AD11D4805995B
:105AD000C0F8CB10062205A940F2E6500AF000FDFE
